:1000000000800020BD010000B1BF000069BF0000FA
:1000100069BF000069BF000069BF000069BF000040
:1000200069BF000069BF000069BF0000B1BF0000E8
:10003000B1BF000069BF000011D8000015D9000051
:10004000B1BF0000B1BF0000B1BF0000B1BF0000F0
:10005000B1BF0000B1BF0000B1BF0000B1BF0000E0
:10006000B1BF0000B1BF0000B1BF0000B1BF0000D0
:10007000B1BF0000B1BF0000B1BF0000B1BF0000C0
:10008000B1BF0000B1BF0000B1BF0000B1BF0000B0
:10009000B1BF0000B1BF0000B1BF0000B1BF0000A0
:1000A000B1BF0000B1BF0000B1BF0000B1BF000090
:1000B000B1BF0000B1BF0000B1BF0000B1BF000080
:1000C000B1BF0000B1BF0000B1BF0000B1BF000070
:1000D000B1BF0000B1BF0000B1BF0000B1BF000060
:1000E000B1BF0000B1BF0000B1BF0000B1BF000050
:1000F000B1BF00006DDA0000B1BF000099DB000065
:10010000B1BF0000C5DC0000B1BF0000B1BF0000FE
:10011000B1BF0000B1BF0000B1BF0000B1BF00001F
:10012000B1BF0000B1BF0000B1BF0000B1BF00000F
:10013000B1BF0000B1BF0000B1BF0000B1BF0000FF
:10014000B1BF0000B1BF0000B1BF0000B1BF0000EF
:10015000B1BF0000B1BF0000B1BF0000B1BF0000DF
:10016000B1BF000071C70000B1BF0000B1BF000007
:10017000B1BF0000B1BF0000B1BF0000B1BF0000BF
:10018000B1BF0000B1BF0000B1BF0000B1BF0000AF
:10019000B1BF0000B1BF0000B1BF0000B1BF00009F
:1001A000B1BF0000B1BF0000B1BF0000B1BF00008F
:1001B000B1BF0000B1BF0000B1BF0000564B4CF210
:1001C000205210B51A804DF628121A8000BF00BFC9
:1001D0000BF0F2FE514B4FF010621A60504A9A60D9
:1001E000504ADA60504A136813F4807304D14F49BF
:1001F0000B604FF4A85313604D4B1A78110703D5C9
:100200001A7842F008021A704A4B4B492A221A7097
:100210004A4A4B4B8B4204D252F8040F43F8040B6A
:10022000F8E7484B484900228B4202D243F8042B9E
:10023000FAE74649464A002352F8230041F82300D2
:1002400001336F2BF8D1434B434A802103F8011B44
:100250009342FBD1414B3D4A1A60414B8A221A70AE
:10026000A3F5805324225A70A0221A709A7992071B
:10027000FCD59A79D406FCD43A4A937903F00C035E
:10028000082B384BF9D105221A7143225A719A79F9
:100290009006FCD5334A9179324B4906FBD5324A58
:1002A0004FF0817111600521516020221A709A79F6
:1002B00002F00C020C2AFAD12C4B2D4A1A602D4B5D
:1002C0002D4A1A6000225A60072243F8042C2B4A58
:1002D000C3F80C2D62B60CF001F9144B1B68DA0759
:1002E00005D527480BF08EFF264B274A1A60274B6F
:1002F0001B785B0609D5234C234B22689A4204D114
:100300001F480BF07FFF0023236010F00BF80BF069
:1003100059FE0BF087FDFEE70E20054030800440BB
:10032000823F04000100002B10D0034014D0034092
:1003300002D0074000E00740E491FF1FAC2001001D
:100340002087FF1FE491FF1F4896FF1F0082FF1FB9
:100350000000000000E400E05FE400E008ED00E0E1
:1003600000500640004006404480044004800440A1
:10037000C010050014E000E03F190100000020203B
:10038000C387B25D1CE00340A5C3945A00F0074048
:10039000FFFFFFFFFFFFFFFFFFFFFFFFFFFFFFFF6D
:1003A000FFFFFFFFFFFFFFFFFFFFFFFFFFFFFFFF5D
:1003B000FFFFFFFFFFFFFFFFFFFFFFFFFFFFFFFF4D
:1003C000FFFFFFFFFFFFFFFFFFFFFFFFFFFFFFFF3D
:1003D000FFFFFFFFFFFFFFFFFFFFFFFFFFFFFFFF2D
:1003E000FFFFFFFFFFFFFFFFFFFFFFFFFFFFFFFF1D
:1003F000FFFFFFFFFFFFFFFFFFFFFFFFFFFFFFFF0D
:10040000FFFFFFFFFFFFFFFFFFFFFFFFDEF9FFFF23
:1004100010B5054C237833B9044B13B10448AFF33E
:1004200000800123237010BDE491FF1F0000000035
:10043000A8200100084B10B51BB108490848AFF3CC
:1004400000800848036803B910BD074B002BFBD0A0
:10045000BDE81040184700BF00000000E891FF1FF2
:10046000A8200100E491FF1F0000000043680B700A
:1004700043681B0A4B70C3888B70C379CB70836849
:100480000B7183681B0A4B7143898B71C37ACB71E3
:10049000082070470B7843604A7843EA02234360A0
:1004A0008A7843EA02434360CA7843EA02634360BE
:1004B0000B7983604A7943EA022383608A7943EAAD
:1004C00002438360CA7943EA02638360082070476D
:1004D0000048704760130100004870477013010026
:1004E000F0B50C460A788280064614F8010F002306
:1004F00042EA0022B2801A4614F8010F98400833ED
:10050000202B42EA0002F7D1971D062F58D901F19E
:10051000050E551D73464C1913F8010F03F8010C15
:10052000A342F9D100234B5518460D44C6F808E004
:1005300015F8014F84400830202843EA0403F7D11E
:10054000381D0344834209D909320A440446013460
:1005500012F8015F02F8015CA342F8D80138CF1805
:100560000024084407F8014C2246F06017F8015BAC
:1005700095400832202A44EA0504F7D1181D0444A6
:10058000A04209D203330B440246013213F8015F43
:1005900003F8015CA242F8D30D1901380844002386
:1005A00005F8013C3061A8786B780A5DED780104AC
:1005B00041EA0323134343EA0563201D7361F0BD41
:1005C000551D01F1050EADE7004870479413010079
:1005D00000487047B01301000B78F0B4037100239A
:1005E00006460C461D4614F8012F9A400833202B6E
:1005F00045EA0205F7D1681D052801F1040708D96D
:100600002C1D3B460C4413F8012F03F8012C9C428F
:10061000F9D10D4400232B71B760F0BC704700BFC7
:1006200000487047D413010000487047E8130100E8
:100630000023F0B406464C1E1D4614F8012F9A40C4
:100640000833202B45EA0205F7D1281D042801F1C3
:10065000030708D9EC1C3B460C4413F8012F03F8A0
:10066000012C9C42F9D10D440023EB707760F0BC63
:10067000704700BF00487047F01401000048704701
:100680000C14010070B5064640680D4610F018FCC9
:100690006A1E0446002324FA03F10833202B02F8D3
:1006A000011FF8D17168281D22460BF0C3FB201DE5
:1006B00070BD00BF70B503790B70064680680D46AB
:1006C00010F0FEFB2A460446002324FA03F1083307
:1006D000202B02F8011FF8D1B168681D22460BF0EB
:1006E000A9FB601D70BD00BFF8B583880B708388BF
:1006F0001B0A4B70064680680D4610F0E1FB030EA6
:10070000010A020C6B71A8702A71E9700246044656
:10071000B168A81D0BF08EFBF06810F0D1FB611DD5
:10072000024629440634002322FA03F00833202B22
:1007300001F8010FF8D104342819F16814440BF0C2
:1007400079FB306910F0BCFB2A190746002327FA11
:1007500003F10833202B02F8011BF8D104342819C7
:100760003A4631690BF066FB381973692B5405441E
:10077000190A1A0C1B0E6970AA70EB700430F8BDD0
:1007800008460CF009BF00BF0CF01CBE2DE9F0417B
:10079000632984B003DD90F8F878002F53D01368F4
:1007A00005460F4610461B6805F223419847C2B222
:1007B000C0F30721561885F81E2447F30722F64395
:1007C000FF234FF0FE0EFCB285F82224421C85F870
:1007D000206485F81F1485F81C3485F81DE485F81D
:1007E00021440DDB00F22241294405F2214300227D
:1007F00001E013F8014F99422244FAD1D343DBB20E
:100800002A1800F10807B7F5806F82F823341EDC40
:10081000002F05F21C4616DD0730DFF85C80064429
:1008200005F21B4403E00CF0B7FEB4420BD06A683B
:1008300014F8011F13681B6843450846F3D010469F
:100840009847B442F3D1384604B0BDE8F081084976
:100850000191084A2B68039203218DF808101B6848
:10086000284601AA072198474FF0FF30ECE700BF68
:100870002C130100301401008107000038B5044634
:100880000D4608F03BFA2046034B40F80C3B294646
:100890000BF06AFA204638BD5C1301002DE9F04FD9
:1008A0008DB0D04AD04B06920022044600F61806BE
:1008B00000F67C05ADF81C200B92089309930A936F
:1008C00056F8043F002B00F0D28058681F6801687A
:1008D0009A6808978B68ADF81C2098473368099090
:1008E00058680368DB689847236831680A904FF4BA
:1008F00080621B68D1F810800B92BC4A93428246FA
:1009000040F0B581B8F1630F04DD94F8F838002B9E
:1009100000F0AD80BDF81C30DDF8209084F8233461
:100920001B0A84F82434484610F0CAFA07463B0EE6
:100930003A0C000A494684F8283484F8257484F86F
:10094000260484F8272404F229403A460BF072FA70
:10095000DDF824B0584610F0B3FA04F22349791DAB
:10096000024606374944002322FA03F00833202BBD
:1009700001F8010FF8D10437594609EB0700174475
:100980000BF058FA504610F09BFA09EB0702834629
:1009900000232BFA03F10833202B02F8011BF8D1B6
:1009A0000437514609EB07005A460BF043FA0BEBAC
:1009B000070E0EF104075FFA87FAC7F3072C09EB5D
:1009C0000E010AEB0C000022C0434FF0040B09F8A3
:1009D0000E20FF238A70CA7081F801B04FF0FE0923
:1009E0005FFA88F184F8200448F30728781C84F81B
:1009F0001EA484F81FC484F81C3484F81D9484F861
:100A0000211484F82284C0F20A820EF22640204487
:100A100004F2214301E013F8011F98420A44FAD17D
:100A2000D243D2B2E11907F10803B3F5806F81F820
:100A3000232400F32481002B04F21C4717DD0EF160
:100A40000B0EDFF8AC91774404F21B4803E00CF086
:100A5000A3FD47450BD0626818F8011F13681B6897
:100A60004B450846F3D0104698474745F3D1B54269
:100A70007FF426AFDFF8749104F50E6855F8040F83
:100A8000002800F0E3808168036842680891ADF8AF
:100A90001C209B6898472B6809901A681846D368F1
:100AA00098472B6821680A901A680E6852684FF4BC
:100AB000806118460B9190474E45074640F0CF8025
:100AC000632804DD94F8F838002B00F0BF80BDF8EF
:100AD0001C30089E84F823341B0A84F824343046E2
:100AE00010F0EEF982464FEA1A634FEA1A42000A02
:100AF000314684F8283484F825A484F8260484F840
:100B0000272404F2294052460BF094F909990191E7
:100B1000084610F0D5F904F223460AF105020199BE
:100B200083460AF1060A324400232BFA03F0083305
:100B3000202B02F8010FF8D10AF1040A5A4606EBFD
:100B40000A000BF077F90A990191084610F0B8F9FC
:100B5000D3440199824606EB0B0200232AFA03F0E4
:100B60000833202B02F8010BF8D10BF1040B06EB34
:100B70000B0052460BF05EF90AEB0B020B9BB354D1
:100B8000111D16445FFA81FCC1F3072E4FEA132BA7
:100B90004FEA134A0CEB0E001B0E86F801B086F8E4
:100BA00002A0F370C043FEB24FF0FF0B4FF0FE0AFD
:100BB00047F307274B1C84F8200484F81EC484F8EC
:100BC0001FE484F81CB484F81DA484F8216484F81C
:100BD000227418DB02F22647274404F22143002046
:100BE0000AE000BF14130100201701008D07000068
:100BF0008107000013F8016FBB423044FAD16FEA5D
:100C0000000B5FFA8BFB63180831B1F5806F83F836
:100C100023B400F3A080002904F21C4716DD0B3238
:100C2000DFF820A2174404F21B4603E00CF0B4FCEA
:100C3000BE420BD0626816F8011F13681B6853454B
:100C40000846F3D010469847BE42F3D1A8457FF43A
:100C500015AF012384F8F8380DB0BDE8F08F0146D8
:100C600006AA2046B047A8457FF408AFF1E7414601
:100C700006AA20469847B5427FF422AEFAE66E49AE
:100C8000039103226D49236805918DF810201B689C
:100C90006B498B4240F0CA80684F84F823240023BC
:100CA000382207F1300884F8242484F8253484F8A5
:100CB000263484F8273404F5856EBC46BCE80F0062
:100CC000C445CEF80000CEF80410CEF80820CEF8C7
:100CD0000C3067460EF1100EEFD103CF0022CEF894
:100CE0000000CEF804103D20C2234FF0FF0CFE2779
:100CF000072184F81E0484F8203484F81CC484F886
:100D00001D7484F81F2484F8222484F8211404F22A
:100D1000214304F25F4001E013F8011F98420A44A6
:100D2000FAD1D243DFF81C9184F8602404F21B4707
:100D300004F58C6804E00CF02FFC47453FF497AEB7
:100D4000626817F8011F13681B684B450846F2D00C
:100D500010469847F1E73849039103222368374941
:100D600005918DF810201B684B455AD1002384F85B
:100D7000232438220E4601F1300C84F8242484F810
:100D8000253484F8263484F8273404F58567B6467C
:100D9000BEE80F00E64538607960BA60FB607646D1
:100DA00007F11007F3D103CE0022386079603D20AF
:100DB000C2234FF0FF0EFE26072184F81E0484F89C
:100DC000203484F81CE484F81D6484F81F2484F81B
:100DD000222484F8211404F2214304F25F4001E04C
:100DE00013F8011F98420A44FAD1D243DFF854A005
:100DF00084F8602404F21B4604F58C6704E00CF0D0
:100E0000CBFBBE423FF422AF626816F8011F1368A5
:100E10001B6853450846F2D010469847F1E71A463A
:100E200000E603AA0721204698470FE703AA0721F7
:100E3000204698471BE600BF2C1301003014010028
:100E40008D070000810700002DE9F04FC84E93B0D8
:100E500033680693069DD0F8003942F6F822EB1A63
:100E6000934284BF002380F8F838D0F8E438044671
:100E700033B1D0F80439AB423CBF0023C0F8E438AA
:100E8000BC4FDFF800B3A26932B133680793079B08
:100E90005B1B9A42C0F02581606803685B69BB42B6
:100EA00067D10CF08FFA002866DBD4F8F438D4F858
:100EB000E4280344072AC4F8F43848D082B9FF284C
:100EC0006AD033680893089B41F288315B1B8B42E0
:100ED000D9D984F8F8286FF0010013B0BDE8F08F7D
:100EE000012A61D0022A00F0C080032A00F0C880E5
:100EF000042A00F0CF80052A00F0DC80062A00F0EA
:100F0000E180082ABFD19C4A1A4000239A42C4F8C3
:100F1000E438C0F26281FF2AB5D1D4F8EC38002B56
:100F200000F094820A2B00F05E82062B00F05E81B6
:100F30000B2B00F0578103F5DE7354F823000028D3
:100F4000A1D0036804F11C011B6898479BE7D4F803
:100F5000F038E2180133C4F8F0381077D4F8E838E4
:100F6000013BC4F8E838002B8DD10823C4F8E438DD
:100F700089E79847002898DA94F8F8080028ACD058
:100F8000D4F8FC3840F6C412EB1A934200F2AE805B
:100F9000002013B0BDE8F08F012205F11403C4F85E
:100FA000E428C4F804396EE7FE287FD094F8F828C6
:100FB0000023C4F8E438002A7FF465AF6F49236842
:100FC0000F911B686E4910928B42119240F0008184
:100FD000FF210820F7234FF0FE0E84F81C140A218D
:100FE00084F81E0484F8203484F8232484F824240C
:100FF00084F8252484F8262484F8272484F82824D7
:1010000084F8292484F82A2484F81F2484F82224CC
:1010100084F81DE484F8211404F2214304F22A40E8
:1010200001E013F8011F98420A44FAD1D243DFF8D5
:10103000589184F82B2404F21B4804F22B4A03E055
:101040000CF0AAFAC2450BD0626818F8011F1368A9
:101050001B684B450846F3D010469847C245F3D16C
:1010600033680993099BE3600DE700220323C4F86A
:10107000E808C4F8F408C4F8F028C4F8E43802E733
:10108000D4F8E83803EB00200423C4F8E808C4F8D7
:10109000E438F8E6384A1A40002AC0F28680FF2A6F
:1010A0000CBF05230023C4F8E438ECE60223C4F89F
:1010B000E438E8E60623C4F8EC08C4F8F408C4F8F9
:1010C000E438E0E6D4F8EC38D4F8E82803EB002361
:1010D0000721C4F8EC38C4F8E418002A3FF445AFFF
:1010E000D1E66FF0010013B0BDE8F08F234A23680A
:1010F0000F921B68224900228B421092119259D103
:10110000FF210820F723FE2784F81C140A2184F805
:101110001E0484F8203484F8232484F8242484F8DA
:10112000252484F8262484F8272484F8282484F8A5
:10113000292484F82A2484F81F2484F8222484F89B
:101140001D7484F8211404F2214304F22A4001E0C2
:1011500013F8011F98420A44FAD1D243DFF82880DD
:1011600084F82B2404F21B4704F22B4912E000BF41
:101170005093FF1F89070000FF000080FC12010050
:101180008D07000040420F00810700000CF004FAB8
:10119000B94513D0626817F8011F13681B684345EF
:1011A0000846F3D010469847F2E7013A62F0FF0292
:1011B000013274E70FAA0A212046984733680B933F
:1011C0000B9BC4F8FC580020E36013B0BDE8F08F1F
:1011D0000FAA0A212046984742E7013A62F0FF022F
:1011E000013298E6002384F8F8384CE6D4F81C90D5
:1011F000D4F81039994504F11C0807D94FEA890140
:10120000D4F818090FF0E6FBC4F81809C4F81099CF
:10121000B9F1000F00F0358104F6141C4246042198
:101220004FF0000E937992F8059010791B0443EA71
:10123000092392F80790034343EA0963C4F8143979
:10124000D4F81839DCF8000043F82E00D4F810392F
:101250000EF1010E7345084602F1040201F104018A
:10126000E0D8039100F10B0100F1090200F108033D
:10127000029100F10C010192994600F1050E00F176
:10128000060C00F1070A00F10A02049118F80C009C
:10129000039918F80EE018F801C018F80AA0D4F85D
:1012A0001C19000440EA0E2040EA0C0C4CEA0A6AC1
:1012B0008A450BD94FEA8A01D4F824090592039391
:1012C0000FF088FB059A039BC4F82409C4F81CA9F5
:1012D000BAF1000F00F0D28004F5126E08EB09029B
:1012E0000021937892F801C010781B0443EA0C2384
:1012F00092F803C0034343EA0C63C4F82039D4F8DE
:101300002439DEF8000043F82100D4F81C390131FB
:101310008B42484602F1040209F10409E1D8421D5A
:10132000C11D4B4601920291821D00F1080918F877
:101330000200019A18F8033018F80210029A00040B
:1013400018F802A0D4F8282940EA01210B4343EA07
:101350000A6A924507D94FEA8A01D4F830090FF09A
:1013600039FBC4F83009C4F828A9BAF1000F36D007
:1013700000218E4604F62C1000231A4608EB090AB9
:101380001AF801CB0CFA03FC0833202B42EA0C02BA
:10139000F6D109F1040C624494450BD209F1030320
:1013A0004344E14609F1010913F801AF03F801AC28
:1013B0009145F7D308EB02030CF1FF3C03F801EC75
:1013C000C444D4F83039C4F82CC9D0F800C043F86C
:1013D00021C0D4F8283901318B429146CCD8012361
:1013E00084F808394FE533680C930C9BE2682E486B
:1013F000D4F820C031680E919A1AA0FB02E02B4B62
:10140000DDF83880E1694FF47A7E80090EFB102206
:1014100063440BFB0232244BA3FB083C4FEA9C1CA9
:10142000013908440EFB1C8321460BFB1323CCEB34
:101430000002226104F1100041F8143F03F0A2FE03
:1014400033680D930D9BC4F800391CE522681849D8
:101450000F91109311930A21136820460FAA984701
:1014600033680A930A9BE3602046FFF717FAC4F833
:10147000FC58C4F800594FF0FF302EE5DDF810900D
:1014800055E70C2209210823049201910B22042123
:10149000029299460A224FF0070A4FF0060C4FF0CD
:1014A000050E0391F2E600BFD34D621000CA9A3BCD
:1014B000FC1201002DE9F04F0346A9B00C331D4684
:1014C0000C460290BA49019324A80AF039FC294637
:1014D00024A80AF091FCB749DFF8F4B20AF094FCB2
:1014E00023680768B44A20971F921B6800265B4553
:1014F00084F8086940F04B8638460FF0E1FC33462B
:10150000054604F2224225FA03F10833202B02F8A3
:10151000011FF8D139462E1D2A4604F227400AF051
:1015200089FCF1B2C6F307200A18D243FE27FF2335
:1015300084F81E1484F820240621002284F81D74E7
:10154000771C84F81F0484F81C3484F8211484F870
:101550002224C1F24F8205F22640204404F22143A6
:1015600001E013F8011F83420A44FAD1D243D2B2F8
:10157000A3190836B6F5806F83F8232401F3CA81D6
:10158000002E04F21C4711DD0B358C4E2F4404F263
:101590001B45626815F8011F13681B68B3420846B3
:1015A00041F024820BF0F8FFAF42F2D1DFF824A221
:1015B000DFF82492DAF800300A930A9B03F57A7375
:1015C000009394F80829002A40F03A8223687C4965
:1015D0005B688B4240F02282DAF800300C93DDF831
:1015E0003080D4F8003942F6F821C3EB08038B426F
:1015F000D4F8E43888BF84F8F82833B1D4F8043933
:10160000984502D90023C4F8E438A2693AB1DAF85F
:1016100000301093109BC8EB03039A4225D36068F7
:1016200003685B694B4540F0D9800BF0CBFE002886
:10163000C0F2D880D4F8F438D4F8E4280344072A58
:10164000C4F8F43800F03481002A76D1FF2800F085
:10165000A281DAF800300F930F9B41F28831C8EB7A
:1016600003038B42D1D984F8F828DAF800300993C3
:10167000099B009A9A42A4D2524A2192524D236861
:10168000239502228DF888201B685B4540F08983F2
:10169000002324212F4605F1200E84F8232484F80A
:1016A000241484F8253484F8263484F8273404F587
:1016B00085653E460FCE764528606960AA60EB607E
:1016C000374605F11005F4D130682860FF21292044
:1016D0000022D623FE2584F81C14072184F81E045A
:1016E00084F8203484F81D5484F81F2484F82224BC
:1016F00084F8211404F2214304F24B4001E013F872
:10170000011F98420A44FAD1D2432C4E84F84C244B
:1017100004F21B4704F24C4504E00BF03DFFAF42DE
:1017200000F00782626817F8011F13681B68B34254
:101730000846F2D010469847F1E7012A00F0CB8026
:10174000022A00F03081032A00F03881042A00F0D8
:101750003F81052A00F04B81062A00F05081082ABB
:101760007FF453AF194A1A4000239A42C4F8E43870
:10177000C0F2CA81FF2A7FF448AFD4F8EC38002BBE
:1017800000F0BA870A2B00F02B85062B00F05D8550
:101790000B2B00F01C8503F5DE7354F823000028A2
:1017A0003FF433AF036804F11C011B6898472CE732
:1017B0006C14010070140100441301008107000043
:1017C000490E00002C13010088140100FF00008066
:1017D0008D0700005093FF1F8907000098470028DD
:1017E000BFF628AF94F8F838002B3FF43EAFD4F89A
:1017F000FC3840F6C412C3EB080393427FF635AFC2
:10180000C44A236821921B6800225B4522922392DE
:1018100041F0F380FF210820F723FE2584F81C14F3
:101820000A2184F81E0484F8203484F8232484F8E0
:10183000242484F8252484F8262484F8272484F892
:10184000282484F8292484F82A2484F81F2484F87E
:10185000222484F81D5484F8211404F2214304F254
:101860002A4001E013F8011F98420A44FAD1D243FA
:10187000A94D84F82B2404F21B4704F22B4603E005
:101880000BF08AFEB7420BD0626817F8011F13688D
:101890001B68AB420846F3D010469847B742F3D1D5
:1018A000DAF800300B930B9BC4F8FC88E360DCE6AD
:1018B000D4F8F038E2180133C4F8F0381077D4F8CF
:1018C000E838013BC4F8E838002B7FF49EAE0823CB
:1018D000C4F8E43899E6FE2800F0858094F8F828EA
:1018E0000023C4F8E438002A7FF48FAE89492368C6
:1018F00021911B6822925B45239240F09780FF2143
:101900000820F723FE2584F81C140A2184F81E04FD
:1019100084F8203484F8232484F8242484F82524AB
:1019200084F8262484F8272484F8282484F8292499
:1019300084F82A2484F81F2484F8222484F81D546F
:1019400084F8211404F2214304F22A4001E013F840
:10195000011F98420A44FAD1D2436F4E84F82B24D7
:1019600004F21B4504F22B4703E00BF015FEBD42C9
:101970000BD0626815F8011F13681B68B342084654
:10198000F3D010469847BD42F3D1DAF800300E93F9
:101990000E9BE36039E6012208F11403C4F8E42841
:1019A000C4F8043931E600220323C4F8E808C4F877
:1019B000F408C4F8F028C4F8E43826E6D4F8E83887
:1019C00003EB00200423C4F8E808C4F8E4381CE65C
:1019D000524A1A40002A24DBFF2A7FF413AE052363
:1019E000C4F8E43811E60223C4F8E4380DE606230F
:1019F000C4F8EC08C4F8F408C4F8E43805E6D4F8F0
:101A0000EC38D4F8E82803EB00230721C4F8EC38BD
:101A1000C4F8E418002A3FF45AAFF6E52046984788
:101A200023E6013A62F0FF020132D5E721AA0A213A
:101A300020469847DAF800300E930E9BE360E4E509
:101A4000D4F81C39012B6FD0354A2192354D2368CB
:101A5000239502228DF888201B685B4540F0A18108
:101A6000002324212F4605F1200E84F8232484F836
:101A7000241484F8253484F8263484F8273404F5B3
:101A800085653E460FCE764528606960AA60EB60AA
:101A9000374605F11005F4D130682860FF21292070
:101AA0000022D623FE2584F81C14072184F81E0486
:101AB00084F8203484F81D5484F81F2484F82224E8
:101AC00084F8211404F2214304F24B4001E013F89E
:101AD000011F98420A44FAD1D2430F4E84F84C2495
:101AE00004F21B4704F24C4503E00BF055FDAF42F6
:101AF0001FD0626817F8011F13681B68B3420846BD
:101B0000F3D010469847F2E7013A62F0FF02013243
:101B100030E600BFFC12010081070000FF000080DA
:101B20002C130100B0140100D4F82439029A1B6868
:101B3000536024A80AF0C4F8BA4924A80AF000F9AE
:101B4000019924A80AF058F9B7490AF05DF9236809
:101B50000768B64A20971F921B6800265B4584F8E9
:101B6000086940F0258338460FF0AAF93346054648
:101B700004F2224225FA03F10833202B02F8011F58
:101B8000F8D139462E1D2A4604F227400AF052F9B0
:101B9000F1B2C6F307200A18D243FF2384F81E14BB
:101BA000FE2784F82024062184F81F040022701CDC
:101BB00084F81C3484F81D7484F8211484F82224D9
:101BC000C0F24C8605F22640204404F2214301E095
:101BD00013F8011F83420A44FAD1D243D2B2A319A7
:101BE0000836B6F5806F83F8232400F3D285002EE3
:101BF00004F21C4711DD0B358D4E2F4404F21B45BA
:101C0000626815F8011F13681B68B342084640F06C
:101C100021860BF0C1FCAF42F2D1DAF80030159307
:101C2000159BDFF8209203F57A73009394F8082946
:101C3000002A40F03A8223687E495B688B4240F07C
:101C40002282DAF800301793DDF85C80D4F800398E
:101C500042F6F821C3EB08038B42D4F8E43888BF7E
:101C600084F8F82833B1D4F80439984502D9002310
:101C7000C4F8E438A2693AB1DAF800301B931B9B30
:101C8000C8EB03039A4225D3606803685B694B4540
:101C900040F0DA800BF096FB0028C0F2D980D4F82F
:101CA000F438D4F8E4280344072AC4F8F43800F0E0
:101CB0003581002A7AD1FF2800F04381DAF800301C
:101CC0001A931A9B41F28831C8EB03038B42D1D996
:101CD00084F8F828DAF800301493149B009A9A429A
:101CE000A4D2554A2192554D2368239502228DF89E
:101CF00088201B685B4540F060820023242184F823
:101D0000232405F1200E84F8241484F8253484F863
:101D1000263484F8273404F585662F460FCF77459F
:101D200030607160B260F3603D4606F11006F4D198
:101D30003868306000222920D623FF26FE2507219F
:101D400084F81E0484F8203484F81C6484F81D543C
:101D500084F81F2484F8222484F8211404F22143F7
:101D600004F24B4001E013F8011F98420A44FAD1F3
:101D7000D2432F4E84F84C2404F21B4504F24C4706
:101D800004E00BF009FCBD4200F09881626815F890
:101D9000011F13681B68B3420846F2D010469847EB
:101DA000F1E721AA072120469847C2E6012A00F060
:101DB000D080022A00F02C81032A00F03481042A0A
:101DC00000F03B81052A00F04781062A00F04C8193
:101DD000082A7FF44FAF1A4A1A4000239A42C4F8E7
:101DE000E438C0F27181FF2A7FF444AFD4F8EC38B4
:101DF000002B00F033840A2B00F0FB83062B00F04D
:101E000011830B2B00F0E88103F5DE7354F82300F7
:101E100000283FF42FAF036804F11C011B689847AA
:101E200028E700BF6C140100D8140100441301001E
:101E300081070000490E00002C13010088140100E6
:101E4000FF0000808907000098470028BFF627AFF1
:101E500094F8F838002B3FF43DAFD4F8FC3840F646
:101E6000C412C3EB080393427FF634AFCB4A236816
:101E700021921B6800225B452292239240F0AA85A2
:101E8000FF210820F723FE2584F81C140A2184F87A
:101E90001E0484F8203484F8232484F8242484F84D
:101EA000252484F8262484F8272484F8282484F818
:101EB000292484F82A2484F81F2484F8222484F80E
:101EC0001D5484F8211404F2214304F22A4001E055
:101ED00013F8011F98420A44FAD1D243B04D84F856
:101EE0002B2404F21B4704F22B4603E00BF054FBB7
:101EF000B7420BD0626817F8011F13681B68AB422A
:101F00000846F3D010469847B742F3D1DAF80030CC
:101F10001693169BC4F8FC88E360DBE6D4F8F0382F
:101F2000E2180133C4F8F0381077D4F8E838013BF0
:101F3000C4F8E838002B7FF49DAE0823C4F8E438D9
:101F400098E6012208F11403C4F8E428C4F804391F
:101F500090E6FE287CD094F8F8280023C4F8E438F2
:101F6000002A7FF487AE8D49236821911B68229255
:101F70005B45239240F08F80FF210820F723FE2548
:101F800084F81C140A2184F81E0484F8203484F890
:101F9000232484F8242484F8252484F8262484F82F
:101FA000272484F8282484F8292484F82A2484F80F
:101FB0001F2484F8222484F81D5484F8211404F288
:101FC000214304F22A4001E013F8011F98420A4419
:101FD000FAD1D243724E84F82B2404F21B4504F24A
:101FE0002B4703E00BF0D8FABD420BD0626815F81E
:101FF000011F13681B68B3420846F3D01046984788
:10200000BD42F3D1DAF800301993199BE36031E651
:1020100000220323C4F8E808C4F8F408C4F8F02840
:10202000C4F8E43826E6D4F8E83803EB00200423AB
:10203000C4F8E808C4F8E4381CE65A4A1A40002AF2
:1020400024DBFF2A7FF413AE0523C4F8E43811E63D
:102050000223C4F8E4380DE60623C4F8EC08C4F8FB
:10206000F408C4F8E43805E6D4F8EC38D4F8E828E5
:1020700003EB00230721C4F8EC38C4F8E418002A65
:102080003FF45BAFF6E52046984723E6013A62F05D
:10209000FF020132D5E721AA0A2120469847DAF843
:1020A00000301993199BE360E4E5D4F81C39012B47
:1020B0000FD1D4F82439029A1B68936024A809F040
:1020C000FFFD29B0BDE8F08F013A62F0FF02013256
:1020D00089E6354A2192354D2368239502228DF8F1
:1020E00088201B685B4568D10023242184F82324C1
:1020F00005F1200E84F8241484F8253484F826345D
:1021000084F8273404F585662F460FCF7745306075
:102110007160B260F3603D4606F11006F4D1386894
:10212000306000222920D623FF26FE25072184F8CF
:102130001E0484F8203484F81C6484F81D5484F848
:102140001F2484F8222484F8211404F2214304F289
:102150004B4001E013F8011F98420A44FAD1D243E0
:102160000F4E84F84C2404F21B4504F24C4703E064
:102170000BF012FAAF42A1D0626815F8011F136884
:102180001B68B3420846F3D010469847F2E71FAAEF
:10219000062120469847FFF709BA00BFFC1201004C
:1021A00081070000FF0000802C130100B014010023
:1021B0001FAA0621204698472FE521AA072120467D
:1021C000984724A809F07CFD29B0BDE8F08F0023D2
:1021D00084F8F838FFF719BA002384F8F83849E58D
:1021E000DAF800301193119BE2688B48276A8B4E16
:1021F000DAF8001013919A1AA0FB02503E444FF4F3
:102200007A758009864F139BE16905FB102207FB55
:102210000262814EA6FB0376B609013905FB16332F
:102220007F4D0844214605FB1323821B226104F1E4
:10223000100041F8143F02F0A5FFDAF800301293C5
:10224000129BC4F80039FFF7E0B9E669D4F81039F9
:102250009E4204F11C0506D9B100D4F818090EF00D
:10226000B9FBC4F81809C4F81069002E00F03283D5
:1022700004F61417284604230026827990F805E016
:102280000179120442EA0E2290F807E00A4342EA7A
:102290000E62C4F81429D4F81829396842F82610B7
:1022A000D4F810290136B242194600F1040003F1B6
:1022B0000403E2D8059301F10B0301F1090201F1D6
:1022C0000807049301F10C0303923E4601F1050E49
:1022D00001F1060CC81D01F10A02069315F80C1055
:1022E000059B15F80EE015F803C02B5CD4F81C090B
:1022F000090441EA0E2141EA0C0C4CEA03638342D3
:102300000AD99900D4F82409079205930EF062FBCC
:10231000079A059BC4F82409C4F81C39002B00F067
:10232000D78204F51267AA190021937892F801E088
:1023300010781B0443EA0E2392F803E0034343EAB8
:102340000E63C4F82039D4F82439386843F82100E2
:10235000D4F81C0901318842334602F1040206F127
:102360000406E2D85A1DD91D3746039204919A1DDE
:1023700003F10806039BA85CE95C049AEB5DAF5C83
:10238000D4F82829000440EA01210B4343EA0767F7
:10239000974206D9B900D4F830090EF01BFBC4F8F7
:1023A0003009C4F8287997B300210F4604F62C10A1
:1023B00000231A4605EB060C1CF801EB0EFA03FE8F
:1023C0000833202B42EA0E02F6D106F1040E7244C5
:1023D000964509D2F31C2B447646013613F801CFFB
:1023E00003F801CC9642F8D3AB180EF1FF3603F890
:1023F000017C2E44D4F83039C4F82C69066843F8BF
:102400002160D4F8283901318B421646D0D80123F7
:1024100084F80839FFF7F9B8D34D621000CA9A3B27
:1024200040420F00E669D4F810399E4204F11C05C1
:1024300006D9B100D4F818090EF0CCFAC4F818097E
:10244000C4F81069002E00F0328204F614172846F2
:1024500004230026827990F805E00179120442EA0B
:102460000E2290F807E00A4342EA0E62C4F81429EB
:10247000D4F81829396842F82610D4F81029013602
:10248000B242194600F1040003F10403E2D80493B8
:1024900001F10B0301F1090201F10807019301F1B8
:1024A0000C0303923E4601F1050E01F1060CC81D16
:1024B00001F10A02059315F80C10049B15F80EE0C3
:1024C00015F803C02B5CD4F81C09090441EA0E215D
:1024D00041EA0C0C4CEA036383420AD99900D4F810
:1024E0002409069204930EF075FA069A049BC4F828
:1024F0002409C4F81C39002B00F0D78104F51267B9
:10250000AA190021937892F801E010781B0443EA9D
:102510000E2392F803E0034343EA0E63C4F8203924
:10252000D4F82439386843F82100D4F81C09013163
:102530008842334602F1040206F10406E2D85A1D2D
:10254000D91D3746039201919A1D03F10806039B9A
:10255000A85CE95C019AEB5DAF5CD4F82829000423
:1025600040EA01210B4343EA0767974206D9B900C5
:10257000D4F830090EF02EFAC4F83009C4F82879DE
:1025800097B300210F4604F62C1000231A4605EBE2
:10259000060C1CF801EB0EFA03FE0833202B42EA6E
:1025A0000E02F6D106F1040E7244964509D2F31CD0
:1025B0002B447646013613F801CF03F801CC96423E
:1025C000F8D3AB180EF1FF3603F8017C2E44D4F893
:1025D0003039C4F82C69066843F82160D4F82839EA
:1025E00001318B421646D0D8012384F80839FFF711
:1025F00041BBDAF800301C931C9BE268BE48276A96
:10260000BE4EDAF800101E919A1AA0FB02503E440A
:102610004FF47A758009BA4F1E9BE16905FB1022C1
:1026200007FB0262B44EA6FB0376B609013905FB2F
:102630001633B34D0844214605FB1323821B226148
:1026400004F1100041F8143F02F09CFDDAF800306C
:102650001D931D9BC4F80039FFF70CBBA9482168E6
:1026600021900D6822935D45239340F00C81082052
:10267000F721FE2584F81C240A2284F81E0484F81D
:10268000201484F8233484F8243484F8253484F81E
:10269000263484F8273484F8283484F8293484F8DC
:1026A0002A3484F81F3484F8223484F81D5484F8C2
:1026B000212404F2214104F22A4001E011F8012F03
:1026C00088421344FAD1DB438F4D84F82B3404F253
:1026D0001B4704F22B4604E00AF05EFFB74200F00D
:1026E000D680626817F8011F13681B68AB42084662
:1026F000F2D010469847F1E78248216821900D6892
:1027000022935D45239340F0AC800820F721FE25FD
:1027100084F81C240A2284F81E0484F8201484F807
:10272000233484F8243484F8253484F8263484F857
:10273000273484F8283484F8293484F82A3484F837
:102740001F3484F8223484F81D5484F8212404F2C0
:10275000214104F22A4001E011F8012F884213447C
:10276000FAD1DB43684D84F82B3404F21B4704F2A2
:102770002B4603E00AF010FFB74276D0626817F8E4
:10278000011F13681B68AB420846F3D010469847F8
:10279000F2E75E4A21925E4D2368239503228DF86D
:1027A00088201B685B4540F02E810023382184F887
:1027B000232405F1300E84F8241484F8253484F899
:1027C000263484F8273404F585672E460FCE7645E7
:1027D00038607960BA60FB60354607F11007F4D1C4
:1027E00003CDFF22386079603D200023C221FE2501
:1027F00084F81C24072284F81E0484F8201484F82A
:102800001D5484F81F3484F8223484F8212404F2FF
:10281000214104F25F4001E011F8012F8842134486
:10282000FAD1DB43384E84F8603404F21B4504F5DA
:102830008C6704E00AF0B0FEBD423FF4EEA9626886
:1028400015F8011F13681B68B3420846F2D0104602
:102850009847F1E710469847FFF7DDB91A46FFF7AA
:10286000BEB921AA0A212046A847DAF800300D9304
:102870000D9BE3602046FEF711F8C4F8FC88C4F80D
:102880000089FEF7F2BE21AA0A212046A847DAF8FD
:1028900000301893189BE3602046FDF7FFFFC4F853
:1028A000FC88C4F80089FFF715BA059E4FE60C2393
:1028B00005930B23019309230827039304233E4622
:1028C0000A2207204FF0060C4FF0050E0493F2E5A4
:1028D000069E4FE50C2306930B2304930923082738
:1028E000039304233E460A2207204FF0060C4FF0C4
:1028F000050E0593F2E400BFD34D621000CA9A3B67
:1029000040420F00FC120100810700002C1301005F
:10291000301401003F4A21923F4D23682395032242
:102920008DF888201B685B455AD10023382184F834
:10293000232405F1300E84F8241484F8253484F817
:10294000263484F8273404F585672E460FCE764565
:1029500038607960BA60FB60354607F11007F4D142
:1029600003CDFF22386079603D200023C221FE257F
:1029700084F81C24072284F81E0484F8201484F8A8
:102980001D5484F81F3484F8223484F8212404F27E
:10299000214104F25F4001E011F8012F8842134405
:1029A000FAD1DB431D4E84F8603404F21B4504F574
:1029B0008C6704E00AF0F0FDBD423EF4F7AD6268BA
:1029C00015F8011F13681B68B3420846F2D0104681
:1029D0009847F1E721AA0A2120469847FFF796BABF
:1029E00021AA072120469847FEF7E0BD10469847E8
:1029F000FEF7DABD1A46FEF7BBBD21AA0A21204622
:102A00009847FEF74DBF21AA072120469847FFF7B8
:102A100004B900BF2C13010030140100810700002D
:102A200038B504460D4606F069F92046034B40F8D8
:102A3000283B294609F098F9204638BDB815010011
:102A40002DE9F04FA3B00F46BF4C016814941597C1
:102A50000D680493BD4B2C9C039200269D42824638
:102A600080F8086940F0588338460EF029FA33465A
:102A700005460AF2224225FA03F10833202B02F818
:102A8000011FF8D139462E1D2A460AF2274009F0C7
:102A9000D1F9F1B2C6F307200A18D243FF238AF80E
:102AA0001E14FE278AF8202406218AF81F0400221B
:102AB000701C8AF81C348AF81D748AF821148AF86C
:102AC0002224C0F2278505F2264050440AF2214311
:102AD00001E013F8011F98420A44FAD1D243D2B25E
:102AE0000AEB06030836B6F5806F83F8232400F35B
:102AF000AD84002E0AF21C4716DD0B352F44944E90
:102B00000AF21B4503E00AF047FDAF420CD0DAF8A9
:102B1000042015F8011F13681B68B3420846F2D061
:102B200010469847AF42F2D1DFF838B2DFF838826A
:102B3000DBF800300A930A9BE31801939AF80839EE
:102B400000931946002B40F04D82DAF80030814A9C
:102B50005B68934240F03382DBF800300C93DDF881
:102B60003090DAF8003942F6F822C3EB09039342B9
:102B700084BF0B468AF8F838DAF8E43833B1DAF86B
:102B80000439994502D90023CAF8E438DAF8182044
:102B90003AB1DBF800301093109BC9EB03039A4263
:102BA00026D3DAF8040003685B69434540F0DE8011
:102BB0000AF008FC0028C0F2DD80DAF8F438DAF810
:102BC000E4280344072ACAF8F43800F03D81002ABB
:102BD0007ED1FF2800F0B081DBF800300F930F9B0F
:102BE00041F28831C9EB03038B42CFD98AF8F82828
:102BF000DBF800300993099B019A9A429ED2564A0B
:102C00001C92564CDAF800301E9402228DF8742083
:102C10001B684E49DDF800908B4240F0858200230E
:102C200024218AF8232404F120078AF824148AF83E
:102C300025348AF826348AF827340AF5856526462D
:102C40000FCEBE4228606960AA60EB60344605F191
:102C50001005F4D13068286000222920D623FF25F2
:102C6000FE2407218AF81E048AF820348AF81C54AE
:102C70008AF81D448AF81F248AF822248AF821142D
:102C80000AF221430AF24B4001E013F8011F984277
:102C90000A44FAD1D2432E4E8AF84C240AF21B443D
:102CA0000AF24C4503E00AF077FCAC420CD0DAF8AB
:102CB000042014F8011F13681B68B3420846F2D0C1
:102CC00010469847AC42F2D1484623B0BDE8F08F99
:102CD000012A00F0CD80022A00F03681032A00F09C
:102CE0003E81042A00F04581052A00F05181062A20
:102CF00000F05681082A7FF449AF194A1A40002390
:102D00009A42CAF8E438C0F2DD81FF2A7FF43EAF70
:102D1000DAF8EC38002B00F02B830A2B00F00C8241
:102D2000062B00F041820B2B00F0FA8103F5DE73D5
:102D30005AF8230000283FF429AF03680AF11C0168
:102D40001B68984722E700BF441301008D0700006D
:102D500081070000490E00002C13010088140100B7
:102D6000FF0000805093FF1F89070000984700284C
:102D7000BFF623AF9AF8F838002B3FF439AFDAF8F2
:102D8000FC3840F6C412C3EB090393427FF630AF20
:102D9000CF4ADAF800301C921B68CE4900228B42E1
:102DA0001D921E9240F0B381FF210820F723FE24DC
:102DB0008AF81C140A218AF81E048AF820348AF83A
:102DC00023248AF824248AF825248AF826248AF8D9
:102DD00027248AF828248AF829248AF82A248AF8B9
:102DE0001F248AF822248AF81D448AF821140AF242
:102DF00021430AF22A4001E013F8011F98420A44D5
:102E0000FAD1D243B44C8AF82B240AF21B460AF2B8
:102E10002B4503E00AF0C0FBAE420CD0DAF80420E8
:102E200016F8011F13681B68A3420846F2D010462B
:102E30009847AE42F2D1DBF800300B930B9BCAF8F7
:102E4000FC98CAF80C30D3E6DAF8F0380AEB030243
:102E50000133CAF8F0381077DAF8E838013BCAF8DD
:102E6000E838002B7FF492AE0823CAF8E4388DE6E8
:102E7000FE2800F089809AF8F8280023CAF8E43880
:102E8000002A7FF483AE9249DAF800301C911B6867
:102E900090491D928B421E9240F09980FF2108209C
:102EA000F723FE248AF81C140A218AF81E048AF8E3
:102EB00020348AF823248AF824248AF825248AF8DE
:102EC00026248AF827248AF828248AF829248AF8CC
:102ED0002A248AF81F248AF822248AF81D448AF8B2
:102EE00021140AF221430AF22A4001E013F8011FDB
:102EF00098420A44FAD1D243774D8AF82B240AF239
:102F00001B440AF22B4603E00AF046FBA6420CD013
:102F1000DAF8042014F8011F13681B68AB42084656
:102F2000F2D010469847A642F2D1DBF800300E935B
:102F30000E9BCAF80C3029E6012209F11403CAF8E5
:102F4000E428CAF8043921E600220323CAF8E80875
:102F5000CAF8F408CAF8F028CAF8E43816E6DAF82D
:102F6000E83803EB00200423CAF8E808CAF8E4387C
:102F70000CE65A4A1A40002A24DBFF2A7FF403AEEB
:102F80000523CAF8E43801E60223CAF8E438FDE56F
:102F90000623CAF8EC08CAF8F408CAF8E438F5E5DC
:102FA000DAF8EC38DAF8E82803EB00230721CAF84E
:102FB000EC38CAF8E418002A3FF456AFE6E550466C
:102FC000984715E6013A62F0FF020132D5E71CAAE4
:102FD0000A2150469847DBF800300E930E9BCAF842
:102FE0000C30D3E5DAF810390499DDF800908B4203
:102FF0007AD03B4A1C923B4CDAF800301E940222F5
:103000008DF874201B6833498B4240F0AC8100235B
:1030100024218AF8232404F120078AF824148AF84A
:1030200025348AF826348AF827340AF58565264639
:103030000FCEBE4228606960AA60EB60344605F19D
:103040001005F4D13068286000222920D623FF25FE
:10305000FE2407218AF81E048AF820348AF81C54BA
:103060008AF81D448AF81F248AF822248AF8211439
:103070000AF221430AF24B4001E013F8011F984283
:103080000A44FAD1D243144E8AF84C240AF21B4463
:103090000AF24C4503E00AF07FFAAC420CD0DAF8B1
:1030A000042014F8011F13681B68B3420846F2D0CD
:1030B00010469847AC42F2D14FF00009484623B081
:1030C000BDE8F08F013A62F0FF0201321DE600BF59
:1030D000FC1201008D07000081070000FF00008046
:1030E0002C130100B014010000297FF7EDADDAF8D0
:1030F0001839039A03EB8100043A53F8041B42F891
:10310000041F9842F9D1484623B0BDE8F08F1CAAAD
:103110000A21504698478EE614AA0621A84703E5DF
:1031200000238AF8F83831E550461CAA0721984751
:10313000484623B0BDE8F08FDBF800301193119BB7
:10314000DAF80C20DAF82060BA4CDBF800101391A2
:103150009B1AB94A139DDAF81C10A2FB03023444EF
:1031600092094FF47A70B54E00FB123306FB03430D
:10317000B14CA4FB0564A40900FB14500139AF4D08
:103180000A44514605FB1033121BCAF810200AF1FD
:10319000100041F8143F01F0F5FFDBF80030129306
:1031A000129BCAF80039F1E4DAF81C50DAF8103949
:1031B0009D420AF11C0406D9A900DAF818090DF09D
:1031C00009FCCAF81809CAF81059002D00F021812D
:1031D0000AF61416204604230025827947790179DE
:1031E000120442EA0722C7790A4342EA0762CAF890
:1031F0001429DAF81829316842F82510DAF810296C
:103200000135AA42194600F1040003F10403E4D891
:10321000059301F10B0301F10806029301F10C0380
:10322000354601F1050E01F1060CC81D01F1090733
:1032300001F10A02069314F80C10059B14F80EE035
:1032400014F803C0235CDAF81C09090441EA0E21D2
:1032500041EA0C0C4CEA036383420AD99900DAF87C
:103260002409079205930DF0B5FB079A059BCAF850
:103270002409CAF81C39002B00F01B840AF51266D9
:10328000611900208B784F780A781B0443EA0723E2
:10329000CF78134343EA0763CAF82039DAF82439B0
:1032A000326843F82020DAF81C29013082422B468C
:1032B00001F1040105F10405E4D8D91D2E465F1D76
:1032C0009A1D029103F10805A15CE05D029AA35DDD
:1032D000A65CDAF82829090441EA00210B4343EAF5
:1032E0000666964206D9B100DAF830090DF072FB95
:1032F000CAF83009CAF828698EB3002007460AF6D2
:103300002C160023194604EB050E1EF8012B9A40DB
:103310000833202B41EA0201F7D105F1040E714474
:103320008E4509D2EB1C23447246013213F8015F2B
:1033300003F8015C8A42F8D363180EF1FF3203F8F8
:10334000017C2244DAF83039CAF82C29326843F873
:103350002020DAF82839013083420D46D1D80123E4
:103360008AF8083912E450461CAA07219847A3E6B8
:10337000DAF8001032481C900C6832491D938C42D8
:103380001E9340F0CA800820F721FE248AF81C24EE
:103390000A228AF81E048AF820148AF823348AF84C
:1033A00024348AF825348AF826348AF827348AF8AF
:1033B00028348AF829348AF82A348AF81F348AF89B
:1033C00022348AF81D448AF821240AF221410AF2A3
:1033D0002A4001E011F8012F88421344FAD1DB435F
:1033E000194C8AF82B340AF21B460AF22B4504E0EA
:1033F0000AF0D2F8B54200F09480DAF8042016F80A
:10340000011F13681B68A3420846F1D01046984775
:10341000F0E70C2306930B2308260293042335467A
:103420000A22092707204FF0060C4FF0050E0593DE
:1034300001E700BF00CA9A3BD34D621040420F0023
:10344000FC1201008D07000081070000A04A1C92B9
:10345000A04DDAF800301E9503228DF874201B6809
:103460009D498B4240F02783002338218AF823248A
:1034700005F1300E8AF824148AF825348AF82634A7
:103480008AF827340AF585672E460FCE76453860D0
:103490007960BA60FB60354607F11007F4D103CDBF
:1034A000FF22386079603D200023C221FE258AF882
:1034B0001C2407228AF81E048AF820148AF81D5456
:1034C0008AF81F348AF822348AF821240AF221412A
:1034D0000AF25F4001E011F8012F88421344FAD14B
:1034E000DB437E4E8AF860340AF21B450AF58C678E
:1034F00004E00AF051F8BD423FF416ABDAF80420BC
:1035000015F8011F13681B68B3420846F1D0104636
:103510009847F0E71A46FFF7E3BA1CAA0A2150467B
:10352000A047DBF800300D930D9A6D4BCAF80C20C4
:1035300000226C49ADF8742021921E931F932093B2
:103540000AF67C020AF61803CDF814901C91029238
:10355000994659F8043F002B00F0D88058681C6841
:1035600001689A681E948B68ADF874209847D9F862
:1035700000301F9058680368DB689847DAF800301D
:10358000D9F8001020904FF480621B680C692192DA
:10359000514A9342074640F0AC81632C04DD9AF80F
:1035A000F838002B00F0B280BDF874301E9D8AF808
:1035B00023341B0A8AF8243428460DF081FC064681
:1035C000330E320C000A29468AF828348AF825641A
:1035D0008AF826048AF827240AF22940324608F09D
:1035E00029FC1F99069108460DF06AFC0AF2234552
:1035F00002460699701D28440636002322FA03FE6F
:103600000833202B00F801EFF8D10436A81916442E
:1036100008F010FC38460DF053FCA91903460022AF
:1036200023FA02F00832202A01F8010BF8D10436FF
:1036300039461A46A819069308F0FCFB069B99190F
:10364000081DC0F307275FFA80FE6A180EEB070318
:103650000026DB434FF0040C6E5482F801C09670D4
:10366000D6704FF0FE0CE2B28AF8203444F30724FF
:103670008AF81F744FF0FF33471C8AF81EE48AF85B
:103680001C348AF81DC48AF821248AF82244C0F226
:10369000F78101F2264454440AF2214301E013F871
:1036A000012F9C421644FAD1F343DBB20AEB00022D
:1036B0000830B0F5806F82F8233400F37F81002852
:1036C0000AF21C4422DD0B310C440AF21B450FE0C8
:1036D0002C130100301401008D0700008107000049
:1036E000201701001413010009F056FFAC420DD061
:1036F000DAF80420CA48136815F8011F1B688342D2
:103700000846F1D010469847AC42F1D1029B99454A
:103710007FF41FAFDDF81490CDF818900AF50E6312
:10372000DDF80890059359F8040F002800F0D280C6
:103730008168036842681E91ADF874209B689847C1
:10374000D9F800301F901A681846D3689847D9F8FE
:103750000030DAF8001020901A680D6852684FF4B3
:103760008061184621919047AE4B9D42044640F03F
:10377000C580632804DD9AF8F838002B00F0AA8091
:10378000BDF874301E9D8AF823341B0A8AF824344D
:1037900028460DF095FB0646330E320C000A2946EA
:1037A0008AF828348AF825648AF826048AF82724B7
:1037B0000AF22940324608F03DFB1F990291084663
:1037C0000DF07EFB0AF22345721D0299074606366C
:1037D0002A44002327FA03F00833202B02F8010FB4
:1037E000F8D104363A46A81908F024FB2099029132
:1037F00008460DF065FB3E4402990746AA190023CE
:1038000027FA03F00833202B02F8010BF8D1043615
:103810003A46A81908F00EFBBA19111D5FFA81FE8D
:10382000C1F307272198A8540EEB0703AE18DB431A
:103830004FEA104C0293030A000EF070E0B244F31A
:103840000724737086F802C0FF234FF0FE0C9DF82A
:1038500008608AF822444C1C8AF820648AF81EE426
:103860008AF81F748AF81C348AF81DC48AF8210467
:103870000DDB02F2264656440AF22143002401E001
:1038800013F8010F9E420444FAD1E343DBB20AEB82
:1038900001000831B1F5806F80F8233433DC002952
:1038A0000AF21C4516DD0B3215440AF21B4603E0F2
:1038B00009F072FEAE420DD0DAF8042058481368C1
:1038C00016F8011F1B6883420846F1D0104698473E
:1038D000AE42F1D1059B99457FF425AFDDF81890F4
:1038E000CAF8FC980123CAF800998AF8F838FFF75B
:1038F0007FB921461CAA5046984707E701461CAAF3
:103900005046A847E6E7484916910322DAF8003006
:1039100046498DF85C2018911B68424A934240F05A
:10392000B180294616A8FCF7C5FEC1B2C0F3072432
:103930000A19D243FF238AF81E14FE258AF8202490
:1039400007218AF81F44421C4FF000048AF81C34F7
:103950008AF81D548AF821148AF822440DDB00F2FB
:103960002242234652440AF2214401E014F8011F86
:10397000A2420B44FAD1DB43DBB20AEB000200F1B6
:103980000801B1F5806F82F8233400F383800029A9
:103990000AF21C449EDDC31D1C440AF21B45DAF8E2
:1039A00004201F48136815F8011F1B68834208464E
:1039B0006DD109F0F1FDA542F1D18BE71A491691BD
:1039C0000322DAF8003019498DF85C2018911B6841
:1039D000144A934275D1294616A8FCF76BFEC1B272
:1039E000C0F307240A19FE25D243FF238AF81E14C8
:1039F0008AF81F44072100248AF81D54451C8AF8C0
:103A000020248AF81C348AF821148AF8224416DB10
:103A100000F22242234652440AF221440AE000BF47
:103A2000810700008D0700002C13010030140100F5
:103A300014F8011FA2420B44FAD1DB43DBB20AEBBC
:103A4000000200F10801B1F5806F82F8233440DCF8
:103A500000290AF21C447FF759AE073004440AF2E9
:103A60001B45DAF804202248136815F8011F1B686B
:103A7000834208462AD109F08FFDA542F1D145E6DF
:103A8000FF2313E616AA07215046984722E710465F
:103A9000984790E7174919910322DAF80030164940
:103AA0001B918DF868201B6819AA0721504698477A
:103AB00010E7069D08E41CAA072150469847FFF727
:103AC00033B816AA0721504698471FE61046984774
:103AD000D3E7084919910322DAF8003006491B910F
:103AE0008DF868201B6819AA0721504698470DE6F3
:103AF000810700002C130100301401002DE9F04F64
:103B000003469FB028331D460C460390B9490493E1
:103B10001AA808F015F929461AA808F06DF9B6494F
:103B200008F072F9B54A07682368159216971B6862
:103B3000B34A0026934284F8086940F0DF83384690
:103B40000DF0BEF93346054604F2224225FA03F190
:103B50000833202B02F8011FF8D139462E1D2A46C2
:103B600004F2274008F066F9F1B2C6F307200A18FC
:103B7000D243FF2384F81E14FE2784F82024062154
:103B800084F81F040022701C84F81C3484F81D740F
:103B900084F8211484F82224C0F2A78505F2264077
:103BA000204404F2214301E013F8011F83420A4438
:103BB000FAD1D243D2B2A3190836B6F5806F83F892
:103BC000232400F32B85002E04F21C4711DD0B3556
:103BD0008C4E2F4404F21B45626815F8011F1368D0
:103BE0001B68B342084640F0158509F0D5FCAF428A
:103BF000F2D1DFF824A2DFF824B2DAF800300B9318
:103C00000B9B03F57A7994F80829002A40F03C824E
:103C100023687D495B688B4240F02482DAF80030EB
:103C20000D93DDF83480D4F8003942F6F821C3EB67
:103C300008038B42D4F8E43888BF84F8F82833B1FD
:103C4000D4F80439984502D90023C4F8E438A269AD
:103C50003AB1DAF800301193119BC8EB03039A4292
:103C600025D3606803685B695B4540F0D98009F043
:103C7000A9FB0028C0F2D880D4F8F438D4F8E4289E
:103C80000344072AC4F8F43800F03581002A75D1BE
:103C9000FF2800F0A481DAF800301093109B41F265
:103CA0008831C8EB03038B42D1D984F8F828DAF8BD
:103CB00000300A930A9B9945A5D2544A1792544D55
:103CC0002368199502228DF860201B684C498B42AD
:103CD00040F00F830023242184F8232405F1200ED3
:103CE00084F8241484F8253484F8263484F827349E
:103CF00004F585662F460FCF774530607160B2605E
:103D0000F3603D4606F11006F4D138683060FF21BB
:103D100029200022D623FE2584F81C14072184F8CC
:103D20001E0484F8203484F81D5484F81F2484F879
:103D3000222484F8211404F2214304F24B4001E0D0
:103D400013F8011F98420A44FAD1D2432D4E84F849
:103D50004C2404F21B4504F24C4704E009F01CFC1F
:103D6000BD4200F00C82626815F8011F13681B68E1
:103D7000B3420846F2D010469847F1E7012A00F016
:103D8000CD80022A00F03381032A00F03B81042A0F
:103D900000F04281052A00F04E81062A00F053818E
:103DA000082A7FF454AF1B4A1A4000239A42C4F8F1
:103DB000E438C0F2CD81FF2A7FF449AFD4F8EC3863
:103DC000002B00F0D8830A2B00F0A182062B00F014
:103DD000EB820B2B00F0978203F5DE7354F823007F
:103DE00000283FF434AF036804F11C011B689847B6
:103DF0002DE700BF6C1401000C15010044130100F5
:103E00008D07000081070000490E00002C130100FF
:103E100088140100FF0000805093FF1F89070000F5
:103E200098470028BFF628AF94F8F838002B3FF4E5
:103E30003EAFD4F8FC3840F6C412C3EB08039342FB
:103E40007FF635AFC54A236817921B68C449002224
:103E50008B421892199240F04284FF210820F723E8
:103E6000FE2584F81C140A2184F81E0484F82034EA
:103E700084F8232484F8242484F8252484F8262430
:103E800084F8272484F8282484F8292484F82A2410
:103E900084F81F2484F8222484F81D5484F8211403
:103EA00004F2214304F22A4001E013F8011F984272
:103EB0000A44FAD1D243AB4E84F82B2404F21B45BA
:103EC00004F22B4703E009F067FBBD420BD06268A8
:103ED00015F8011F13681B68B3420846F3D010465B
:103EE0009847BD42F3D1DAF800300C930C9BC4F82C
:103EF000FC88E360DBE6D4F8F038E2180133C4F85C
:103F0000F0381077D4F8E838013BC4F8E838002BD3
:103F10007FF49DAE0823C4F8E43898E6FE2800F04C
:103F2000868094F8F8280023C4F8E438002A7FF447
:103F30008EAE8A49236817911B68894918928B4273
:103F4000199240F09780FF210820F723FE2584F87E
:103F50001C140A2184F81E0484F8203484F82324D5
:103F600084F8242484F8252484F8262484F827243B
:103F700084F8282484F8292484F82A2484F81F2427
:103F800084F8222484F81D5484F8211404F2214377
:103F900004F22A4001E013F8011F98420A44FAD1C2
:103FA000D243704E84F82B2404F21B4504F22B47B5
:103FB00003E009F0F1FAAF420BD0626815F8011F77
:103FC00013681B68B3420846F3D010469847AF42C7
:103FD000F3D1DAF800300F930F9BE36037E601224C
:103FE00008F11403C4F8E428C4F804392FE60022C9
:103FF0000323C4F8E808C4F8F408C4F8F028C4F8A7
:10400000E43824E6D4F8E83803EB00200423C4F8AD
:10401000E808C4F8E4381AE6534A1A40002A24DBB8
:10402000FF2A7FF411AE0523C4F8E4380FE602231B
:10403000C4F8E4380BE60623C4F8EC08C4F8F40826
:10404000C4F8E43803E6D4F8EC38D4F8E82803EBF5
:1040500000230721C4F8EC38C4F8E418002A3FF420
:1040600059AFF4E52046984721E6013A62F0FF0295
:104070000132D5E717AA0A2120469847DAF800301E
:104080000F930F9BE360E2E5D4F81C39012B71D04C
:10409000364A1792364D2368199502228DF8602012
:1040A0001B682F498B4240F024810023242184F88F
:1040B000232405F1200E84F8241484F8253484F890
:1040C000263484F8273404F585662F460FCF7745CC
:1040D00030607160B260F3603D4606F11006F4D1C5
:1040E00038683060FF2129200022D623FE2584F87D
:1040F0001C14072184F81E0484F8203484F81D540D
:1041000084F81F2484F8222484F8211404F2214323
:1041100004F24B4001E013F8011F98420A44FAD11F
:10412000D243104E84F84C2404F21B4504F24C4751
:1041300003E009F031FAAF4221D0626815F8011F9F
:1041400013681B68B3420846F3D010469847F2E75D
:10415000013A62F0FF0201322DE600BFFC120100BD
:104160008D07000081070000FF0000802C13010074
:10417000B0140100D4F82439039A1B6853601AA8BC
:1041800007F09EFD7C491AA807F0DAFD049F1AA8E3
:10419000394607F031FE794907F036FE039E016883
:1041A0004FF47A7532460123083200952046FEF717
:1041B00047FC1AA807F084FD6F491AA807F0C0FD54
:1041C00039461AA807F018FE6D4907F01DFE324661
:1041D00001230C32016800952046FEF731FC1AA835
:1041E00007F06EFD64491AA807F0AAFD39461AA81F
:1041F00007F002FE634907F007FE32460123103242
:10420000016800952046FEF71BFC1AA807F058FD30
:1042100059491AA807F094FD39461AA807F0ECFD91
:10422000594907F0F1FD3246012314320168009527
:104230002046FEF705FC1AA807F042FD4E491AA8D1
:1042400007F07EFD39461AA807F0D6FD4F4907F062
:10425000DBFD324601231832016800952046FEF747
:10426000EFFB1AA807F02CFD43491AA807F068FDD8
:1042700039461AA807F0C0FD454907F0C5FD32468A
:1042800001231C32016800952046FEF7D9FB1AA8CD
:1042900007F016FD38491AA807F052FD39461AA84A
:1042A00007F0AAFD3B4907F0AFFD06F1200201230C
:1042B000016800952046FEF7C3FB1AA807F000FD31
:1042C0002D491AA807F03CFD39461AA807F094FDBD
:1042D000314907F099FD32460168009524320123E7
:1042E0002046FEF7ADFB1AA807F0EAFC1FB0BDE8B8
:1042F000F08F17AA07212046984740E715AA062104
:104300002046984775E4002384F8F8389FE4DAF8EB
:1043100000301293129BE2682048276A204EDAF898
:10432000001014919A1AA0FB02503E444FF47A7583
:1043300080091C4F149BE16905FB102207FB0262F8
:10434000164EA6FB0376B609013905FB1633154D4B
:104350000844214605FB1323821B226104F110004F
:1043600041F8143F00F00EFFDAF800301393139B6E
:10437000C4F800396BE400BF6C140100141501008F
:10438000201501002C1501003C15010054150100F9
:104390006C1501008015010098150100D34D6210C5
:1043A00000CA9A3B40420F00E669D4F810399E4299
:1043B00004F11C0506D9B100D4F818090CF00AFB69
:1043C000C4F81809C4F81069002E00F0AB8104F697
:1043D0001417284604230026827990F805E0017915
:1043E000120442EA0E2290F807E00A4342EA0E6203
:1043F000C4F81429D4F81829396842F82610D4F8DA
:1044000010290136B242194600F1040003F10403F9
:10441000E2D8079301F10B0301F1090201F108074A
:10442000069301F10C0305923E4601F1050E01F1E0
:10443000060CC81D01F10A02089315F80C10079B21
:1044400015F80EE015F803C02B5CD4F81C0909041C
:1044500041EA0E2141EA0C0C4CEA036383420AD97B
:104460009900D4F82409099207930CF0B3FA099A39
:10447000079BC4F82409C4F81C39002B00F05081B4
:1044800004F51267AA190021937892F801E01078D8
:104490001B0443EA0E2392F803E0034343EA0E634E
:1044A000C4F82039D4F82439386843F82100D4F806
:1044B0001C3901318B42304602F1040206F1040638
:1044C000E2D8431D0593C31D3746821D069300F1B4
:1044D0000806059BA85CE95C069AEB5DAF5CD4F826
:1044E0002829000440EA01210B4343EA0767974269
:1044F00006D9B900D4F830090CF06CFAC4F83009C8
:10450000C4F8287997B300210F4604F62C10002335
:104510001A4605EB060C1CF801EB0EFA03FE0833F5
:10452000202B42EA0E02F6D106F1040E72449645A3
:1045300009D2F31C2B447646013613F801CF03F859
:1045400001CC9642F8D3AB180EF1FF3603F8017C8C
:104550002E44D4F83039C4F82C69066843F8216039
:10456000D4F8283901318B421646D0D8012384F87B
:104570000839FFF76CBB2168734817900D687349C1
:1045800018938D42199340F0B9800820F721FE2539
:1045900084F81C240A2284F81E0484F8201484F869
:1045A000233484F8243484F8253484F8263484F8B9
:1045B000273484F8283484F8293484F82A3484F899
:1045C0001F3484F8223484F81D5484F8212404F222
:1045D000214104F22A4001E011F8012F88421344DE
:1045E000FAD1DB435A4E84F82B3404F21B4504F213
:1045F0002B4704E008F0D0FFBD4200F083806268E2
:1046000015F8011F13681B68B3420846F2D0104624
:104610009847F1E710469847FFF7E9BA4D4A1792D5
:104620004D4D2368199503228DF860201B6847497A
:104630008B425DD10023382184F8232405F1300E0C
:1046400084F8241484F8253484F8263484F8273434
:1046500004F585672E460FCE764538607960BA60DE
:10466000FB60354607F11007F4D103CDFF22386017
:1046700079603D200023C221FE2584F81C240722F6
:1046800084F81E0484F8201484F81D5484F81F3420
:1046900084F8223484F8212404F2214104F25F409A
:1046A00001E011F8012F88421344FAD1DB43284E70
:1046B00084F8603404F21B4504F58C6704E008F0CC
:1046C0006BFFBD423FF495AA626815F8011F13689D
:1046D0001B68B3420846F2D010469847F1E717AA84
:1046E0000A2120469847FFF7FEBB1A46FFF763BA38
:1046F00017AA072120469847FFF77BBA17AA0A2175
:104700002046A847DAF800300E930E9BE36020465F
:10471000FCF7C4F8C4F8FC88C4F80089FFF7C7BAEE
:10472000089ED6E60C2308930B230693092308273B
:10473000059304233E460A2207204FF0060C4FF053
:10474000050E079379E600BFFC1201008D070000FB
:10475000810700002C13010030140100FFFFFFFF50
:10476000114B186810B528B1036899680CA3D3E9F8
:10477000002388470D4B186828B10368996808A37F
:10478000D3E9002388470A4B186838B10368BDE8AD
:104790001040996802A3D3E90023084710BD00BF69
:1047A000000000A09999B93F4C92FF1F5092FF1F43
:1047B0004892FF1FFFFFFFFF0D4B186810B528B18F
:1047C0000368996808A3D3E900238847094B186850
:1047D00038B10368BDE81040996803A3D3E900230A
:1047E000084710BDAFF3008000000040E17A943F1D
:1047F0000092FF1F0492FF1F024B186808B105F0DA
:1048000063BE70475492FF1F38B5436A33B1026BE1
:104810000446956890609847236B9D6038BD00BF43
:104820001F4B10B49A681368506819780478507A4E
:10483000137A044201EA03011AD0937A03F00303C6
:1048400009B143F0040343F008039910013B91724E
:104850000D2B0BD8DFE803F01E0719070A141E1EE4
:10486000140A0719071ED368013BD36010BC7047B8
:10487000937A03F003030029E7D043F00403E4E74D
:10488000D36810BC023BD3607047D36810BC0233BE
:10489000D3607047D36810BC0133D360704700BF4A
:1048A000C892FF1F1F4B10B4DA681368506819785C
:1048B0000478507A137A044201EA03011AD0937AF9
:1048C00003F0030309B143F0040343F00803991014
:1048D000013B91720D2B0BD8DFE803F01E0719077F
:1048E0000A141E1E140A0719071ED368013BD36061
:1048F00010BC7047937A03F003030029E7D043F01C
:104900000403E4E7D36810BC023BD3607047D3686C
:1049100010BC0233D3607047D36810BC0133D3603E
:10492000704700BFC892FF1F1F4B10B49A6D1368E9
:10493000506819780478507A137A044201EA030126
:104940001AD0937A03F0030309B143F0040343F050
:1049500008039910013B91720D2B0BD8DFE803F08F
:104960001E0719070A141E1E140A0719071ED3680A
:10497000013BD36010BC7047937A03F00303002916
:10498000E7D043F00403E4E7D36810BC023BD360F4
:104990007047D36810BC0233D3607047D36810BC33
:1049A0000133D360704700BFC892FF1F1F4B10B484
:1049B000DA6D1368506819780478507A137A0442D3
:1049C00001EA03011AD0937A03F0030309B143F01B
:1049D000040343F008039910013B91720D2B0BD88F
:1049E000DFE803F01E0719070A141E1E140A071930
:1049F000071ED368013BD36010BC7047937A03F065
:104A000003030029E7D043F00403E4E7D36810BCB4
:104A1000023BD3607047D36810BC0233D360704749
:104A2000D36810BC0133D360704700BFC892FF1F2A
:104A3000036B002B2AD070B5026A002182B00446B5
:104A400081611AB10578C5F340056DB1237843F053
:104A5000010323700E4B1B680193019B6268A260E7
:104A60009B1AE36002B070BD01789E68986041F0C7
:104A70000203037090472378226B60F300032370D6
:104A8000237865F3410323709660E3E7704700BF26
:104A90005093FF1F8B6A00220A634BB110B4CC6A9B
:104AA000DC625CB1C86A83628A62CA6210BC704709
:104AB000CA6A32B193620260CB62704743608C6213
:104AC000F4E7026042607047027803786FF30003F6
:104AD00010B5037003786FF341030370D3070446E6
:104AE00006D4206B10B12146FFF7D4FF204610BD3D
:104AF000FFF78AFEF5E700BFF0B50368836083B077
:104B0000002B42D00546224E01270EE01878197876
:104B100062F300011970197862F34101C20719703C
:104B20002FD4AC602346002C28D01A78DC6AD10739
:104B3000F7D51A69002AE9D032680192019AD3F8B0
:104B400004E0D8689968121A8A42EAD31A69002ADE
:104B500002DD1A69013A1A619A68D968D869114464
:104B60009A69D96001329A61C3F808E00028D8D068
:104B700080470027AC602346002CD6D1384603B0CE
:104B8000F0BD1846FFF740FECBE70127F6E700BF70
:104B90005093FF1F264B10B51A6B264CA24209D02A
:104BA00022681C63002A3CD062689A62D3620022A9
:104BB0006360DA622321204808F06AFC1F4806F08F
:104BC0004FFF1F4B1B4A196BA14209D011681A6392
:104BD000002929D052689A62D36200226360DA62A7
:104BE0002221184808F054FC144806F039FF164BEF
:104BF000104A196BA14208D011681A6371B152684A
:104C00009A62D36200226360DA6221210F4808F0C1
:104C10003FFC0A48BDE8104006F022BF13609962CD
:104C2000F0E723609A62C2E713609962D5E700BF9C
:104C30000892FF1F3C92FF1FBC150100E888FF1F70
:104C40009092FF1FE01501005C92FF1F0416010007
:104C500010B5104C1048222108F01AFC204606F02E
:104C6000FFFE0E48FFF7E4FE22210D4808F010FC7D
:104C7000204606F0F5FE0B48FFF7DAFE21210A4830
:104C800008F006FC204606F0EBFE0848BDE81040A0
:104C9000FFF7CEBEE888FF1F281601000892FF1F0D
:104CA0004C1601009092FF1F701601005C92FF1FCE
:104CB0000148FFF721BF00BF3C92FF1F2DE9F843D9
:104CC0004468D0F80080C8EB0405AD10064689465C
:104CD00005D06B009D4229D96FF0030500E0042543
:104CE000284607F089F97468D6F800800746C8EBB3
:104CF0000404D9F80030E74218BF3B51A3080DD196
:104D000004343C44B8F1000F02D0404607F076F975
:104D10003D44B56037607460BDE8F8832246414683
:104D2000384604340BF0EEFD3C44EEE7B3F1804F1F
:104D3000D2D213B91D461F46D9E7ED00D0E700BF18
:104D40002DE9F04F4FF40C708BB007F055F9834606
:104D500003F00CFF40F6B41007F04EF9044604F0DF
:104D600035FDD4F8AC39D4F8B029DFF8E082CDF8BD
:104D700014B09342C8F8004000F04981002B00F0C5
:104D80004481C3F800B0D4F8AC39D8F8000004333B
:104D9000C4F8AC3904F0BAFDA149A24DA24F06A84F
:104DA00006F0CEFF1C2007F027F906A90446FBF702
:104DB00065FD06A806F084FF2146D8F8000004F03F
:104DC000BFFD682007F018F9064660680AF02EFC5F
:104DD0008146A0688A460AF029FC4A465346CDE936
:104DE0000001304600F070FB14202E6007F004F93B
:104DF00002210446162007F01BFB0221172007F0B2
:104E000017FBD7F8B010D7F8B82001F5007302F5FA
:104E100000702360606000230120E36020724BF685
:104E200080336072013BFDD191F8003292F800228C
:104E30007E4ED10703EA000344BF43F00203DBB216
:104E40004FF00109A3727A49B4650422162007F0D5
:104E50005DF984F8109004227649F465172007F074
:104E600055F9237C744A6E4914604B44237406A898
:104E700006F066FF382007F0BFF806A90446FDF7E4
:104E8000CFFD06A806F01CFF2146D8F80000DFF889
:104E9000C08104F055FD402007F0AEF882466068FE
:104EA0000AF0C4FBE3680193A368009302460B4633
:104EB000504606F09DFD2169C8F800A0504606F056
:104EC000AFFDA2696169D8F80000DFF888A106F09B
:104ED000B5FD594BD8F80000196806F0BFFD282031
:104EE00007F08AF8039006F019FC039BD8F800102D
:104EF000CAF80030184606F0D9FBDAF80010286826
:104F000000F056FB142007F077F80221804608468F
:104F100007F08EFA0221032007F08AFA3969BA698C
:104F200088F8089001F5007E02F5007700204BF626
:104F3000803388F80990C8F800E0C8F80470C8F811
:104F40000C00013BFDD191F8003292F800223B4960
:104F5000C6F80880D20703EA090344BF43F00203FE
:104F6000DBB288F80A300422022007F0CFF80123D0
:104F70000422334988F810300320C6F80C8007F06B
:104F8000C5F898F81030DFF8D0902E4EC9F80080A0
:104F9000013388F81030402007F02EF8074660688B
:104FA0000AF044FBE3680193A368009302460B46B2
:104FB000384606F01DFD3846E169376006F030FDE1
:104FC000626A3068216A204C06F038FDD9F800107A
:104FD000306806F043FD282007F00EF8074606F07B
:104FE0009DFB31682760384606F060FB2168286821
:104FF00000F0DEFA2968584603F07CFEFFF7CAFD90
:10500000FFF726FE0BB0BDE8F08F2046BFE604F6A2
:10501000A81005A9FFF752FED8F80000BAE600BFB5
:10502000941601004892FF1F041D0100C892FF1F43
:1050300029490000AD490000C492FF1F214800002B
:10504000A54800000492FF1F5092FF1F5492FF1FBB
:105050000092FF1F4C92FF1F5892FF1F3F4B404989
:105060001A786FF300022DE9F0411A701A78D961AD
:1050700000246FF34102FA211A70DC609C605C60CE
:1050800059605A68DFF8F4809A6084B0D8F800203C
:105090000192344F344E0199D9604FF0FF353A46B2
:1050A000314618469C62DC621C639C611C625C6237
:1050B0001D615D6108F0B4FE2C4B2D491A78D96151
:1050C00064F300021A701A789C6264F3410264204F
:1050D0001A70DC609C605C6058605A689A60D8F80E
:1050E00000200292029ADA6031463A461846DC62A3
:1050F0001C639C611C625C625D611D6108F090FE36
:105100001C4BDFF87CE01A789C6264F300021A7092
:105110001A78DC6264F3410214211A70DC609C602E
:105120005C6059605A689A60D8F800200392314652
:105130003A46039EDE6018461C639C611C625C62FA
:105140005D61C3F81CE01D6108F06AFE0A4B1C603B
:105150005C609C6004B0BDE8F08100BF0892FF1F56
:10516000F9470000FC87FF1FC94A00005C92FF1F3F
:10517000614700009092FF1F3C92FF1F5093FF1F5A
:10518000B947000070B40D68064B0468064E6A0A01
:10519000A3FB0232D3091C4406FB135304600B60CB
:1051A00070BC7047834B040000CA9A3B30B4DDE901
:1051B0000245C0E91223C0E9144530BC704700BF66
:1051C000836B10B50446186803685B689847A36B47
:1051D00058680368BDE810405B6818472DE9F04F38
:1051E000AC4D89B029680691044606994068091AB1
:1051F000B1F5FA7FCDE9022300F22981D4E9122327
:10520000104619460AF0B4F8D4E9162306460F46AC
:10521000D4E914010AF05EFAD4E9182380468946DD
:10522000104619460AF0A4F8424682468B464B4681
:10523000304639460AF09CF852465B46CDE904AB4D
:105240000AF072FB42464B4682468B463046394650
:105250000AF08CF8DDE904230AF066FB06460F46E7
:10526000A26BE36B9B1A9B10022B00F000811F21A5
:10527000894808F00DF94FF002080B21874808F023
:1052800007F952465B46CDF80080854806F040FCA1
:105290000B21844808F0FCF832463B46CDF80080EC
:1052A0007F4806F035FC01217F4808F0F1F8A26B39
:1052B000E36B296807919B1A43FA08F30799616029
:1052C000434500F0C98021217848022508F0E0F824
:1052D0000B21724808F0DCF852465B460095704896
:1052E00006F016FC0B216F4808F0D2F832463B4618
:1052F00000956B4806F00CFC01216B4808F0C8F8DB
:10530000D4E9188932463B46504659460AF030F8EF
:1053100042464B460AF0DEF90022654B0AF0DAF904
:1053200032463B4600260027C4E90801C4E90A6763
:10533000504659460AF01AF842464B460AF0CAF956
:10534000D4E916230AF0F0FAC4E90C0121215748E8
:1053500008F09EF80421574808F09AF8D4E9082389
:105360004F48009506F0D4FB0821534808F090F808
:10537000D4E90C234A48009506F0CAFB01214A48AB
:1053800008F086F8DDE902ABD4E90C235046594613
:105390000AF0A0F9D4E9062309F0EAFF804689461D
:1053A000C4E9068908F044FED4E9086702460B46C2
:1053B000304639460AF08EF952465B460AF08AF9C1
:1053C00002460B46D4E9020109F0D2FFC4E902010A
:1053D0004046494608F076FE02460B4630463946BE
:1053E0000AF078F952465B460AF074F902460B4619
:1053F000D4E9040109F0BCFFC4E9040121212B48D0
:1054000008F046F803212D4808F042F8D4E90223B9
:105410002348009506F07CFB0321294808F038F862
:10542000D4E904231E48009506F072FB07212548A5
:1054300008F02EF8D4E906231948009506F068FB19
:105440000121194808F024F809B0BDE8F08F0026C2
:105450000027B246BB4603E713680BB1D3E904ABA0
:105460005368002B3FF42FAFD3E904672BE7106894
:1054700028B10368524619685B468847A26B50689A
:1054800000283FF4F4AE0368324619683B4688476B
:10549000EDE600BF5093FF1FB0160100D0160100CB
:1054A000E888FF1FDC160100E8160100EC16010079
:1054B0000000E03F10170100181701002417010039
:1054C000281701002C1701002DE9D043DDE90667FC
:1054D00004469946904600F00BF8044B2360C4E95B
:1054E0001689C4E918672046BDE8D083A4160100D8
:1054F00030B40D4A0260002400250022C0E90245B4
:10550000C0E90445C0E90645C0E90845C0E90A45C7
:10551000C0E90C45C0E91245C0E914454260826308
:10552000C263026430BC70473C1701002DE9F843A8
:105530004468D0F80080C8EB0405AD1006468946E3
:1055400005D06B009D4229D96FF0030500E00425CA
:10555000284606F051FD7468D6F800800746C8EB6F
:105560000404D9F80030E74218BF3B51A3080DD11D
:1055700004343C44B8F1000F02D0404606F03EFD32
:105580003D44B56037607460BDE8F883224641460B
:10559000384604340BF0B6F93C44EEE7B3F1804FE3
:1055A000D2D213B91D461F46D9E7ED00D0E700BFA0
:1055B00000B5C36B026C83B09342019107D00BB16D
:1055C0001960C36B0433C36303B05DF804FB383068
:1055D00001A9FFF7ABFFF7E7F0B40B7843604A7817
:1055E00043EA022343608A7843EA02434360CA786D
:1055F00043EA026343600B7983604A7943EA0223FA
:1056000083608A7943EA02438360CA7943EA02638A
:1056100083600B7AC3604A7A43EA0223C3608A7AC2
:105620000C4643EA0242C26014F80B5F002342EAD0
:105630000562C2601D4614F8012F9A400833202BE2
:1056400045EA0205F7D105F11006102E01F10F070A
:1056500009D905F10F043B460C4413F8012F03F858
:10566000012C9C42F9D129440023CB7307613046B9
:10567000F0BC704700487047781801000048704738
:105680008818010000487047AC18010000487047B6
:10569000C418010000487047E8180100004870472E
:1056A000041901000048704728190100004870479C
:1056B0004019010000487047641901000048704714
:1056C0008419010000487047A8190100004870477C
:1056D000BC19010000487047E019010000487047FC
:1056E000C418010000487047F419010000487047D1
:1056F000081A0100004870472C1A01000048704742
:10570000501A010000487047741A010000487047A1
:10571000981A010000487047BC1A01000048704701
:10572000D01A010010B401F67C02002302E001331C
:10573000192B0AD052F8044F002CF8D103F5087247
:10574000041D643341F82240836001F618020023EF
:1057500002E00133192B0CD052F8044F002CF8D181
:1057600001EB830200F144047D33C2F81C48C3649A
:10577000016510BC704700BFF0B5D0F82C5283B063
:1057800085B188680C4609F051FF0646206A2C68EE
:105790000F4609F04BFFCDE9000132463B46216838
:1057A0002846884703B0F0BDC06B7047004870477B
:1057B000A819010000487047BC190100436870B582
:1057C0000B7043681B0A4B70C3888B70C379CB7016
:1057D00083680B7183681B0A4B7143898B71C37A91
:1057E000CB71C3680B72C3681B0A4B72C3898B727F
:1057F000C37BCB72054600690C460BF061FB030EC0
:10580000010A020C06462073A2736173E3732969CF
:1058100004F11000324606F00DFB06F1100070BDD9
:105820002DE9F04FD0F82C5283B0002D00F082808B
:1058300004460E4603C904F5FA7383E803003F4BA0
:10584000C4F8FC313E4BC4F80032D5E902010AF03D
:1058500039FA8246C4F80C02D5E904010AF032FA9A
:105860004FF000088146C4F81002C4F81482D5E94C
:1058700006010022334B344F09F02CFF02460B4641
:10588000CDE9002308F01EFC0AF01CFADDE9002334
:1058900083461946104608F0CBFB0AF013FA03467C
:1058A00096E8030004F16402C4F82832C4F81C82AC
:1058B000C4F82082C4F824B282E803001F4AC4F866
:1058C0009C301F4BE2662367C4F880A0C4F8849024
:1058D000C4F88880C4F89080C4F89480C4F898B064
:1058E000C4F8A070C4F8BC70C4F82C71D5E90801E4
:1058F0000AF0E8F9C4F83C01D5E90A010AF0E2F936
:10590000C4F84001D5E90C010AF0DCF9236DE16C23
:105910001A68C4F854011568C4F85871184604F19F
:1059200058022B46C4F87471C4F8E47103B0BDE8A2
:10593000F04F184703B0BDE8F08F00BFF41A010024
:10594000FC1A01000000E03F6F12833AF8B50546EB
:105950008068C0F3C7520C460346002A00F0CF808F
:1059600002F56072110149B2C2F30716C3F3C342D4
:1059700011435F010022A171D910DB122171227045
:105980006270A270E770637100210AF097FC002832
:1059900040F0C780E671E868C0F3C7520346002AAA
:1059A00000F0BC8002F56072110149B2C2F3071623
:1059B000C3F3C34211435F010022A173D910DB126C
:1059C000217322726272A272E772637300210AF07D
:1059D00075FC002840F0BC80E6732869C0F3C7520C
:1059E0000346002A00F0978002F56072110149B267
:1059F000C2F30716C3F3C34211435F010022A1752E
:105A0000D910DB12217522746274A274E774637575
:105A100000210AF053FC002840F09680E675A86942
:105A2000C0F3C7520346002A72D002F5607211011A
:105A300049B2C2F30716C3F3C34211435F01002208
:105A4000A177D910DB12217722766276A276E776EB
:105A5000637700210AF032FC002871D1E677E8690B
:105A6000C0F3C7520346002A4FD002F560721101FD
:105A700049B2C2F30716C3F3C34211435F010022C8
:105A800084F82610D910DB1284F8241084F8202022
:105A900084F8212084F8222084F8237084F82530AB
:105AA00000210AF00BFC002845D184F82760286A01
:105AB000C0F3C75203462AB302F56072110149B21E
:105AC000C2F30715C3F3C34211435F010022DE1086
:105AD000DB1284F82E1084F8282084F8292084F81A
