:1000000000800020BD01000089D9000041D9000016
:1000100041D9000041D9000041D9000041D9000078
:1000200041D9000041D9000041D9000089D9000020
:1000300089D9000041D900009DF30000A1F400001F
:1000400089D9000089D9000089D9000089D9000028
:1000500089D9000089D9000089D9000089D9000018
:1000600089D9000089D9000089D9000089D9000008
:1000700089D9000089D9000089D9000089D90000F8
:1000800089D9000089D9000089D9000089D90000E8
:1000900089D9000089D9000089D9000089D90000D8
:1000A000C5790100D179010089D9000089D9000002
:1000B00089D9000089D9000089D9000089D90000B8
:1000C00089D9000089D9000089D9000089D90000A8
:1000D00089D9000089D9000089D9000089D9000098
:1000E00089D9000089D9000089D9000089D9000088
:1000F00089D90000F9F5000089D9000025F7000032
:1001000089D9000051F8000089D9000089D9000080
:1001100089D9000089D9000089D9000089D9000057
:1001200089D9000089D9000089D9000089D9000047
:1001300089D9000089D9000089D9000089D9000037
:1001400089D9000089D9000089D9000089D9000027
:1001500089D9000089D9000089D9000089D9000017
:1001600089D90000FDE2000089D9000089D900008A
:1001700089D9000089D9000089D9000089D90000F7
:1001800089D9000089D9000089D9000089D90000E7
:1001900089D9000089D9000089D9000089D90000D7
:1001A00089D9000089D9000089D9000089D90000C7
:1001B00089D9000089D9000089D90000564B4CF23A
:1001C000205210B51A804DF628121A8000BF00BFC9
:1001D0000DF0DEFB514B4FF010621A60504A9A60EE
:1001E000504ADA60504A136813F4807304D14F49BF
:1001F0000B604FF4A85313604D4B1A78110703D5C9
:100200001A7842F008021A704A4B4B492A221A7097
:100210004A4A4B4B8B4204D252F8040F43F8040B6A
:10022000F8E7484B484900228B4202D243F8042B9E
:10023000FAE74649464A002352F8230041F82300D2
:1002400001336F2BF8D1434B434A802103F8011B44
:100250009342FBD1414B3D4A1A60414B8A221A70AE
:10026000A3F5805324225A70A0221A709A7992071B
:10027000FCD59A79D406FCD43A4A937903F00C035E
:10028000082B384BF9D105221A7143225A719A79F9
:100290009006FCD5334A9179324B4906FBD5324A58
:1002A0004FF0817111600521516020221A709A79F6
:1002B00002F00C020C2AFAD12C4B2D4A1A602D4B5D
:1002C0002D4A1A6000225A60072243F8042C2B4A58
:1002D000C3F80C2D62B60DF0C7FE144B1B68DA078D
:1002E00005D527480DF0D2FC264B274A1A60274B2C
:1002F0001B785B0609D5234C234B22689A4204D114
:100300001F480DF0C3FC0023236019F0A3FF0DF07C
:1003100045FB0DF073FAFEE70E20054030800440E7
:10032000823F04000100002B10D0034014D0034092
:1003300002D0074000E007403894FF1FF81F02007A
:100340002087FF1F3894FF1F6899FF1F0082FF1F3F
:100350000000000000E400E05FE400E008ED00E0E1
:1003600000500640004006404480044004800440A1
:10037000C010050014E000E03F190100000020203B
:1003800052BC045E1CE00340A5C3945A00F0074031
:10039000FFFFFFFFFFFFFFFFFFFFFFFFFFFFFFFF6D
:1003A000FFFFFFFFFFFFFFFFFFFFFFFFFFFFFFFF5D
:1003B000FFFFFFFFFFFFFFFFFFFFFFFFFFFFFFFF4D
:1003C000FFFFFFFFFFFFFFFFFFFFFFFFFFFFFFFF3D
:1003D000FFFFFFFFFFFFFFFFFFFFFFFFFFFFFFFF2D
:1003E000FFFFFFFFFFFFFFFFFFFFFFFFFFFFFFFF1D
:1003F000FFFFFFFFFFFFFFFFFFFFFFFFFFFFFFFF0D
:10040000FFFFFFFFFFFFFFFFFFFFFFFFDEF9FFFF23
:1004100010B5054C237833B9044B13B10448AFF33E
:1004200000800123237010BD3894FF1F00000000DE
:100430002C1C0200084B10B51BB108490848AFF34B
:1004400000800848036803B910BD074B002BFBD0A0
:10045000BDE81040184700BF000000003C94FF1F9B
:100460002C1C02003894FF1F0000000030B4074924
:1004700082B009680191DDE90445C0E91223019BBE
:100480004360C0E9144502B030BC70479C95FF1F23
:10049000836B10B50446186803685B689847A36BC4
:1004A000586803685B689847A36B986803685B6843
:1004B0009847A36BD8680368BDE810405B6818478D
:1004C0002DE9F04F824B87B01B6805938246059853
:1004D000DAF80430C01A17F009FD7BA3D3E9002332
:1004E00017F0F6FF002800F09D80DAE91A67DAE9D4
:1004F000120132463B4617F099FE002204460D4693
:10050000744BDAE9160117F067FD00228046894630
:10051000704BDAE9180117F05FFD02460B464046C2
:10052000494617F0A7FBDAE9142317F055FD3246C8
:100530003B4617F07BFE02460B4606460F4620461A
:10054000294617F095FB32468046894620462946C3
:100550003B4617F08FFB04460D46DAF83820DAF8F0
:100560003C309B1A9B10042B61D0CDE900454646D8
:100570004F46DDE900234046494617F07BFB3246F3
:100580003B4617F077FBDAE91ABC22462B46CDE949
:1005900002BC17F06FFBDDE9022317F01DFD0022FE
:1005A0004D4B17F019FD4FF0000B4FF0000CCAE94E
:1005B0000ABCCAE9080142464B46DDE9000117F0D2
:1005C00057FB32463B4617F053FB22462B4617F0AB
:1005D00051FB0022404B17F0FFFCDDE9022317F02E
:1005E000FBFC002204460D463A4BDAE9160117F0EF
:1005F000F3FC002206460F46364BDAE9180117F0E5
:10060000EBFC02460B463046394617F033FB0246F8
:100610000B462046294617F009FECAE90C0107B02F
:10062000BDE8F08F00240025A046A94695E7106894
:1006300030B10368424619684B468847DAF83820DB
:10064000506830B10368224619682B468847DAF8AB
:100650003820906830B10368424619684B46884795
:10066000DAF83820D06830B10368224619682B4682
:100670008847DAF83820DAF83C309B1A9B10042BB4
:100680007FF473AF1368D3B1D3E9040153689BB10E
:10069000D3E90467CDE90067936853B1D3E90467F0
:1006A000D36880468946002B3FF463AFD3E9044505
:1006B0005FE746464F46F3E7CDE90045ECE74046A5
:1006C0004946E3E7AFF30080000000000070974068
:1006D0009C95FF1F0000E03F0000D03F2DE9F04D4A
:1006E000DDE90845DDE90A6780469B46924608F049
:1006F0006DFE064BC8F80030C8E916ABC8E91845CE
:10070000C8E91A674046BDE8F08D00BFE4F001007B
:1007100043680B7043681B0A4B70C3888B70C379A6
:10072000CB7083680B7183681B0A4B7143898B7193
:10073000C37ACB71082070470B7843604A7843EA4C
:10074000022343608A7843EA02434360CA7843EA5B
:10075000026343600B7983604A7943EA0223836032
:100760008A7943EA02438360CA7943EA0263836079
:1007700008207047004870475CF10100004870474E
:100780006CF10100F0B50C460A788280064614F838
:10079000010F002342EA0022B2801A4614F8010F2A
:1007A00098400833202B42EA0002F7D1971D062F0C
:1007B00058D901F1050E551D73464C1913F8010F58
:1007C00003F8010CA342F9D100234B5518460D4400
:1007D000C6F808E015F8014F84400830202843EAA5
:1007E0000403F7D1381D0344834209D909320A446E
:1007F0000446013412F8015F02F8015CA342F8D804
:100800000138CF180024084407F8014C2246F06054
:1008100017F8015B95400832202A44EA0504F7D115
:10082000181D0444A04209D203330B44024601328E
:1008300013F8015F03F8015CA242F8D30D190138E7
:100840000844002305F8013C3061A8786B780A5D04
:10085000ED78010441EA0323134343EA0563201DB5
:100860007361F0BD551D01F1050EADE700487047FD
:1008700090F1010000487047ACF101000B78F0B432
:100880000371002306460C461D4614F8012F9A40BA
:100890000833202B45EA0205F7D1681D052801F130
:1008A000040708D92C1D3B460C4413F8012F03F80C
:1008B000012C9C42F9D10D4400232B71B760F0BC90
:1008C000704700BF00487047D0F1010000487047F2
:1008D000E4F101000023F0B406464C1E1D4614F856
:1008E000012F9A400833202B45EA0205F7D1281D35
:1008F000042801F1030708D9EC1C3B460C4413F80B
:10090000012F03F8012C9C42F9D10D440023EB7018
:100910007760F0BC704700BF0048704724F30100C7
:100920000048704708F2010070B5064640680D4661
:100930001AF0A6FF6A1E0446002324FA03F10833C6
:10094000202B02F8011FF8D17168281D22460CF0F7
:100950005DFF201D70BD00BF70B503790B700646AA
:1009600080680D461AF08CFF2A460446002324FABC
:1009700003F10833202B02F8011FF8D1B168681D7C
:1009800022460CF043FF601D70BD00BFF8B58388A0
:100990000B7083881B0A4B70064680680D461AF060
:1009A0006FFF030E010A020C6B71A8702A71E970C7
:1009B00002460446B168A81D0CF028FFF0681AF042
:1009C0005FFF611D024629440634002322FA03F02A
:1009D0000833202B01F8010FF8D104342819F168ED
:1009E00014440CF013FF30691AF04AFF2A19074625
:1009F000002327FA03F10833202B02F8011BF8D15A
:100A0000043428193A4631690CF000FF381973692B
:100A10002B540544190A1A0C1B0E6970AA70EB704E
:100A20000430F8BD08460EF07DBB00BF0EF090BA52
:100A30002DE9F041632984B003DD90F8F874002FAC
:100A400053D0136805460F4610461B6805F2232154
:100A50009847C2B2C0F30721561885F81E2247F303
:100A60000722F643FF234FF0FE0EFCB285F8222248
:100A7000421C85F8206285F81F1285F81C3285F823
:100A80001DE285F821420DDB00F22221294405F206
:100A90002123002201E013F8014F99422244FAD1A8
:100AA000D343DBB22A1800F10807B7F5007F82F8BC
:100AB00023321EDC002F05F5077616DD0730DFF840
:100AC0005C80064405F21B2403E00EF02BFBB442CD
:100AD0000BD06A6814F8011F13681B684345084669
:100AE000F3D010469847B442F3D1384604B0BDE87D
:100AF000F08108490191084A2B68039203218DF87F
:100B000008101B68284601AA072198474FF0FF30BC
:100B1000ECE700BF28F101002CF20100250A0000DB
:100B200038B504460D460AF043FD2046034B40F815
:100B30001C3B29460CF004FE204638BD58F101004C
:100B40002DE9F04FA3B00F46BE4C016814941597E1
:100B50000D680493BC4B2C9C039200269D42824658
:100B600080F8086540F0568338461AF089FE33460F
:100B700005460AF2222225FA03F10833202B02F857
:100B8000011FF8D139462E1D2A460AF227200CF003
:100B90003DFEF1B2C6F307200A18D243FF238AF8BC
:100BA0001E12FE278AF8202206218AF81F02002240
:100BB000701C8AF81C328AF81D728AF821128AF891
:100BC0002222C0F2258505F2262050440AF2212374
:100BD00001E013F8011F98420A44FAD1D243D2B27D
:100BE0000AEB06030836B6F5007F83F8232200F3EC
:100BF000AB84002E0AF5077716DD0B352F44934E94
:100C00000AF21B2503E00EF08DFAAF420CD0DAF8A1
:100C1000042015F8011F13681B68B3420846F2D080
:100C200010469847AF42F2D1DFF834B2DFF8348291
:100C3000DBF800300A930A9BE31801939AF8083511
:100C400000931946002B40F04B82DAF80030804ABE
:100C50005B68934240F03182DBF800300C93DDF8A2
:100C60003090DAF8003542F6F822C3EB09039342DC
:100C700084BF0B468AF8F834DAF8E43433B1DAF892
:100C80000435994502D90023CAF8E434DAF818206B
:100C90003AB1DBF800301093109BC9EB03039A4282
:100CA00026D3DAF8040003685B69434540F0DC8032
:100CB0000EF04EF90028C0F2DB80DAF8F434DAF8EE
:100CC000E4240344072ACAF8F43400F03B81002AE4
:100CD0007ED1FF2800F0AE81DBF800300F930F9B30
:100CE00041F28831C9EB03038B42CFD98AF8F8244B
:100CF000DBF800300993099B019A9A429ED2554A2B
:100D00001C92554CDAF800301E9402228DF87420A3
:100D10001B684D49DDF800908B4240F08382002330
:100D200024218AF8232204F120078AF824128AF861
:100D300025328AF826328AF827320AF50A752646BD
:100D40000FCEBE4228606960AA60EB60344605F1B0
:100D50001005F4D13068286000222920D623FF2511
:100D6000FE2407218AF81E028AF820328AF81C52D3
:100D70008AF81D428AF81F228AF822228AF8211254
:100D80000AF221230AF24B2001E013F8011F9842D6
:100D90000A44FAD1D2432D4E8AF84C220AF21B247F
:100DA0000AF5137503E00EF0BDF9AC420CD0DAF889
:100DB000042014F8011F13681B68B3420846F2D0E0
:100DC00010469847AC42F2D1484623B0BDE8F08FB8
:100DD000012A00F0CB80022A00F03481032A00F0BF
:100DE0003C81042A00F04381052A00F04F81062A45
:100DF00000F05481082A7FF449AF184A1A400023B2
:100E00009A42CAF8E434C0F2DB81FF2A7FF43EAF95
:100E1000DAF8EC34002B00F029830A2B00F00A8268
:100E2000062B00F03F820B2B00F0F881BC335AF800
:100E3000230000283FF42AAF03680AF11C011B6855
:100E4000984723E740F10100310A0000250A00001D
:100E5000E522000028F1010068F20100FF00008097
:100E60009C95FF1F2D0A000098470028BFF625AF6C
:100E70009AF8F834002B3FF43BAFDAF8FC3440F634
:100E8000C412C3EB090393427FF632AFCF4ADAF8BC
:100E900000301C921B68CE4900228B421D921E928C
:100EA00040F0B381FF210820F723FE248AF81C12AA
:100EB0000A218AF81E028AF820328AF823228AF848
:100EC00024228AF825228AF826228AF827228AF8FC
:100ED00028228AF829228AF82A228AF81F228AF8E8
:100EE00022228AF81D428AF821120AF221230AF2EC
:100EF0002A2001E013F8011F98420A44FAD1D24394
:100F0000B44C8AF82B220AF21B260AF22B2503E0A6
:100F10000EF008F9AE420CD0DAF8042016F8011FE2
:100F200013681B68A3420846F2D010469847AE42A9
:100F3000F2D1DBF800300B930B9BCAF8FC94CAF893
:100F40000C30D5E6DAF8F0340AEB03020133CAF8C4
:100F5000F0341077DAF8E834013BCAF8E834002BB3
:100F60007FF494AE0823CAF8E4348FE6FE2800F03C
:100F700089809AF8F8240023CAF8E434002A7FF420
:100F800085AE9249DAF800301C911B6890491D9299
:100F90008B421E9240F09980FF210820F723FE2407
:100FA0008AF81C120A218AF81E028AF820328AF86E
:100FB00023228AF824228AF825228AF826228AF80F
:100FC00027228AF828228AF829228AF82A228AF8EF
:100FD0001F228AF822228AF81D428AF821120AF278
:100FE00021230AF22A2001E013F8011F98420A4443
:100FF000FAD1D243774D8AF82B220AF21B240AF247
:101000002B2603E00EF08EF8A6420CD0DAF804206E
:1010100014F8011F13681B68AB420846F2D0104653
:101020009847A642F2D1DBF800300E930E9BCAF827
:101030000C302BE6012209F11403CAF8E424CAF8A3
:10104000043523E600220323CAF8E804CAF8F404AE
:10105000CAF8F024CAF8E43418E6DAF8E83403EB06
:1010600000200423CAF8E804CAF8E4340EE65A4A19
:101070001A40002A24DBFF2A7FF405AE0523CAF8B4
:10108000E43403E60223CAF8E434FFE50623CAF891
:10109000EC04CAF8F404CAF8E434F7E5DAF8EC34FE
:1010A000DAF8E82403EB00230721CAF8EC34CAF885
:1010B000E414002A3FF456AFE8E55046984717E697
:1010C000013A62F0FF020132D5E71CAA0A2150461C
:1010D0009847DBF800300E930E9BCAF80C30D5E52C
:1010E000DAF81C350499DDF800908B427AD03B4A3F
:1010F0001C923B4CDAF800301E9402228DF87420CA
:101100001B6833498B4240F0AC81002324218AF8CC
:10111000232204F120078AF824128AF825328AF85B
:1011200026328AF827320AF50A7526460FCEBE42C5
:1011300028606960AA60EB60344605F11005F4D1BF
:101140003068286000222920D623FF25FE240721AD
:101150008AF81E028AF820328AF81C528AF81D4248
:101160008AF81F228AF822228AF821120AF2212301
:101170000AF24B2001E013F8011F98420A44FAD109
:10118000D243144E8AF84C220AF21B240AF5137536
:1011900003E00DF0C7FFAC420CD0DAF8042014F8DD
:1011A000011F13681B68B3420846F2D010469847E7
:1011B000AC42F2D14FF00009484623B0BDE8F08FB1
:1011C000013A62F0FF0201321FE600BFF8F00100B1
:1011D000310A0000250A0000FF00008028F101000C
:1011E00090F2010000297FF7EFADDAF82435039A79
:1011F00003EB8100043A53F8041B42F8041F9842A1
:10120000F9D1484623B0BDE8F08F1CAA0A21504608
:1012100098478EE614AA0621A84705E500238AF818
:10122000F83433E550461CAA07219847484623B0B6
:10123000BDE8F08FDBF800301193119BDAF80C2039
:10124000DAF82060BA4CDBF8001013919B1AB94A07
:10125000139DDAF81C10A2FB0302344492094FF4E8
:101260007A70B54E00FB123306FB0343B14CA4FB6E
:101270000564A40900FB14500139AF4D0A445146DE
:1012800005FB1033121BCAF810200AF1100041F8B8
:10129000143F08F087F8DBF800301293129BCAF86D
:1012A0000035F3E4DAF81C50DAF810359D420AF103
:1012B0001C0406D9A900DAF8180519F0A3FCCAF82D
:1012C0001805CAF81055002D00F021810AF21456B5
:1012D000204604230025827947790179120442EAE5
:1012E0000722C7790A4342EA0762CAF81425DAF8E6
:1012F0001825316842F82510DAF810250135AA4280
:10130000194600F1040003F10403E4D8059301F148
:101310000B0301F10806029301F10C03354601F1BC
:10132000050E01F1060CC81D01F1090701F10A02C1
:10133000069314F80C10059B14F80EE014F803C083
:10134000235CDAF81C05090441EA0E2141EA0C0C81
:101350004CEA036383420AD99900DAF8240507921C
:10136000059319F04FFC079A059BCAF82405CAF8A3
:101370001C35002B00F01B840AF5A46661190020BF
:101380008B784F780A781B0443EA0723CF781343FE
:1013900043EA0763CAF82035DAF82435326843F89F
:1013A0002020DAF81C25013082422B4601F104018D
:1013B00005F10405E4D8D91D2E465F1D9A1D029142
:1013C00003F10805A15CE05D029AA35DA65CDAF872
:1013D0002825090441EA00210B4343EA06669642A8
:1013E00006D9B100DAF8300519F00CFCCAF830055E
:1013F000CAF828658EB3002007460AF22C5600234F
:10140000194604EB050E1EF8012B9A400833202BD9
:1014100041EA0201F7D105F1040E71448E4509D26B
:10142000EB1C23447246013213F8015F03F8015CA0
:101430008A42F8D363180EF1FF3203F8017C22448C
:10144000DAF83035CAF82C25326843F82020DAF86B
:101450002835013083420D46D1D801238AF808355A
:1014600014E450461CAA07219847A3E6DAF80010B6
:1014700032481C900C6832491D938C421E9340F0F8
:10148000CA800820F721FE248AF81C220A228AF842
:101490001E028AF820128AF823328AF824328AF847
:1014A00025328AF826328AF827328AF828328AF8D2
:1014B00029328AF82A328AF81F328AF822328AF8C8
:1014C0001D428AF821220AF221210AF22A2001E093
:1014D00011F8012F88421344FAD1DB43194C8AF8E2
:1014E0002B320AF21B260AF22B2504E00DF01AFE1D
:1014F000B54200F09480DAF8042016F8011F136852
:101500001B68A3420846F1D010469847F0E70C2329
:1015100006930B2308260293042335460A22092743
:1015200007204FF0060C4FF0050E059301E700BFB2
:1015300000CA9A3BD34D621040420F00F8F0010000
:10154000310A0000250A0000A04A1C92A04DDAF8DA
:1015500000301E9503228DF874201B689D498B4234
:1015600040F02783002338218AF8232205F1300E2A
:101570008AF824128AF825328AF826328AF8273225
:101580000AF50A772E460FCE764538607960BA6044
:10159000FB60354607F11007F4D103CDFF22386018
:1015A00079603D200023C221FE258AF81C220722F3
:1015B0008AF81E028AF820128AF81D528AF81F3211
:1015C0008AF822328AF821220AF221210AF25F20C7
:1015D00001E011F8012F88421344FAD1DB437E4E1B
:1015E0008AF860320AF21B250AF5187704E00DF03C
:1015F00099FDBD423FF418ABDAF8042015F8011F3D
:1016000013681B68B3420846F1D010469847F0E7CC
:101610001A46FFF7E5BA1CAA0A215046A047DBF894
:1016200000300D930D9A6D4BCAF80C2000226C49C6
:10163000ADF8742021921E931F9320930AF27C42EE
:101640000AF58363CDF814901C910292994659F8DB
:10165000043F002B00F0D88058681C6801689A6825
:101660001E948B68ADF874209847D9F800301F900D
:1016700058680368DB689847DAF80030D9F800103A
:1016800020904FF400721B680C692192514A9342DA
:10169000074640F0AC81632C04DD9AF8F834002B47
:1016A00000F0B280BDF874301E9D8AF823321B0A08
:1016B0008AF8243228461AF0E3F80646330E320C34
:1016C000000A29468AF828328AF825628AF8260212
:1016D0008AF827220AF2292032460CF097F81F993F
:1016E000069108461AF0CCF80AF22325024606991C
:1016F000701D28440636002322FA03FE0833202BEF
:1017000000F801EFF8D10436A81916440CF07EF861
:1017100038461AF0B5F8A9190346002223FA02F058
:101720000832202A01F8010BF8D1043639461A464E
:10173000A81906930CF06AF8069B9919081DC0F3C6
:1017400007275FFA80FE6A180EEB07030026DB43CB
:101750004FF0020C6E5482F801C09670D6704FF0B4
:10176000FE0CE2B28AF8203244F307248AF81F7292
:101770004FF0FF33471C8AF81EE28AF81C328AF8C1
:101780001DC28AF821228AF82242C0F2F78101F2B2
:10179000262454440AF2212301E013F8012F9C422D
:1017A0001644FAD1F343DBB20AEB00020830B0F57D
:1017B000007F82F8233200F37F8100280AF5077446
:1017C00022DD0B310C440AF21B250FE028F1010049
:1017D0002CF20100310A0000250A0000840C0200EE
:1017E00010F101000DF09EFCAC420DD0DAF804209F
:1017F000CA48136815F8011F1B6883420846F1D0D8
:1018000010469847AC42F1D1029B99457FF41FAF37
:10181000DDF81490CDF818900AF59C63DDF8089077
:10182000059359F8040F002800F0D28081680368FE
:1018300042681E91ADF874209B689847D9F8003033
:101840001F901A681846D3689847D9F80030DAF81C
:10185000001020901A680D6852684FF40071184605
:1018600021919047AE4B9D42044640F0C5806328CD
:1018700004DD9AF8F834002B00F0AA80BDF874302B
:101880001E9D8AF823321B0A8AF82432284619F052
:10189000F7FF0646330E320C000A29468AF8283232
:1018A0008AF825628AF826028AF827220AF2292075
:1018B00032460BF0ABFF1F990291084619F0E0FF8A
:1018C0000AF22325721D0299074606362A44002390
:1018D00027FA03F00833202B02F8010FF8D1043661
:1018E0003A46A8190BF092FF20990291084619F088
:1018F000C7FF3E4402990746AA19002327FA03F0BE
:101900000833202B02F8010BF8D104363A46A81907
:101910000BF07CFFBA19111D5FFA81FEC1F3072796
:101920002198A8540EEB0703AE18DB434FEA104C86
:101930000293030A000EF070E0B244F307247370C0
:1019400086F802C0FF234FF0FE0C9DF808608AF86D
:1019500022424C1C8AF820628AF81EE28AF81F7222
:101960008AF81C328AF81DC28AF821020DDB02F2C5
:10197000262656440AF22123002401E013F8010F21
:101980009E420444FAD1E343DBB20AEB0100083182
:10199000B1F5007F80F8233233DC00290AF50775A2
:1019A00016DD0B3215440AF21B2603E00DF0BAFBDC
:1019B000AE420DD0DAF804205848136816F8011F1B
:1019C0001B6883420846F1D010469847AE42F1D1D9
:1019D000059B99457FF425AFDDF81890CAF8FC9473
:1019E0000123CAF800958AF8F834FFF781B9214637
:1019F0001CAA5046984707E701461CAA5046A8472C
:101A0000E6E7484916910322DAF8003046498DF896
:101A10005C2018911B68424A934240F0B1802946ED
:101A200016A8FEF799FFC1B2C0F307240A19D243E2
:101A3000FF238AF81E12FE258AF8202207218AF841
:101A40001F42421C4FF000048AF81C328AF81D52D3
:101A50008AF821128AF822420DDB00F22222234664
:101A600052440AF2212401E014F8011FA2420B445F
:101A7000FAD1DB43DBB20AEB000200F10801B1F559
:101A8000007F82F8233200F3838000290AF507746F
:101A90009EDDC31D1C440AF21B25DAF804201F48F2
:101AA000136815F8011F1B68834208466DD10DF0BD
:101AB00039FBA542F1D18BE71A4916910322DAF8D6
:101AC000003019498DF85C2018911B68144A934224
:101AD00075D1294616A8FEF73FFFC1B2C0F307240F
:101AE0000A19FE25D243FF238AF81E128AF81F42E4
:101AF000072100248AF81D52451C8AF820228AF802
:101B00001C328AF821128AF8224216DB00F22222C5
:101B1000234652440AF221240AE000BF250A0000AD
:101B2000310A000028F101002CF2010014F8011F15
:101B3000A2420B44FAD1DB43DBB20AEB000200F114
:101B40000801B1F5007F82F8233240DC00290AF554
:101B500007747FF759AE073004440AF21B25DAF800
:101B600004202248136815F8011F1B6883420846A9
:101B70002AD10DF0D7FAA542F1D145E6FF2313E6AD
:101B800016AA07215046984722E71046984790E743
:101B9000174919910322DAF8003016491B918DF884
:101BA00068201B6819AA07215046984710E7069D30
:101BB00008E41CAA072150469847FFF735B816AA33
:101BC0000721504698471FE610469847D3E7084933
:101BD00019910322DAF8003006491B918DF868202C
:101BE0001B6819AA0721504698470DE6250A0000F0
:101BF00028F101002CF201002DE9F041DFF83481D9
:101C000086B004460D4604F11C07414602A80BF0BD
:101C100083FD394602A80BF0DBFD40490BF0E0FDE7
:101C20004FF47A76221D0123016800962846FEF7BC
:101C300087FF02A80BF030FD414602A80BF06CFDB7
:101C4000394602A80BF0C4FD35490BF0C9FD04F17B
:101C500008020123016800962846FEF771FF02A8DA
:101C60000BF01AFD414602A80BF056FD394602A8BA
:101C70000BF0AEFD2B490BF0B3FD04F10C02012378
:101C8000016800962846FEF75BFF02A80BF004FDF2
:101C9000414602A80BF040FD394602A80BF098FD22
:101CA00021490BF09DFD04F110020123016800960B
:101CB0002846FEF745FF02A80BF0EEFC414602A8BD
:101CC0000BF02AFD394602A80BF082FD17490BF0F4
:101CD00087FD04F118020123016800962846FEF7EB
:101CE0002FFF02A80BF0D8FC414602A80BF014FD10
:101CF000394602A80BF06CFD0D490BF071FD04F1A3
:101D000014020168009601232846FEF719FF02A875
:101D10000BF0C2FC06B0BDE8F08100BFBCF20100D0
:101D2000D8F20100F4F201000CF3010014F30100F9
:101D30001CF30100B8F201002DE9F04F8DB0D04A3C
:101D4000D04B06920022044600F5836600F27C45E3
:101D5000ADF81C200B92089309930A9356F8043FA0
:101D6000002B00F0D28058681F6801689A680897B5
:101D70008B68ADF81C209847336809905868036851
:101D8000DB689847236831680A904FF400721B683B
:101D9000D1F810800B92BC4A9342824640F0B58144
:101DA000B8F1630F04DD94F8F834002B00F0AD8037
:101DB000BDF81C30DDF8209084F823321B0A84F82B
:101DC0002432484619F05CFD07463B0E3A0C000AE7
:101DD000494684F8283284F8257284F8260284F86B
:101DE000272204F229203A460BF010FDDDF824B03A
:101DF000584619F045FD04F22329791D024606379D
:101E00004944002322FA03F00833202B01F8010F84
:101E1000F8D10437594609EB070017440BF0F6FCDC
:101E2000504619F02DFD09EB0702834600232BFADB
:101E300003F10833202B02F8011BF8D10437514677
:101E400009EB07005A460BF0E1FC0BEB070E0EF115
:101E500004075FFA87FAC7F3072C09EB0E010AEBB8
:101E60000C000022C0434FF0020B09F80E20FF23A4
:101E70008A70CA7081F801B04FF0FE095FFA88F1EC
:101E800084F8200248F30728781C84F81EA284F8FE
:101E90001FC284F81C3284F81D9284F8211284F841
:101EA0002282C0F20A820EF22620204404F221236C
:101EB00001E013F8011F98420A44FAD1D243D2B28A
:101EC000E11907F10803B3F5007F81F8232200F33D
:101ED0002481002B04F5077717DD0EF10B0EDFF8D8
:101EE000AC91774404F21B2803E00DF01BF9474541
:101EF0000BD0626818F8011F13681B684B45084631
:101F0000F3D0104698474745F3D1B5427FF426AF4A
:101F1000DFF8749104F59C6855F8040F002800F070
:101F2000E3808168036842680891ADF81C209B68D3
:101F300098472B6809901A681846D36898472B6809
:101F400021680A901A680E6852684FF400711846AA
:101F50000B9190474E45074640F0CF80632804DD43
:101F600094F8F834002B00F0BF80BDF81C30089EB8
:101F700084F823321B0A84F82432304619F080FC9E
:101F800082464FEA1A634FEA1A42000A314684F841
:101F9000283284F825A284F8260284F8272204F245
:101FA000292052460BF032FC09990191084619F09C
:101FB00067FC04F223260AF10502019983460AF11F
:101FC000060A324400232BFA03F00833202B02F8D0
:101FD000010FF8D10AF1040A5A4606EB0A000BF089
:101FE00015FC0A990191084619F04AFCD34401995D
:101FF000824606EB0B0200232AFA03F00833202B5B
:1020000002F8010BF8D10BF1040B06EB0B00524662
:102010000BF0FCFB0AEB0B020B9BB354111D164497
:102020005FFA81FCC1F3072E4FEA132B4FEA134AE4
:102030000CEB0E001B0E86F801B086F802A0F370C0
:10204000C043FEB24FF0FF0B4FF0FE0A47F30727E5
:102050004B1C84F8200284F81EC284F81FE284F826
:102060001CB284F81DA284F8216284F8227218DB65
:1020700002F22627274404F2212300200AE000BFB1
:1020800010F10100840C0200310A0000250A000052
:1020900013F8016FBB423044FAD16FEA000B5FFACC
:1020A0008BFB63180831B1F5007F83F823B200F38E
:1020B000A080002904F5077716DD0B32DFF820A297
:1020C000174404F21B2603E00DF02CF8BE420BD09F
:1020D000626816F8011F13681B6853450846F3D061
:1020E00010469847BE42F3D1A8457FF415AF0123AF
:1020F00084F8F8340DB0BDE8F08F014606AA2046FA
:10210000B047A8457FF408AFF1E7414606AA20464C
:102110009847B5427FF422AEFAE66E490391032256
:102120006D49236805918DF810201B686B498B421F
:1021300040F0CA80684F84F823220023382207F138
:10214000300884F8242284F8253284F8263284F872
:10215000273204F50A7EBC46BCE80F00C445CEF821
:102160000000CEF80410CEF80820CEF80C306746F8
:102170000EF1100EEFD103CF0022CEF80000CEF802
:1021800004103D20C2234FF0FF0CFE27072184F8E6
:102190001E0284F8203284F81CC284F81D7284F870
:1021A0001F2284F8222284F8211204F2212304F24F
:1021B0005F2001E013F8011F98420A44FAD1D2438C
:1021C000DFF81C9184F8602204F21B2704F51878CC
:1021D00004E00CF0A7FF47453FF497AE626817F89C
:1021E000011F13681B684B450846F2D010469847FC
:1021F000F1E73849039103222368374905918DF8A7
:1022000010201B684B455AD1002384F82322382222
:102210000E4601F1300C84F8242284F8253284F82B
:10222000263284F8273204F50A77B646BEE80F0056
:10223000E64538607960BA60FB60764607F11007C2
:10224000F3D103CE0022386079603D20C2234FF0E5
:10225000FF0EFE26072184F81E0284F8203284F83F
:102260001CE284F81D6284F81F2284F8222284F87C
:10227000211204F2212304F25F2001E013F8011F70
:1022800098420A44FAD1D243DFF854A084F860227D
:1022900004F21B2604F5187704E00CF043FFBE425D
:1022A0003FF422AF626816F8011F13681B6853459C
:1022B0000846F2D010469847F1E71A4600E603AA0E
:1022C0000721204698470FE703AA07212046984791
:1022D0001BE600BF28F101002CF20100310A0000CA
:1022E000250A00002DE9F04FC74E93B033680693DE
:1022F000069DD0F8003542F6F822EB1A934284BFCF
:10230000002380F8F834D0F8E434044633B1D0F830
:102310000435AB423CBF0023C0F8E434BB4FDFF8C8
:10232000FCB2A26932B133680793079B5B1B9A42E8
:10233000C0F02481606803685B69BB4266D10CF021
:1023400007FE002865DBD4F8F434D4F8E424034411
:10235000072AC4F8F43447D082B9FF2869D033681B
:102360000893089B41F288315B1B8B42D9D984F8D2
:10237000F8246FF0010013B0BDE8F08F012A60D09F
:10238000022A00F0BF80032A00F0C780042A00F070
:10239000CE80052A00F0DB80062A00F0E080082AC3
:1023A000BFD19B4A1A4000239A42C4F8E434C0F2D9
:1023B0006081FF2AB5D1D4F8EC34002B00F0928272
:1023C0000A2B00F05C82062B00F05C810B2B00F0E6
:1023D0005581BC3354F823000028A2D0036804F1CF
:1023E0001C011B6898479CE7D4F8F034E2180133CD
:1023F000C4F8F0341077D4F8E834013BC4F8E8347A
:10240000002B8ED10823C4F8E4348AE798470028CB
:1024100099DA94F8F8040028ADD0D4F8FC3440F6EA
:10242000C412EB1A934200F2AE80002013B0BDE854
:10243000F08F012205F11403C4F8E424C4F8043534
:102440006FE7FE287FD094F8F8240023C4F8E43422
:10245000002A7FF466AF6F4923680F911B686E49AD
:1024600010928B42119240F0FF80FF210820F72349
:102470004FF0FE0E84F81C120A2184F81E0284F824
:10248000203284F8232284F8242284F8252284F838
:10249000262284F8272284F8282284F8292284F826
:1024A0002A2284F81F2284F8222284F81DE284F86C
:1024B000211204F2212304F22A2001E013F8011F63
:1024C00098420A44FAD1D243DFF8549184F82B227F
:1024D00004F21B2804F22B2A03E00CF023FEC24571
:1024E0000BD0626818F8011F13681B684B4508463B
:1024F000F3D010469847C245F3D133680993099B3E
:10250000E3600EE700220323C4F8E804C4F8F404EF
:10251000C4F8F024C4F8E43403E7D4F8E83403EB57
:1025200000200423C4F8E804C4F8E434F9E6384A87
:102530001A40002AC0F28580FF2A0CBF0523002321
:10254000C4F8E434EDE60223C4F8E434E9E60623F3
:10255000C4F8EC04C4F8F404C4F8E434E1E6D4F8B4
:10256000EC34D4F8E82403EB00230721C4F8EC345E
:10257000C4F8E414002A3FF445AFD2E66FF001003E
:1025800013B0BDE8F08F234A23680F921B682249DD
:1025900000228B421092119258D1FF210820F7237C
:1025A000FE2784F81C120A2184F81E0284F82032C7
:1025B00084F8232284F8242284F8252284F8262211
:1025C00084F8272284F8282284F8292284F82A22F1
:1025D00084F81F2284F8222284F81D7284F82112C4
:1025E00004F2212304F22A2001E013F8011F98428B
:1025F0000A44FAD1D243DFF8288084F82B2204F26F
:102600001B2704F22B2911E09C95FF1F2D0A0000C7
:10261000FF000080F8F00100310A000040420F0086
:10262000250A00000CF07EFDB94513D0626817F84A
:10263000011F13681B6843450846F3D010469847AE
:10264000F2E7013A62F0FF02013275E70FAA0A21B0
:102650002046984733680B930B9BC4F8FC5400202A
:10266000E36013B0BDE8F08F0FAA0A212046984717
:1026700043E7013A62F0FF0201329AE6002384F850
:10268000F8344EE6D4F81C90D4F81035994504F18E
:102690001C0807D94FEA8901D4F8180518F0B2FAD6
:1026A000C4F81805C4F81095B9F1000F00F0358191
:1026B00004F2145C424604214FF0000E937992F824
:1026C000059010791B0443EA092392F8079003430D
:1026D00043EA0963C4F81435D4F81835DCF800006F
:1026E00043F82E00D4F810350EF1010E734508465C
:1026F00002F1040201F10401E0D8039100F10B01A1
:1027000000F1090200F10803029100F10C010192AD
:10271000994600F1050E00F1060C00F1070A00F1E0
:102720000A02049118F80C00039918F80EE018F842
:1027300001C018F80AA0D4F81C15000440EA0E20C5
:1027400040EA0C0C4CEA0A6A8A450BD94FEA8A0126
:10275000D4F824050592039318F054FA059A039BC4
:10276000C4F82405C4F81CA5BAF1000F00F0D2800B
:1027700004F5A46E08EB09020021937892F801C0D9
:1027800010781B0443EA0C2392F803C0034343EA86
:102790000C63C4F82035D4F82435DEF8000043F883
:1027A0002100D4F81C3501318B42484602F1040265
:1027B00009F10409E1D8421DC11D4B460192029165
:1027C000821D00F1080918F80200019A18F8033078
:1027D00018F80210029A000418F802A0D4F828256C
:1027E00040EA01210B4343EA0A6A924507D94FEABE
:1027F0008A01D4F8300518F005FAC4F83005C4F899
:1028000028A5BAF1000F36D000218E4604F22C50D4
:1028100000231A4608EB090A1AF801CB0CFA03FC4C
:102820000833202B42EA0C02F6D109F1040C624471
:1028300094450BD209F103034344E14609F1010930
:1028400013F801AF03F801AC9145F7D308EB02038D
:102850000CF1FF3C03F801ECC444D4F83035C4F863
:102860002CC5D0F800C043F821C0D4F82835013178
:102870008B429146CCD8012384F8083551E5336862
:102880000C930C9BE2682E48D4F820C031680E915E
:102890009A1AA0FB02E02B4BDDF83880E1694FF477
:1028A0007A7E80090EFB102263440BFB0232244B1C
:1028B000A3FB083C4FEA9C1C013908440EFB1C8317
:1028C00021460BFB1323CCEB0002226104F1100024
:1028D00041F8143F06F066FD33680D930D9BC4F874
:1028E00000351EE5226818490F91109311930A21B3
:1028F000136820460FAA984733680A930A9BE3603F
:102900002046FFF719FAC4F8FC54C4F800554FF0FC
:10291000FF3030E5DDF8109055E70C22092108233F
:10292000049201910B220421029299460A224FF04F
:10293000070A4FF0060C4FF0050E0391F2E600BFB8
:10294000D34D621000CA9A3BF8F0010038B5044636
:102950000D4608F02DFE2046034B40F8683B294603
:102960000AF0EEFE204638BDB0F501002DE9F04F2B
:10297000A3B00F46BE4C0168149415970D680493DC
:10298000BC4B2C9C039200269D42824680F8086531
:1029900040F05683384618F073FF334605460AF276
:1029A000222225FA03F10833202B02F8011FF8D167
:1029B00039462E1D2A460AF227200AF027FFF1B2D7
:1029C000C6F307200A18D243FF238AF81E12FE27F7
:1029D0008AF8202206218AF81F020022701C8AF839
:1029E0001C328AF81D728AF821128AF82222C0F25B
:1029F000258505F2262050440AF2212301E013F830
:102A0000011F98420A44FAD1D243D2B20AEB06031C
:102A10000836B6F5007F83F8232200F3AB84002E3E
:102A20000AF5077716DD0B352F44934E0AF21B2566
:102A300003E00CF077FBAF420CD0DAF8042015F875
:102A4000011F13681B68B3420846F2D0104698472E
:102A5000AF42F2D1DFF834B2DFF83482DBF8003075
:102A60000A930A9BE31801939AF8083500931946D4
:102A7000002B40F04B82DAF80030804A5B689342CA
:102A800040F03182DBF800300C93DDF83090DAF85A
:102A9000003542F6F822C3EB0903934284BF0B468C
:102AA0008AF8F834DAF8E43433B1DAF804359945C1
:102AB00002D90023CAF8E434DAF818203AB1DBF876
:102AC00000301093109BC9EB03039A4226D3DAF827
:102AD000040003685B69434540F0DC800CF038FA81
:102AE0000028C0F2DB80DAF8F434DAF8E424034496
:102AF000072ACAF8F43400F03B81002A7ED1FF286F
:102B000000F0AE81DBF800300F930F9B41F288316B
:102B1000C9EB03038B42CFD98AF8F824DBF80030E5
:102B20000993099B019A9A429ED2554A1C92554C90
:102B3000DAF800301E9402228DF874201B684D498B
:102B4000DDF800908B4240F08382002324218AF834
:102B5000232204F120078AF824128AF825328AF801
:102B600026328AF827320AF50A7526460FCEBE426B
:102B700028606960AA60EB60344605F11005F4D165
:102B80003068286000222920D623FF25FE24072153
:102B90008AF81E028AF820328AF81C528AF81D42EE
:102BA0008AF81F228AF822228AF821120AF22123A7
:102BB0000AF24B2001E013F8011F98420A44FAD1AF
:102BC000D2432D4E8AF84C220AF21B240AF51375C3
:102BD00003E00CF0A7FAAC420CD0DAF8042014F8A9
:102BE000011F13681B68B3420846F2D0104698478D
:102BF000AC42F2D1484623B0BDE8F08F012A00F084
:102C0000CB80022A00F03481032A00F03C81042AA0
:102C100000F04381052A00F04F81062A00F054811C
:102C2000082A7FF449AF184A1A4000239A42CAF88A
:102C3000E434C0F2DB81FF2A7FF43EAFDAF8EC34F3
:102C4000002B00F029830A2B00F00A82062B00F0EB
:102C50003F820B2B00F0F881BC335AF82300002888
:102C60003FF42AAF03680AF11C011B68984723E769
:102C700040F10100310A0000250A0000E5220000B1
:102C800028F1010068F20100FF0000809C95FF1F01
:102C90002D0A000098470028BFF625AF9AF8F834AF
:102CA000002B3FF43BAFDAF8FC3440F6C412C3EB20
:102CB000090393427FF632AFCF4ADAF800301C9214
:102CC0001B68CE4900228B421D921E9240F0B381B8
:102CD000FF210820F723FE248AF81C120A218AF813
:102CE0001E028AF820328AF823228AF824228AF8DF
:102CF00025228AF826228AF827228AF828228AF8AA
:102D000029228AF82A228AF81F228AF822228AF89F
:102D10001D428AF821120AF221230AF22A2001E038
:102D200013F8011F98420A44FAD1D243B44C8AF8EE
:102D30002B220AF21B260AF22B2503E00CF0F2F9F3
:102D4000AE420CD0DAF8042016F8011F13681B6895
:102D5000A3420846F2D010469847AE42F2D1DBF8C3
:102D600000300B930B9BCAF8FC94CAF80C30D5E6E4
:102D7000DAF8F0340AEB03020133CAF8F0341077C2
:102D8000DAF8E834013BCAF8E834002B7FF494AE5B
:102D90000823CAF8E4348FE6FE2800F089809AF808
:102DA000F8240023CAF8E434002A7FF485AE92495F
:102DB000DAF800301C911B6890491D928B421E92DC
:102DC00040F09980FF210820F723FE248AF81C1286
:102DD0000A218AF81E028AF820328AF823228AF809
:102DE00024228AF825228AF826228AF827228AF8BD
:102DF00028228AF829228AF82A228AF81F228AF8A9
:102E000022228AF81D428AF821120AF221230AF2AC
:102E10002A2001E013F8011F98420A44FAD1D24354
:102E2000774D8AF82B220AF21B240AF22B2603E0A4
:102E30000CF078F9A6420CD0DAF8042014F8011F3F
:102E400013681B68AB420846F2D010469847A6426A
:102E5000F2D1DBF800300E930E9BCAF80C302BE653
:102E6000012209F11403CAF8E424CAF8043523E660
:102E700000220323CAF8E804CAF8F404CAF8F024CC
:102E8000CAF8E43418E6DAF8E83403EB0020042347
:102E9000CAF8E804CAF8E4340EE65A4A1A40002A8E
:102EA00024DBFF2A7FF405AE0523CAF8E43403E6E9
:102EB0000223CAF8E434FFE50623CAF8EC04CAF892
:102EC000F404CAF8E434F7E5DAF8EC34DAF8E82484
:102ED00003EB00230721CAF8EC34CAF8E414002AF3
:102EE0003FF456AFE8E55046984717E6013A62F0DE
:102EF000FF020132D5E71CAA0A2150469847DBF8A9
:102F000000300E930E9BCAF80C30D5E5DAF8103578
:102F10000499DDF800908B427AD03B4A1C923B4CDE
:102F2000DAF800301E9402228DF874201B683349B1
:102F30008B4240F0AC81002324218AF8232204F143
:102F400020078AF824128AF825328AF826328AF86D
:102F500027320AF50A7526460FCEBE422860696000
:102F6000AA60EB60344605F11005F4D130682860A2
:102F700000222920D623FF25FE2407218AF81E02DD
:102F80008AF820328AF81C528AF81D428AF81F22D9
:102F90008AF822228AF821120AF221230AF24B200F
:102FA00001E013F8011F98420A44FAD1D243144EAB
:102FB0008AF84C220AF21B240AF5137503E00CF080
:102FC000B1F8AC420CD0DAF8042014F8011F1368F1
:102FD0001B68B3420846F2D010469847AC42F2D183
:102FE0004FF00009484623B0BDE8F08F013A62F087
:102FF000FF0201321FE600BFF8F00100310A0000B5
:10300000250A0000FF00008028F1010090F2010075
:1030100000297FF7EFADDAF81835039A03EB81004A
:10302000043A53F8041B42F8041F9842F9D1484669
:1030300023B0BDE8F08F1CAA0A21504698478EE6BF
:1030400014AA0621A84705E500238AF8F83433E5D9
:1030500050461CAA07219847484623B0BDE8F08F88
:10306000DBF800301193119BDAF80C20DAF82060BD
:10307000BA4CDBF8001013919B1AB94A139DDAF889
:103080001C10A2FB0302344492094FF47A70B54E2F
:1030900000FB123306FB0343B14CA4FB0564A409F7
:1030A00000FB14500139AF4D0A44514605FB103363
:1030B000121BCAF810200AF1100041F8143F06F064
:1030C00071F9DBF800301293129BCAF80035F3E473
:1030D000DAF81C50DAF810359D420AF11C0406D9C2
:1030E000A900DAF8180517F08DFDCAF81805CAF816
:1030F0001055002D00F021810AF2145620460423B9
:103100000025827947790179120442EA0722C779BA
:103110000A4342EA0762CAF81425DAF8182531682A
:1031200042F82510DAF810250135AA42194600F1B7
:10313000040003F10403E4D8059301F10B0301F14A
:103140000806029301F10C03354601F1050E01F169
:10315000060CC81D01F1090701F10A02069314F8D3
:103160000C10059B14F80EE014F803C0235CDAF889
:103170001C05090441EA0E2141EA0C0C4CEA0363E8
:1031800083420AD99900DAF824050792059317F0CB
:1031900039FD079A059BCAF82405CAF81C35002B8F
:1031A00000F01B840AF5A466611900208B784F7823
:1031B0000A781B0443EA0723CF78134343EA0763E3
:1031C000CAF82035DAF82435326843F82020DAF8D6
:1031D0001C25013082422B4601F1040105F1040552
:1031E000E4D8D91D2E465F1D9A1D029103F10805F2
:1031F000A15CE05D029AA35DA65CDAF828250904CB
:1032000041EA00210B4343EA0666964206D9B10023
:10321000DAF8300517F0F6FCCAF83005CAF8286568
:103220008EB3002007460AF22C560023194604EB01
:10323000050E1EF8012B9A400833202B41EA0201AB
:10324000F7D105F1040E71448E4509D2EB1C2344DD
:103250007246013213F8015F03F8015C8A42F8D329
:1032600063180EF1FF3203F8017C2244DAF830359E
:10327000CAF82C25326843F82020DAF828350130C6
:1032800083420D46D1D801238AF8083514E450460C
:103290001CAA07219847A3E6DAF8001032481C90D0
:1032A0000C6832491D938C421E9340F0CA8008205E
:1032B000F721FE248AF81C220A228AF81E028AF8C4
:1032C00020128AF823328AF824328AF825328AF8C2
:1032D00026328AF827328AF828328AF829328AF880
:1032E0002A328AF81F328AF822328AF81D428AF876
:1032F00021220AF221210AF22A2001E011F8012FED
:1033000088421344FAD1DB43194C8AF82B320AF273
:103310001B260AF22B2504E00BF004FFB54200F057
:103320009480DAF8042016F8011F13681B68A34282
:103330000846F1D010469847F0E70C2306930B237C
:1033400008260293042335460A22092707204FF056
:10335000060C4FF0050E059301E700BF00CA9A3B2B
:10336000D34D621040420F00F8F00100310A000016
:10337000250A0000A04A1C92A04DDAF800301E95E4
:1033800003228DF874201B689D498B4240F02783EF
:10339000002338218AF8232205F1300E8AF82412FE
:1033A0008AF825328AF826328AF827320AF50A770F
:1033B0002E460FCE764538607960BA60FB603546A0
:1033C00007F11007F4D103CDFF22386079603D206A
:1033D0000023C221FE258AF81C2207228AF81E0239
:1033E0008AF820128AF81D528AF81F328AF822328F
:1033F0008AF821220AF221210AF25F2001E011F865
:10340000012F88421344FAD1DB437E4E8AF86032A2
:103410000AF21B250AF5187704E00BF083FEBD4283
:103420003FF418ABDAF8042015F8011F13681B6885
:10343000B3420846F1D010469847F0E71A46FFF726
:10344000E5BA1CAA0A215046A047DBF800300D93CC
:103450000D9A6D4BCAF80C2000226C49ADF874200F
:1034600021921E931F9320930AF27C420AF58363F4
:10347000CDF814901C910292994659F8043F002B04
:1034800000F0D88058681C6801689A681E948B68A0
:10349000ADF874209847D9F800301F905868036839
:1034A000DB689847DAF80030D9F8001020904FF424
:1034B00000721B680C692192514A9342074640F002
:1034C000AC81632C04DD9AF8F834002B00F0B28054
:1034D000BDF874301E9D8AF823321B0A8AF8243204
:1034E000284618F0CDF90646330E320C000A29465C
:1034F0008AF828328AF825628AF826028AF8272272
:103500000AF2292032460AF081F91F9906910846ED
:1035100018F0B6F90AF2232502460699701D2844D0
:103520000636002322FA03FE0833202B00F801EFB1
:10353000F8D10436A81916440AF068F9384618F08C
:103540009FF9A9190346002223FA02F00832202A23
:1035500001F8010BF8D1043639461A46A81906932A
:103560000AF054F9069B9919081DC0F307275FFA62
:1035700080FE6A180EEB07030026DB434FF0020CB7
:103580006E5482F801C09670D6704FF0FE0CE2B215
:103590008AF8203244F307248AF81F724FF0FF3371
:1035A000471C8AF81EE28AF81C328AF81DC28AF883
:1035B00021228AF82242C0F2F78101F226245444E3
:1035C0000AF2212301E013F8012F9C421644FAD19C
:1035D000F343DBB20AEB00020830B0F5007F82F85B
:1035E000233200F37F8100280AF5077422DD0B31B6
:1035F0000C440AF21B250FE028F101002CF2010017
:10360000310A0000250A0000840C020010F10100BC
:103610000BF088FDAC420DD0DAF80420CA481368DC
:1036200015F8011F1B6883420846F1D010469847E1
:10363000AC42F1D1029B99457FF41FAFDDF81490A5
:10364000CDF818900AF59C63DDF80890059359F8B9
:10365000040F002800F0D2808168036842681E9140
:10366000ADF874209B689847D9F800301F901A680D
:103670001846D3689847D9F80030DAF8001020903F
:103680001A680D6852684FF40071184621919047EE
:10369000AE4B9D42044640F0C580632804DD9AF895
:1036A000F834002B00F0AA80BDF874301E9D8AF813
:1036B00023321B0A8AF82432284618F0E1F806461D
:1036C000330E320C000A29468AF828328AF825621D
:1036D0008AF826028AF827220AF2292032460AF0BE
:1036E00095F81F990291084618F0CAF80AF22325A6
:1036F000721D0299074606362A44002327FA03F072
:103700000833202B02F8010FF8D104363A46A819E5
:103710000AF07CF820990291084618F0B1F83E446E
:1037200002990746AA19002327FA03F00833202B31
:1037300002F8010BF8D104363A46A8190AF066F8E7
:10374000BA19111D5FFA81FEC1F307272198A85409
:103750000EEB0703AE18DB434FEA104C0293030A4B
:10376000000EF070E0B244F30724737086F802C0D4
:10377000FF234FF0FE0C9DF808608AF822424C1C93
:103780008AF820628AF81EE28AF81F728AF81C32D0
:103790008AF81DC28AF821020DDB02F22626564461
:1037A0000AF22123002401E013F8010F9E42044491
:1037B000FAD1E343DBB20AEB01000831B1F5007F37
:1037C00080F8233233DC00290AF5077516DD0B3249
:1037D00015440AF21B2603E00BF0A4FCAE420DD008
:1037E000DAF804205848136816F8011F1B68834252
:1037F0000846F1D010469847AE42F1D1059B994555
:103800007FF425AFDDF81890CAF8FC940123CAF8BC
:1038100000958AF8F834FFF781B921461CAA504672
:10382000984707E701461CAA5046A847E6E74849DB
:1038300016910322DAF8003046498DF85C20189181
:103840001B68424A934240F0B180294616A8FDF712
:1038500083F8C1B2C0F307240A19D243FF238AF8C0
:103860001E12FE258AF8202207218AF81F42421CD8
:103870004FF000048AF81C328AF81D528AF821128F
:103880008AF822420DDB00F22222234652440AF239
:10389000212401E014F8011FA2420B44FAD1DB43BA
:1038A000DBB20AEB000200F10801B1F5007F82F8FB
:1038B000233200F3838000290AF507749EDDC31DBF
:1038C0001C440AF21B25DAF804201F48136815F877
:1038D000011F1B68834208466DD10BF023FCA542F3
:1038E000F1D18BE71A4916910322DAF80030194911
:1038F0008DF85C2018911B68144A934275D12946B3
:1039000016A8FDF729F8C1B2C0F307240A19FE254D
:10391000D243FF238AF81E128AF81F42072100248F
:103920008AF81D52451C8AF820228AF81C328AF82F
:1039300021128AF8224216DB00F222222346524448
:103940000AF221240AE000BF250A0000310A000023
:1039500028F101002CF2010014F8011FA2420B44CF
:10396000FAD1DB43DBB20AEB000200F10801B1F54A
:10397000007F82F8233240DC00290AF507747FF7C4
:1039800059AE073004440AF21B25DAF80420224815
:10399000136815F8011F1B68834208462AD10BF0F3
:1039A000C1FBA542F1D145E6FF2313E616AA072184
:1039B0005046984722E71046984790E717491991D3
:1039C0000322DAF8003016491B918DF868201B6835
:1039D00019AA07215046984710E7069D08E41CAA3B
:1039E000072150469847FFF735B816AA07215046D9
:1039F00098471FE610469847D3E7084919910322D4
:103A0000DAF8003006491B918DF868201B6819AA66
:103A10000721504698470DE6250A000028F10100CD
:103A20002CF201002DE9F04FABB0034603F1680B17
:103A30000C460390BB4926A809F06EFE594626A8FD
:103A400009F0C6FEB84909F0CBFEB84A07682368FA
:103A5000219222971B68B64A0026934284F8086593
:103A600041F08E80384617F00BFF3346054604F2CE
:103A7000222225FA03F10833202B02F8011FF8D186
:103A800039462E1D2A4604F2272009F0BFFEF1B266
:103A9000C6F307200A18D243FE27FF2384F81E121C
:103AA00084F820220621002284F81D72771C84F8F5
:103AB0001F0284F81C3284F8211284F82222C1F2F9
:103AC000A08405F22620204404F2212301E013F80B
:103AD000011F98420A44FAD1D243D2B2A319083640
:103AE000B6F5007F83F8232201F31A84002E04F533
:103AF000077711DD0B358F4E2F4404F21B256268CA
:103B000015F8011F13681B68B342084641F075841D
:103B10000BF008FBAF42F2D1DFF82C92DFF82CA2B9
:103B2000D9F800300C930C9BCDF810B003F57A73E4
:103B3000984694F80825002A40F03E8223687E4982
:103B40005B688B4240F02682D9F800300E93DDF896
:103B500038B0D4F8003542F6F821C3EB0B038B42A2
:103B6000D4F8E43488BF84F8F82433B1D4F80435A9
:103B70009B4502D90023C4F8E434A2693AB1D9F8CC
:103B800000301293129BCBEB03039A4225D360685B
:103B900003685B69534540F0DB800BF0D9F90028DE
:103BA000C0F2DA80D4F8F434D4F8E4240344072AC9
:103BB000C4F8F43400F03781002A78D1FF2800F0EF
:103BC000A681D9F800301193119B41F28831CBEBDB
:103BD00003038B42D1D984F8F824D9F800300B9331
:103BE0000B9B9845A5D2554A2392554D23682595A0
:103BF00002228DF890201B684D49DDF810B08B42F1
:103C000040F09483002324212F4605F1200E84F8F0
:103C1000232284F8241284F8253284F8263284F88A
:103C2000273204F50A753E460FCE76452860696056
:103C3000AA60EB60374605F11005F4D130682860C2
:103C4000FF2129200022D623FE2584F81C120721FB
:103C500084F81E0284F8203284F81D5284F81F2252
:103C600084F8222284F8211204F2212304F24B204A
:103C700001E013F8011F98420A44FAD1D2432D4EB5
:103C800084F84C2204F21B2704F5137504E00BF0B2
:103C900049FAAF4200F00D82626817F8011F1368FD
:103CA0001B68B3420846F2D010469847F1E7012A54
:103CB00000F0CC80022A00F03281032A00F03A8121
:103CC000042A00F04181052A00F04D81062A00F007
:103CD0005281082A7FF451AF1A4A1A4000239A42AF
:103CE000C4F8E434C0F2CF81FF2A7FF446AFD4F8A1
:103CF000EC34002B01F002820A2B00F05C87062BCB
:103D000000F0AA870B2B00F04C87BC3354F823003B
:103D100000283FF432AF036804F11C011B68984788
:103D20002BE700BFB8F2010040F3010040F10100B1
:103D3000310A0000250A0000E522000028F10100F8
:103D400068F20100FF0000809C95FF1F2D0A000013
:103D500098470028BFF626AF94F8F834002B3FF4BC
:103D60003CAFD4F8FC3440F6C412C3EB0B039342CF
:103D70007FF633AFC64A236823921B68C5490022E9
:103D80008B422492259241F03F83FF210820F723A4
:103D9000FE2584F81C120A2184F81E0284F82032C1
:103DA00084F8232284F8242284F8252284F8262209
:103DB00084F8272284F8282284F8292284F82A22E9
:103DC00084F81F2284F8222284F81D5284F82112DC
:103DD00004F2212304F22A2001E013F8011F984283
:103DE0000A44FAD1D243AC4D84F82B2204F21B27AB
:103DF00004F22B2603E00BF095F9B7420BD0626872
:103E000017F8011F13681B68AB420846F3D0104631
:103E10009847B742F3D1D9F800300D930D9BC4F801
:103E2000FCB4E360D9E6D4F8F034E2180133C4F806
:103E3000F0341077D4F8E834013BC4F8E834002BB0
:103E40007FF49BAE0823C4F8E43496E6FE2800F025
:103E5000868094F8F8240023C4F8E434002A7FF420
:103E60008CAE8B49236823911B688A4924928B422C
:103E7000259240F09780FF210820F723FE2584F843
:103E80001C120A2184F81E0284F8203284F82322AE
:103E900084F8242284F8252284F8262284F8272214
:103EA00084F8282284F8292284F82A2284F81F2200
:103EB00084F8222284F81D5284F8211204F221236E
:103EC00004F22A2001E013F8011F98420A44FAD1B3
:103ED000D243714E84F82B2204F21B2504F22B27C7
:103EE00003E00BF01FF9AF420BD0626815F8011F19
:103EF00013681B68B3420846F3D010469847AF4298
:103F0000F3D1D9F800301093109BE36035E601221D
:103F10000BF11403C4F8E424C4F804352DE60022A0
:103F20000323C4F8E804C4F8F404C4F8F024C4F883
:103F3000E43422E6D4F8E83403EB00200423C4F888
:103F4000E804C4F8E43418E6544A1A40002A24DB92
:103F5000FF2A7FF40FAE0523C4F8E4340DE60223F4
:103F6000C4F8E43409E60623C4F8EC04C4F8F40405
:103F7000C4F8E43401E6D4F8EC34D4F8E82403EBD4
:103F800000230721C4F8EC34C4F8E414002A3FF4F9
:103F900059AFF2E5204698471FE6013A62F0FF026A
:103FA0000132D5E723AA0A2120469847D9F80030E4
:103FB0001093109BE360E0E5D4F81C35DDF810B0F9
:103FC000012B71D0364A2392364D23682595022263
:103FD0008DF890201B682F498B4240F0A781002369
:103FE00024212F4605F1200E84F8232284F8241280
:103FF00084F8253284F8263284F8273204F50A75CD
:104000003E460FCE764528606960AA60EB60374671
:1040100005F11005F4D130682860FF212920002225
:10402000D623FE2584F81C12072184F81E0284F88A
:10403000203284F81D5284F81F2284F8222284F84A
:10404000211204F2212304F24B2001E013F8011F96
:1040500098420A44FAD1D2430F4E84F84C2204F21B
:104060001B2704F5137503E00BF05CF8AF4220D07A
:10407000626817F8011F13681B68B3420846F3D043
:1040800010469847F2E7013A62F0FF0201322BE650
:10409000F8F00100310A0000250A0000FF0000804E
:1040A00028F1010090F20100D4F82435039A1B682E
:1040B000536026A809F0F0FABC4926A809F02CFBA9
:1040C000594626A809F084FBB94909F089FBB94A89
:1040D00007682368219222971B68B74A00269342FB
:1040E00084F8086540F05285384617F0C9FB33461E
:1040F000054604F2222225FA03F10833202B02F8A8
:10410000011FF8D139462E1D2A4604F2272009F056
:104110007DFBF1B2C6F307200A18D243FF2384F8CF
:104120001E12FE2784F82022062184F81F02002296
:10413000701C84F81C3284F81D7284F8211284F8F3
:104140002222C1F28F8005F22620204404F221238E
:1041500001E013F8011F83420A44FAD1D243D2B2DC
:10416000A3190836B6F5007F83F8232201F31480E3
:10417000002E04F5077711DD0B35904E2F4404F225
:104180001B25626815F8011F13681B68B3420846B7
:1041900041F064800AF0C6FFAF42F2D1D9F8003096
:1041A0001793179BDFF828A2CDF810B003F57A73A8
:1041B000984694F80825002A40F0488223688049F0
:1041C0005B688B4240F02782D9F800301993DDF804
:1041D00064B0D4F8003542F6F821C3EB0B038B42F0
:1041E000D4F8E43488BF84F8F82433B1D4F8043523
:1041F0009B4502D90023C4F8E434A2693AB1D9F846
:1042000000301D931D9BCBEB03039A4225D36068BE
:1042100003685B69534540F0DD800AF099FE002891
:10422000C0F2DC80D4F8F434D4F8E4240344072A40
:10423000C4F8F43400F03981002A7CD1FF2800F062
:104240004781D9F800301C931C9B41F28831CBEB9D
:1042500003038B42D1D984F8F824D9F8003016939F
:10426000169B9845A5D2574A2392574D236825950A
:1042700002228DF890201B684F49DDF810B08B4268
:1042800040F08A840023242184F8232205F1200EA3
:1042900084F8241284F8253284F8263284F82732F0
:1042A00004F50A762F460FCF774530607160B26013
:1042B000F3603D4606F11006F4D138683060FF2106
:1042C00029200022D623FE2584F81C12072184F819
:1042D0001E0284F8203284F81D5284F81F2284F8CC
:1042E000222284F8211204F2212304F24B2001E05F
:1042F00013F8011F83420A44FAD1D2432F4E84F8A7
:104300004C2204F21B2504F5137704E00AF00AFF9F
:10431000AF4200F0A781626815F8011F13681B689F
:10432000B3420846F2D010469847F1E723AA072186
:1043300020469847BDE6012A00F0D280022A00F00C
:104340002F81032A00F03781042A00F03E81052ADC
:1043500000F04A81062A00F04F81082A7FF44DAF11
:104360001A4A1A4000239A42C4F8E434C0F2A383E4
:10437000FF2A7FF442AFD4F8EC34002B00F06F86B4
:104380000A2B00F03786062B00F04D850B2B00F032
:104390000D84BC3354F8230000283FF42EAF03688B
:1043A00004F11C011B68984727E700BFB8F2010021
:1043B00048F3010040F10100310A0000250A000025
:1043C000E522000028F1010068F20100FF000080F2
:1043D0002D0A000098470028BFF624AF94F8F8345F
:1043E000002B3FF43AAFD4F8FC3440F6C412C3EBD0
:1043F0000B0393427FF631AF904A236823921B68E8
:104400008F4900228B422492259240F0EA87FF21B7
:104410000820F723FE2584F81C120A2184F81E02C6
:1044200084F8203284F8232284F8242284F8252278
:1044300084F8262284F8272284F8282284F8292266
:1044400084F82A2284F81F2284F8222284F81D523C
:1044500084F8211204F2212304F22A2001E013F847
:10446000011F98420A44FAD1D243764D84F82B2298
:1044700004F21B2704F22B2603E00AF053FEB74296
:104480000BD0626817F8011F13681B68AB4208461F
:10449000F3D010469847B742F3D1D9F800301893BB
:1044A000189BC4F8FCB4E360D7E6D4F8F034E21803
:1044B0000133C4F8F0341077D4F8E834013BC4F881
:1044C000E834002B7FF499AE0823C4F8E43494E672
:1044D00001220BF11403C4F8E424C4F804358CE67B
:1044E000FE287DD094F8F8240023C4F8E434002A90
:1044F0007FF483AE5149236823911B68504924926D
:104500008B42259240F08F80FF210820F723FE2563
:1045100084F81C120A2184F81E0284F8203284F8E0
:10452000232284F8242284F8252284F8262284F881
:10453000272284F8282284F8292284F82A2284F861
:104540001F2284F8222284F81D5284F8211204F2DA
:10455000212304F22A2001E013F8011F98420A44A3
:10456000FAD1D243374E84F82B2204F21B2504F2F1
:104570002B2703E00AF0D6FDBD420BD0626815F888
:10458000011F13681B68B3420846F3D010469847D2
:10459000BD42F3D1D9F800301B931B9BE3602CE69E
:1045A00000220323C4F8E804C4F8F404C4F8F02497
:1045B000C4F8E43421E6D4F8E83403EB0020042303
:1045C000C4F8E804C4F8E43417E61F4A1A40002A85
:1045D00024DBFF2A7FF40EAE0523C4F8E4340CE696
:1045E0000223C4F8E43408E60623C4F8EC04C4F853
:1045F000F404C4F8E43400E6D4F8EC34D4F8E82445
:1046000003EB00230721C4F8EC34C4F8E414002AB7
:104610003FF45AAFF1E5204698471EE6013A62F0B2
:10462000FF020132D5E723AA0A2120469847D9F88C
:1046300000301B931B9BE360DFE500BFF8F0010037
:10464000310A0000250A0000FF000080D4F81C3564
:10465000DDF810B0012B40F03382D4F82435039AF2
:104660001B68936026A809F017F8C14926A809F02D
:1046700053F8594626A809F0ABF8BE4909F0B0F83E
:10468000039E01684FF47A75324601230C3200957F
:104690002046FEF76BF926A808F0FEFFB44926A8CD
:1046A00009F03AF8594626A809F092F8B24909F0FB
:1046B00097F8324601231032016800952046FEF734
:1046C00055F926A808F0E8FFA94926A809F024F81A
:1046D000594626A809F07CF8A84909F081F8324625
:1046E00001231432016800952046FEF73FF926A801
:1046F00008F0D2FF9E4926A809F00EF8594626A8D0
:1047000009F066F89E4909F06BF832460123183229
:10471000016800952046FEF729F926A808F0BCFF9D
:10472000934926A808F0F8FF594626A809F050F842
:10473000944909F055F8324601231C32016800956E
:104740002046FEF713F926A808F0A6FF884926A8F8
:1047500008F0E2FF594626A809F03AF88A4909F01C
:104760003FF8324601232032016800952046FEF7CB
:10477000FDF826A808F090FF7D4926A808F0CCFF98
:10478000594626A809F024F8804909F029F806F1CD
:1047900024020123016800952046FEF7E7F826A8C9
:1047A00008F07AFF724926A808F0B6FF594626A8F5
:1047B00009F00EF8764909F013F806F128020123F2
:1047C000016800952046FEF7D1F826A808F064FF9E
:1047D000674926A808F0A0FF594626A808F0F8FF68
:1047E0006C4908F0FDFF06F12C02012301680095D9
:1047F0002046FEF7BBF826A808F04EFF5C4926A825
:1048000008F08AFF594626A808F0E2FF624908F03E
:10481000E7FF06F130020123016800952046FEF70C
:10482000A5F826A808F038FF514926A808F074FF1B
:10483000594626A808F0CCFF584908F0D1FF324667
:1048400001233432016800952046FEF78FF826A830
:1048500008F022FF464926A808F05EFF594626A820
:1048600008F0B6FF4E4908F0BBFF3246012338324C
:10487000016800952046FEF779F826A808F00CFF9D
:104880003B4926A808F048FF594626A808F0A0FF93
:10489000444908F0A5FF324601233C3201680095E7
:1048A0002046FEF763F826A808F0F6FE304926A851
:1048B00008F032FF594626A808F08AFF3A4908F066
:1048C0008FFF324601234032016800952046FEF7F3
:1048D0004DF826A808F0E0FE254926A808F01CFFA0
:1048E000594626A808F074FF304908F079FF32468F
:1048F00001234432016800952046FEF737F826A8C8
:1049000008F0CAFE1A4926A808F006FF594626A84C
:1049100008F05EFF264908F063FF32460123483263
:10492000016800952046FEF721F826A808F0B4FE9D
:104930000F4926A808F0F0FE594626A808F048FFBF
:104940001C4908F04DFF06F14C0201230168009557
:104950002046FEF70BF826A808F09EFE044926A87C
:1049600008F0DAFE594626A808F032FF24E000BF1E
:10497000B8F2010050F301005CF3010068F301009C
:1049800080F3010098F30100B4F30100D0F30100BB
:10499000ECF3010008F4010020F4010040F40100F0
:1049A00060F401007CF4010098F40100B0F401000F
:1049B000CCF40100E8F40100994908F011FF06F178
:1049C00050020123016800952046FDF7CFFF26A87D
:1049D00008F062FE934926A808F09EFE594626A8D4
:1049E00008F0F6FE904908F0FBFE06F154020123A0
:1049F000016800952046FDF7B9FF26A808F04CFE97
:104A0000884926A808F088FE594626A808F0E0FE46
:104A1000864908F0E5FE06F1580201230168009579
:104A20002046FDF7A3FF26A808F036FE7D4926A8FC
:104A300008F072FE594626A808F0CAFE7C4908F024
:104A4000CFFE324601235C32016800952046FDF717
:104A50008DFF26A808F020FE724926A808F05CFE0B
:104A6000594626A808F0B4FE724908F0B9FE32464D
:104A700001236032016800952046FDF777FF26A8E4
:104A800008F00AFE674926A808F046FE594626A8FF
:104A900008F09EFE684908F0A3FE06F16402016872
:104AA000009501232046FDF761FF26A808F0F4FDDC
:104AB0002BB0BDE8F08F013A62F0FF02013257E4FB
:104AC0005E4A23925E4D2368259502228DF8902040
:104AD0001B685C498B425FD10023242184F8232288
:104AE00005F1200E84F8241284F8253284F8263249
:104AF00084F8273204F50A762F460FCF77453060C9
:104B00007160B260F3603D4606F11006F4D138687A
:104B10003060FF2129200022D623FE2584F81C12B4
:104B2000072184F81E0284F8203284F81D5284F88C
:104B30001F2284F8222284F8211204F2212304F295
:104B40004B2001E013F8011F83420A44FAD1D243FB
:104B50003D4E84F84C2204F21B2504F5137704E043
:104B60000AF0E0FAAF423FF47DAD626815F8011F2C
:104B700013681B68B3420846F2D010469847F1E725
:104B800021AA062120469847FEF7C6BF21AA062182
:104B900020469847FFF702BB23AA072120469847E3
:104BA00060E5002384F8F834FEF7E7BF002384F8BB
:104BB000F834FFF722BBD9F800301393139BE26857
:104BC0002248276A224ED9F8001015919A1AA0FBA4
:104BD00002503E444FF47A7580091E4F159BE169DF
:104BE00005FB102207FB0262184EA6FB0376B609EE
:104BF000013905FB1633174D0844214605FB1323E5
:104C0000821B226104F1100041F8143F04F0CAFB3A
:104C1000D9F800301493149BC4F80035FEF7ADBFEB
:104C200004F50100B8F2010020F5010038F501009B
:104C300054F5010070F501008CF5010028F1010028
:104C400090F20100310A0000250A0000D34D6210E5
:104C500000CA9A3B40420F00E669D4F810359E42E4
:104C600004F11C0506D9B100D4F8180515F0CAFFE7
:104C7000C4F81805C4F81065002E00F02F8304F264
:104C80001457284604230026827990F805E001791C
:104C9000120442EA0E2290F807E00A4342EA0E624A
:104CA000C4F81425D4F81825396842F82610D4F829
:104CB00010250136B242194600F1040003F1040345
:104CC000E2D8079301F10B0301F1090201F1080792
:104CD000069301F10C0305923E4601F1050E01F128
:104CE000060CC81D01F10A02089315F80C10079B69
:104CF00015F80EE015F803C02B5CD4F81C05090468
:104D000041EA0E2141EA0C0C4CEA036383420AD9C2
:104D10009900D4F824050992079315F073FF099AB6
:104D2000079BC4F82405C4F81C35002B00F0D4827E
:104D300004F5A467AA190021937892F801E010788D
:104D40001B0443EA0E2392F803E0034343EA0E6395
:104D5000C4F82035D4F82435386843F82100D4F855
:104D60001C3501318B42304602F1040206F1040683
:104D7000E2D8431D0593C31D3746821D069300F1FB
:104D80000806059BA85CE95C069AEB5DAF5CD4F86D
:104D90002825000440EA01210B4343EA07679742B4
:104DA00006D9B900D4F8300515F02CFFC4F8300549
:104DB000C4F8287597B300210F4604F22C50002345
:104DC0001A4605EB060C1CF801EB0EFA03FE08333D
:104DD000202B42EA0E02F6D106F1040E724472450F
:104DE00009D9F31C2B447646013613F801CF03F89A
:104DF00001CCB242F8D8AB180EF1FF3603F8017CB3
:104E00002E44D4F83035C4F82C65066843F8216088
:104E1000D4F8283501318B421646D0D8012384F8C6
:104E20000835FEF7AABEE669D4F810359E4204F1B3
:104E30001C0506D9B100D4F8180515F0E3FEC4F836
:104E40001805C4F81065002E00F0358204F21457DE
:104E5000284604230026827990F805E0017912049F
:104E600042EA0E2290F807E00A4342EA0E62C4F8D2
:104E70001425D4F81825396842F82610D4F81025DE
:104E80000136B242194600F1040003F10403E2D8EE
:104E9000089301F10B0301F1090201F108070693E0
:104EA00001F10C0305923E4601F1050E01F1060CDD
:104EB000C81D01F10A02079315F80C10089B15F89C
:104EC0000EE015F803C02B5CD4F81C05090441EA78
:104ED0000E2141EA0C0C4CEA036383420AD9990083
:104EE000D4F824050992089315F08CFE099A089BC2
:104EF000C4F82405C4F81C35002B00F0DA8104F551
:104F0000A467AA190021937892F801E010781B0495
:104F100043EA0E2392F803E0034343EA0E63C4F826
:104F20002035D4F82435386843F82100D4F81C35EE
:104F300001318B42304602F1040206F10406E2D848
:104F4000431D0593C31D3746821D069300F10806D5
:104F5000059BA85CE95C069AEB5DAF5CD4F828255C
:104F6000000440EA01210B4343EA0767974206D950
:104F7000B900D4F8300515F045FEC4F83005C4F882
:104F8000287597B300210F4604F22C5000231A46CF
:104F900005EB060C1CF801EB0EFA03FE0833202B80
:104FA00042EA0E02F6D106F1040E7244964509D289
:104FB000F31C2B447646013613F801CF03F801CCDD
:104FC0009642F8D3AB180EF1FF3603F8017C2E445D
:104FD000D4F83035C4F82C65066843F82160D4F85D
:104FE000283501318B421646D0D8012384F8083584
:104FF000FFF703B9D9F800301E931E9BE268C04842
:10500000276AC04ED9F8001020919A1AA0FB0250CE
:105010003E444FF47A758009BB4F209BE16905FB44
:10502000102207FB0262B64EA6FB0376B6090139D1
:1050300005FB1633B44D0844214605FB1323821BA0
:10504000226104F1100041F8143F04F0ABF9D9F8E3
:1050500000301F931F9BC4F80035FFF7CEB82168BE
:10506000AA4823900D68AA4924938D42259340F0C5
:105070000E810820F721FE2584F81C220A2284F8DC
:105080001E0284F8201284F8233284F8243284F833
:10509000253284F8263284F8273284F8283284F8BE
:1050A000293284F82A3284F81F3284F8223284F8B4
:1050B0001D5284F8212204F2212104F22A2001E069
:1050C00011F8012F88421344FAD1DB43914D84F843
:1050D0002B3204F21B2704F22B2604E00AF022F8FC
:1050E000B74200F0D880626817F8011F13681B6888
:1050F000AB420846F2D010469847F1E72168834852
:1051000023900D68824924938D42259340F0AD8011
:105110000820F721FE2584F81C220A2284F81E02AA
:1051200084F8201284F8233284F8243284F825325B
:1051300084F8263284F8273284F8283284F8293219
:1051400084F82A3284F81F3284F8223284F81D52FF
:1051500084F8212204F2212104F22A2001E011F82E
:10516000012F88421344FAD1DB436A4D84F82B3275
:1051700004F21B2704F22B2603E009F0D3FFBE4202
:1051800077D0626817F8011F13681B68AB420846A6
:10519000F3D010469847F2E75F4A23925F4D2368A9
:1051A000259503228DF890201B6859498B4240F0C9
:1051B00031810023382184F8232205F1300E84F850
:1051C000241284F8253284F8263284F8273204F534
:1051D0000A772E460FCE764538607960BA60FB605C
:1051E000354607F11007F4D103CDFF22386079600E
:1051F0003D200023C221FE2584F81C22072284F8CA
:105200001E0284F8201284F81D5284F81F3284F89C
:10521000223284F8212204F2212104F25F2001E0ED
:1052200011F8012F88421344FAD1DB43394E84F838
:10523000603204F21B2504F5187704E009F072FFD0
:10524000BD423EF4ABAF626815F8011F13681B68DE
:10525000B3420846F2D010469847F1E71046984707
:10526000FEF79ABF1A46FEF77BBF23AA0A21204603
:10527000A847D9F800300F930F9BE3602046FCF756
:105280005BFDC4F8FCB4C4F800B5FEF7A6BC23AAC5
:105290000A212046A847D9F800301A931A9BE360E8
:1052A0002046FCF749FDC4F8FCB4C4F800B5FEF78D
:1052B000D4BF079E4CE60C2307930B2306930923C8
:1052C0000827059304233E460A2207204FF0060CC8
:1052D0004FF0050E0893EFE5089E52E50C23089366
:1052E0000B23069309230827059304233E460A222D
:1052F00007204FF0060C4FF0050E0793F5E400BFB2
:10530000D34D621000CA9A3B40420F00F8F00100F2
:10531000310A0000250A000028F101002CF20100EA
:105320003F4A23923F4D2368259503228DF8902014
:105330001B683D498B425AD10023382184F823222F
:1053400005F1300E84F8241284F8253284F82632D0
:1053500084F8273204F50A772E460FCE764538605A
:105360007960BA60FB60354607F11007F4D103CDD0
:10537000FF22386079603D200023C221FE2584F899
:105380001C22072284F81E0284F8201284F81D5281
:1053900084F81F3284F8223284F8212204F2212179
:1053A00004F25F2001E011F8012F88421344FAD182
:1053B000DB431E4E84F8603204F21B2504F5187797
:1053C00004E009F0AFFEBD423EF4A6AB626815F8FA
:1053D000011F13681B68B3420846F2D01046984775
:1053E000F1E723AA0A2120469847FFF756B823AAD7
:1053F000072120469847FEF78FBB10469847FEF7D7
:1054000089BB1A46FEF76ABB23AA0A2120469847A1
:10541000FEF701BD23AA072120469847FEF7BEBE2E
:1054200028F101002CF20100310A0000250A0000D9
:105430001F4B10B4D3F88020136850681978047893
:10544000507A137A044201EA03011AD0937A03F0E6
:10545000030309B143F0040343F008039910013B2F
:1054600091720D2B0BD8DFE803F01E0719070A1401
:105470001E1E140A0719071ED368013BD36010BC17
:105480007047937A03F003030029E7D043F0040345
:10549000E4E7D36810BC023BD3607047D36810BC0C
:1054A0000233D3607047D36810BC0133D3607047B8
:1054B0001495FF1FFFFFFFFF2D4B186810B528B193
:1054C0000368996828A3D3E900238847294B186803
:1054D00028B10368996824A3D3E900238847264BA1
:1054E000186828B1036899681FA3D3E90023884787
:1054F000224B186828B1036899681BA3D3E90023DD
:1055000088471F4B186828B10368996816A3D3E928
:10551000002388471B4B186828B10368996812A3B9
:10552000D3E900238847184B186828B103689968A5
:105530000DA3D3E900238847144B186828B10368EA
:10554000996809A3D3E900238847114B186838B13B
:105550000368BDE81040996803A3D3E90023084716
:1055600010BD00BFAFF30080000000A09999A93FD3
:105570005894FF1F5C94FF1F6094FF1F6494FF1FEB
:10558000C094FF1FC494FF1FC894FF1FCC94FF1F3B
:10559000BC94FF1F024B186808B107F049B8704768
:1055A000D094FF1F38B5436A33B1026B0446956847
:1055B00090609847236B9D6038BD00BF1F4B10B4AF
:1055C000D3F884201368506819780478507A137AD5
:1055D000044201EA03011AD0937A03F0030309B1EC
:1055E00043F0040343F008039910013B91720D2B23
:1055F0000BD8DFE803F01E0719070A141E1E140A51
:105600000719071ED368013BD36010BC7047937A1B
:1056100003F003030029E7D043F00403E4E7D36871
:1056200010BC023BD3607047D36810BC0233D36018
:105630007047D36810BC0133D36070471495FF1FC7
:105640001F4B10B41A681368506819780478507AA0
:10565000137A044201EA03011AD0937A03F0030398
:1056600009B143F0040343F008039910013B917220
:105670000D2B0BD8DFE803F01E0719070A141E1EB6
:10568000140A0719071ED368013BD36010BC70478A
:10569000937A03F003030029E7D043F00403E4E71F
:1056A000D36810BC023BD3607047D36810BC023390
:1056B000D3607047D36810BC0133D360704700BF1C
:1056C0001495FF1F1F4B10B45A681368506819785F
:1056D0000478507A137A044201EA03011AD0937ACB
:1056E00003F0030309B143F0040343F008039910E6
:1056F000013B91720D2B0BD8DFE803F01E07190751
:105700000A141E1E140A0719071ED368013BD36032
:1057100010BC7047937A03F003030029E7D043F0ED
:105720000403E4E7D36810BC023BD3607047D3683E
:1057300010BC0233D3607047D36810BC0133D36010
:10574000704700BF1495FF1F1F4B10B49A68136871
:10575000506819780478507A137A044201EA0301F8
:105760001AD0937A03F0030309B143F0040343F022
:1057700008039910013B91720D2B0BD8DFE803F061
:105780001E0719070A141E1E140A0719071ED368DC
:10579000013BD36010BC7047937A03F003030029E8
:1057A000E7D043F00403E4E7D36810BC023BD360C6
:1057B0007047D36810BC0233D3607047D36810BC05
:1057C0000133D360704700BF1495FF1F1F4B10B407
:1057D000DA681368506819780478507A137A0442AA
:1057E00001EA03011AD0937A03F0030309B143F0ED
:1057F000040343F008039910013B91720D2B0BD861
:10580000DFE803F01E0719070A141E1E140A071901
:10581000071ED368013BD36010BC7047937A03F036
:1058200003030029E7D043F00403E4E7D36810BC86
:10583000023BD3607047D36810BC0233D36070471B
:10584000D36810BC0133D360704700BF1495FF1FAD
:105850001F4B10B41A691368506819780478507A8D
:10586000137A044201EA03011AD0937A03F0030386
:1058700009B143F0040343F008039910013B91720E
:105880000D2B0BD8DFE803F01E0719070A141E1EA4
:10589000140A0719071ED368013BD36010BC704778
:1058A000937A03F003030029E7D043F00403E4E70D
:1058B000D36810BC023BD3607047D36810BC02337E
:1058C000D3607047D36810BC0133D360704700BF0A
:1058D0001495FF1F1F4B10B45A691368506819784C
:1058E0000478507A137A044201EA03011AD0937AB9
:1058F00003F0030309B143F0040343F008039910D4
:10590000013B91720D2B0BD8DFE803F01E0719073E
:105910000A141E1E140A0719071ED368013BD36020
:1059200010BC7047937A03F003030029E7D043F0DB
:105930000403E4E7D36810BC023BD3607047D3682C
:1059400010BC0233D3607047D36810BC0133D360FE
:10595000704700BF1495FF1F1F4B10B49A6913685E
:10596000506819780478507A137A044201EA0301E6
:105970001AD0937A03F0030309B143F0040343F010
:1059800008039910013B91720D2B0BD8DFE803F04F
:105990001E0719070A141E1E140A0719071ED368CA
:1059A000013BD36010BC7047937A03F003030029D6
:1059B000E7D043F00403E4E7D36810BC023BD360B4
:1059C0007047D36810BC0233D3607047D36810BCF3
:1059D0000133D360704700BF1495FF1F1F4B10B4F5
:1059E000DA691368506819780478507A137A044297
:1059F00001EA03011AD0937A03F0030309B143F0DB
:105A0000040343F008039910013B91720D2B0BD84E
:105A1000DFE803F01E0719070A141E1E140A0719EF
:105A2000071ED368013BD36010BC7047937A03F024
:105A300003030029E7D043F00403E4E7D36810BC74
:105A4000023BD3607047D36810BC0233D360704709
:105A5000D36810BC0133D360704700BF1495FF1F9B
:105A60001F4B10B41A6A1368506819780478507A7A
:105A7000137A044201EA03011AD0937A03F0030374
:105A800009B143F0040343F008039910013B9172FC
:105A90000D2B0BD8DFE803F01E0719070A141E1E92
:105AA000140A0719071ED368013BD36010BC704766
:105AB000937A03F003030029E7D043F00403E4E7FB
:105AC000D36810BC023BD3607047D36810BC02336C
:105AD000D3607047D36810BC0133D360704700BFF8
