:1000000000800020BD01000071CE000029CE00005C
:1000100029CE000029CE000029CE000029CE000004
:1000200029CE000029CE000029CE000071CE0000AC
:1000300071CE000029CE000081E7000085E80000B5
:1000400071CE000071CE000071CE000071CE0000B4
:1000500071CE000071CE000071CE000071CE0000A4
:1000600071CE000071CE000071CE000071CE000094
:1000700071CE000071CE000071CE000071CE000084
:1000800071CE000071CE000071CE000071CE000074
:1000900071CE000071CE000071CE000071CE000064
:1000A000916D01009D6D010071CE000071CE0000C8
:1000B00071CE000071CE000071CE000071CE000044
:1000C00071CE000071CE000071CE000071CE000034
:1000D00071CE000071CE000071CE000071CE000024
:1000E00071CE000071CE000071CE000071CE000014
:1000F00071CE0000DDE9000071CE000009EB0000C8
:1001000071CE000035EC000071CE000071CE000011
:1001100071CE000071CE000071CE000071CE0000E3
:1001200071CE000071CE000071CE000071CE0000D3
:1001300071CE000071CE000071CE000071CE0000C3
:1001400071CE000071CE000071CE000071CE0000B3
:1001500071CE000071CE000071CE000071CE0000A3
:1001600071CE0000E1D6000071CE000071CE00001B
:1001700071CE000071CE000071CE000071CE000083
:1001800071CE000071CE000071CE000071CE000073
:1001900071CE000071CE000071CE000071CE000063
:1001A00071CE000071CE000071CE000071CE000053
:1001B00071CE000071CE000071CE0000564B4CF2A3
:1001C000205210B51A804DF628121A8000BF00BFC9
:1001D0000CF052FE514B4FF010621A60504A9A6078
:1001E000504ADA60504A136813F4807304D14F49BF
:1001F0000B604FF4A85313604D4B1A78110703D5C9
:100200001A7842F008021A704A4B4B492A221A7097
:100210004A4A4B4B8B4204D252F8040F43F8040B6A
:10022000F8E7484B484900228B4202D243F8042B9E
:10023000FAE74649464A002352F8230041F82300D2
:1002400001336F2BF8D1434B434A802103F8011B44
:100250009342FBD1414B3D4A1A60414B8A221A70AE
:10026000A3F5805324225A70A0221A709A7992071B
:10027000FCD59A79D406FCD43A4A937903F00C035E
:10028000082B384BF9D105221A7143225A719A79F9
:100290009006FCD5334A9179324B4906FBD5324A58
:1002A0004FF0817111600521516020221A709A79F6
:1002B00002F00C020C2AFAD12C4B2D4A1A602D4B5D
:1002C0002D4A1A6000225A60072243F8042C2B4A58
:1002D000C3F80C2D62B60DF0B9F8144B1B68DA07A1
:1002E00005D527480CF046FF264B274A1A60274BB6
:1002F0001B785B0609D5234C234B22689A4204D114
:100300001F480CF037FF0023236019F077F90CF039
:10031000B9FD0CF0E7FCFEE70E20054030800440FC
:10032000823F04000100002B10D0034014D0034092
:1003300002D0074000E007403894FF1FB0130200CE
:100340002087FF1F3894FF1F6899FF1F0082FF1F3F
:100350000000000000E400E05FE400E008ED00E0E1
:1003600000500640004006404480044004800440A1
:10037000C010050014E000E03F190100000020203B
:10038000A75F035E1CE00340A5C3945A00F007403A
:10039000FFFFFFFFFFFFFFFFFFFFFFFFFFFFFFFF6D
:1003A000FFFFFFFFFFFFFFFFFFFFFFFFFFFFFFFF5D
:1003B000FFFFFFFFFFFFFFFFFFFFFFFFFFFFFFFF4D
:1003C000FFFFFFFFFFFFFFFFFFFFFFFFFFFFFFFF3D
:1003D000FFFFFFFFFFFFFFFFFFFFFFFFFFFFFFFF2D
:1003E000FFFFFFFFFFFFFFFFFFFFFFFFFFFFFFFF1D
:1003F000FFFFFFFFFFFFFFFFFFFFFFFFFFFFFFFF0D
:10040000FFFFFFFFFFFFFFFFFFFFFFFFDEF9FFFF23
:1004100010B5054C237833B9044B13B10448AFF33E
:1004200000800123237010BD3894FF1F00000000DE
:10043000E40F0200084B10B51BB108490848AFF3A0
:1004400000800848036803B910BD074B002BFBD0A0
:10045000BDE81040184700BF000000003C94FF1F9B
:10046000E40F02003894FF1F0000000030B4074979
:1004700082B009680191DDE90445C0E91223019BBE
:100480004360C0E9144502B030BC70479C95FF1F23
:10049000836B10B50446186803685B689847A36BC4
:1004A000586803685B689847A36B986803685B6843
:1004B0009847A36BD8680368BDE810405B6818478D
:1004C0002DE9F04F824B87B01B6805938246059853
:1004D000DAF80430C01A16F0FDFE7BA3D3E900233E
:1004E00017F0EAF9002800F09D80DAE91A67DAE9E6
:1004F000120132463B4617F08DF8002204460D46A5
:10050000744BDAE9160116F05BFF0022804689463B
:10051000704BDAE9180116F053FF02460B464046CD
:10052000494616F09BFDDAE9142316F049FF3246DE
:100530003B4617F06FF802460B4606460F4620462C
:10054000294616F089FD32468046894620462946CE
:100550003B4616F083FD04460D46DAF83820DAF8FB
:100560003C309B1A9B10042B61D0CDE900454646D8
:100570004F46DDE900234046494616F06FFD3246FE
:100580003B4616F06BFDDAE91ABC22462B46CDE954
:1005900002BC16F063FDDDE9022316F011FF002214
:1005A0004D4B16F00DFF4FF0000B4FF0000CCAE959
:1005B0000ABCCAE9080142464B46DDE9000116F0D3
:1005C0004BFD32463B4616F047FD22462B4616F0C1
:1005D00045FD0022404B16F0F3FEDDE9022316F044
:1005E000EFFE002204460D463A4BDAE9160116F0FA
:1005F000E7FE002206460F46364BDAE9180116F0F0
:10060000DFFE02460B463046394616F027FD02460D
:100610000B462046294616F0FDFFCAE90C0107B03B
:10062000BDE8F08F00240025A046A94695E7106894
:1006300030B10368424619684B468847DAF83820DB
:10064000506830B10368224619682B468847DAF8AB
:100650003820906830B10368424619684B46884795
:10066000DAF83820D06830B10368224619682B4682
:100670008847DAF83820DAF83C309B1A9B10042BB4
:100680007FF473AF1368D3B1D3E9040153689BB10E
:10069000D3E90467CDE90067936853B1D3E90467F0
:1006A000D36880468946002B3FF463AFD3E9044505
:1006B0005FE746464F46F3E7CDE90045ECE74046A5
:1006C0004946E3E7AFF30080000000000070974068
:1006D0009C95FF1F0000E03F0000D03F2DE9F04D4A
:1006E000DDE90845DDE90A6780469B46924608F049
:1006F000B1F8064BC8F80030C8E916ABC8E9184590
:10070000C8E91A674046BDE8F08D00BFA4E40100C7
:1007100043680B7043681B0A4B70C3888B70C379A6
:10072000CB7083680B7183681B0A4B7143898B7193
:10073000C37ACB71082070470B7843604A7843EA4C
:10074000022343608A7843EA02434360CA7843EA5B
:10075000026343600B7983604A7943EA0223836032
:100760008A7943EA02438360CA7943EA0263836079
:1007700008207047004870471CE50100004870479A
:100780002CE50100F0B50C460A788280064614F884
:10079000010F002342EA0022B2801A4614F8010F2A
:1007A00098400833202B42EA0002F7D1971D062F0C
:1007B00058D901F1050E551D73464C1913F8010F58
:1007C00003F8010CA342F9D100234B5518460D4400
:1007D000C6F808E015F8014F84400830202843EAA5
:1007E0000403F7D1381D0344834209D909320A446E
:1007F0000446013412F8015F02F8015CA342F8D804
:100800000138CF180024084407F8014C2246F06054
:1008100017F8015B95400832202A44EA0504F7D115
:10082000181D0444A04209D203330B44024601328E
:1008300013F8015F03F8015CA242F8D30D190138E7
:100840000844002305F8013C3061A8786B780A5D04
:10085000ED78010441EA0323134343EA0563201DB5
:100860007361F0BD551D01F1050EADE700487047FD
:1008700050E50100004870476CE501000B78F0B4CA
:100880000371002306460C461D4614F8012F9A40BA
:100890000833202B45EA0205F7D1681D052801F130
:1008A000040708D92C1D3B460C4413F8012F03F80C
:1008B000012C9C42F9D10D4400232B71B760F0BC90
:1008C000704700BF0048704790E50100004870473E
:1008D000A4E501000023F0B406464C1E1D4614F8A2
:1008E000012F9A400833202B45EA0205F7D1281D35
:1008F000042801F1030708D9EC1C3B460C4413F80B
:10090000012F03F8012C9C42F9D10D440023EB7018
:100910007760F0BC704700BF00487047E4E6010014
:1009200000487047C8E5010070B5064640680D46AE
:100930001AF086F96A1E0446002324FA03F10833EC
:10094000202B02F8011FF8D17168281D22460CF0F7
:10095000D1F9201D70BD00BF70B503790B7006463C
:1009600080680D461AF06CF92A460446002324FAE2
:1009700003F10833202B02F8011FF8D1B168681D7C
:1009800022460CF0B7F9601D70BD00BFF8B5838832
:100990000B7083881B0A4B70064680680D461AF060
:1009A0004FF9030E010A020C6B71A8702A71E970ED
:1009B00002460446B168A81D0CF09CF9F0681AF0D4
:1009C0003FF9611D024629440634002322FA03F050
:1009D0000833202B01F8010FF8D104342819F168ED
:1009E00014440CF087F930691AF02AF92A190746DD
:1009F000002327FA03F10833202B02F8011BF8D15A
:100A0000043428193A4631690CF074F938197369BD
:100A10002B540544190A1A0C1B0E6970AA70EB704E
:100A20000430F8BD08460DF06FBD00BF0DF082BC6C
:100A30002DE9F041632984B003DD90F8F874002FAC
:100A400053D0136805460F4610461B6805F2232154
:100A50009847C2B2C0F30721561885F81E2247F303
:100A60000722F643FF234FF0FE0EFCB285F8222248
:100A7000421C85F8206285F81F1285F81C3285F823
:100A80001DE285F821420DDB00F22221294405F206
:100A90002123002201E013F8014F99422244FAD1A8
:100AA000D343DBB22A1800F10807B7F5007F82F8BC
:100AB00023321EDC002F05F5077616DD0730DFF840
:100AC0005C80064405F21B2403E00DF01DFDB442DA
:100AD0000BD06A6814F8011F13681B684345084669
:100AE000F3D010469847B442F3D1384604B0BDE87D
:100AF000F08108490191084A2B68039203218DF87F
:100B000008101B68284601AA072198474FF0FF30BC
:100B1000ECE700BFE8E40100ECE50100250A000075
:100B200038B504460D4609F087FF2046034B40F8D0
:100B30001C3B29460CF078F8204638BD18E501002A
:100B40002DE9F04FA3B00F46BE4C016814941597E1
:100B50000D680493BC4B2C9C039200269D42824658
:100B600080F8086540F0568338461AF069F8334635
:100B700005460AF2222225FA03F10833202B02F857
:100B8000011FF8D139462E1D2A460AF227200CF003
:100B9000B1F8F1B2C6F307200A18D243FF238AF84E
:100BA0001E12FE278AF8202206218AF81F02002240
:100BB000701C8AF81C328AF81D728AF821128AF891
:100BC0002222C0F2258505F2262050440AF2212374
:100BD00001E013F8011F98420A44FAD1D243D2B27D
:100BE0000AEB06030836B6F5007F83F8232200F3EC
:100BF000AB84002E0AF5077716DD0B352F44934E94
:100C00000AF21B2503E00DF07FFCAF420CD0DAF8AE
:100C1000042015F8011F13681B68B3420846F2D080
:100C200010469847AF42F2D1DFF834B2DFF8348291
:100C3000DBF800300A930A9BE31801939AF8083511
:100C400000931946002B40F04B82DAF80030804ABE
:100C50005B68934240F03182DBF800300C93DDF8A2
:100C60003090DAF8003542F6F822C3EB09039342DC
:100C700084BF0B468AF8F834DAF8E43433B1DAF892
:100C80000435994502D90023CAF8E434DAF818206B
:100C90003AB1DBF800301093109BC9EB03039A4282
:100CA00026D3DAF8040003685B69434540F0DC8032
:100CB0000DF040FB0028C0F2DB80DAF8F434DAF8FB
:100CC000E4240344072ACAF8F43400F03B81002AE4
:100CD0007ED1FF2800F0AE81DBF800300F930F9B30
:100CE00041F28831C9EB03038B42CFD98AF8F8244B
:100CF000DBF800300993099B019A9A429ED2554A2B
:100D00001C92554CDAF800301E9402228DF87420A3
:100D10001B684D49DDF800908B4240F08382002330
:100D200024218AF8232204F120078AF824128AF861
:100D300025328AF826328AF827320AF50A752646BD
:100D40000FCEBE4228606960AA60EB60344605F1B0
:100D50001005F4D13068286000222920D623FF2511
:100D6000FE2407218AF81E028AF820328AF81C52D3
:100D70008AF81D428AF81F228AF822228AF8211254
:100D80000AF221230AF24B2001E013F8011F9842D6
:100D90000A44FAD1D2432D4E8AF84C220AF21B247F
:100DA0000AF5137503E00DF0AFFBAC420CD0DAF896
:100DB000042014F8011F13681B68B3420846F2D0E0
:100DC00010469847AC42F2D1484623B0BDE8F08FB8
:100DD000012A00F0CB80022A00F03481032A00F0BF
:100DE0003C81042A00F04381052A00F04F81062A45
:100DF00000F05481082A7FF449AF184A1A400023B2
:100E00009A42CAF8E434C0F2DB81FF2A7FF43EAF95
:100E1000DAF8EC34002B00F029830A2B00F00A8268
:100E2000062B00F03F820B2B00F0F881BC335AF800
:100E3000230000283FF42AAF03680AF11C011B6855
:100E4000984723E700E50100310A0000250A000069
:100E5000E5220000E8E4010028E60100FF00008030
:100E60009C95FF1F2D0A000098470028BFF625AF6C
:100E70009AF8F834002B3FF43BAFDAF8FC3440F634
:100E8000C412C3EB090393427FF632AFCF4ADAF8BC
:100E900000301C921B68CE4900228B421D921E928C
:100EA00040F0B381FF210820F723FE248AF81C12AA
:100EB0000A218AF81E028AF820328AF823228AF848
:100EC00024228AF825228AF826228AF827228AF8FC
:100ED00028228AF829228AF82A228AF81F228AF8E8
:100EE00022228AF81D428AF821120AF221230AF2EC
:100EF0002A2001E013F8011F98420A44FAD1D24394
:100F0000B44C8AF82B220AF21B260AF22B2503E0A6
:100F10000DF0FAFAAE420CD0DAF8042016F8011FF0
:100F200013681B68A3420846F2D010469847AE42A9
:100F3000F2D1DBF800300B930B9BCAF8FC94CAF893
:100F40000C30D5E6DAF8F0340AEB03020133CAF8C4
:100F5000F0341077DAF8E834013BCAF8E834002BB3
:100F60007FF494AE0823CAF8E4348FE6FE2800F03C
:100F700089809AF8F8240023CAF8E434002A7FF420
:100F800085AE9249DAF800301C911B6890491D9299
:100F90008B421E9240F09980FF210820F723FE2407
:100FA0008AF81C120A218AF81E028AF820328AF86E
:100FB00023228AF824228AF825228AF826228AF80F
:100FC00027228AF828228AF829228AF82A228AF8EF
:100FD0001F228AF822228AF81D428AF821120AF278
:100FE00021230AF22A2001E013F8011F98420A4443
:100FF000FAD1D243774D8AF82B220AF21B240AF247
:101000002B2603E00DF080FAA6420CD0DAF804207B
:1010100014F8011F13681B68AB420846F2D0104653
:101020009847A642F2D1DBF800300E930E9BCAF827
:101030000C302BE6012209F11403CAF8E424CAF8A3
:10104000043523E600220323CAF8E804CAF8F404AE
:10105000CAF8F024CAF8E43418E6DAF8E83403EB06
:1010600000200423CAF8E804CAF8E4340EE65A4A19
:101070001A40002A24DBFF2A7FF405AE0523CAF8B4
:10108000E43403E60223CAF8E434FFE50623CAF891
:10109000EC04CAF8F404CAF8E434F7E5DAF8EC34FE
:1010A000DAF8E82403EB00230721CAF8EC34CAF885
:1010B000E414002A3FF456AFE8E55046984717E697
:1010C000013A62F0FF020132D5E71CAA0A2150461C
:1010D0009847DBF800300E930E9BCAF80C30D5E52C
:1010E000DAF81C350499DDF800908B427AD03B4A3F
:1010F0001C923B4CDAF800301E9402228DF87420CA
:101100001B6833498B4240F0AC81002324218AF8CC
:10111000232204F120078AF824128AF825328AF85B
:1011200026328AF827320AF50A7526460FCEBE42C5
:1011300028606960AA60EB60344605F11005F4D1BF
:101140003068286000222920D623FF25FE240721AD
:101150008AF81E028AF820328AF81C528AF81D4248
:101160008AF81F228AF822228AF821120AF2212301
:101170000AF24B2001E013F8011F98420A44FAD109
:10118000D243144E8AF84C220AF21B240AF5137536
:1011900003E00DF0B9F9AC420CD0DAF8042014F8F1
:1011A000011F13681B68B3420846F2D010469847E7
:1011B000AC42F2D14FF00009484623B0BDE8F08FB1
:1011C000013A62F0FF0201321FE600BFB8E40100FD
:1011D000310A0000250A0000FF000080E8E4010059
:1011E00050E6010000297FF7EFADDAF82435039AC5
:1011F00003EB8100043A53F8041B42F8041F9842A1
:10120000F9D1484623B0BDE8F08F1CAA0A21504608
:1012100098478EE614AA0621A84705E500238AF818
:10122000F83433E550461CAA07219847484623B0B6
:10123000BDE8F08FDBF800301193119BDAF80C2039
:10124000DAF82060BA4CDBF8001013919B1AB94A07
:10125000139DDAF81C10A2FB0302344492094FF4E8
:101260007A70B54E00FB123306FB0343B14CA4FB6E
:101270000564A40900FB14500139AF4D0A445146DE
:1012800005FB1033121BCAF810200AF1100041F8B8
:10129000143F07F02FFADBF800301293129BCAF8C4
:1012A0000035F3E4DAF81C50DAF810359D420AF103
:1012B0001C0406D9A900DAF8180518F073FECAF85C
:1012C0001805CAF81055002D00F021810AF21456B5
:1012D000204604230025827947790179120442EAE5
:1012E0000722C7790A4342EA0762CAF81425DAF8E6
:1012F0001825316842F82510DAF810250135AA4280
:10130000194600F1040003F10403E4D8059301F148
:101310000B0301F10806029301F10C03354601F1BC
:10132000050E01F1060CC81D01F1090701F10A02C1
:10133000069314F80C10059B14F80EE014F803C083
:10134000235CDAF81C05090441EA0E2141EA0C0C81
:101350004CEA036383420AD99900DAF8240507921C
:10136000059318F01FFE079A059BCAF82405CAF8D2
:101370001C35002B00F01B840AF5A46661190020BF
:101380008B784F780A781B0443EA0723CF781343FE
:1013900043EA0763CAF82035DAF82435326843F89F
:1013A0002020DAF81C25013082422B4601F104018D
:1013B00005F10405E4D8D91D2E465F1D9A1D029142
:1013C00003F10805A15CE05D029AA35DA65CDAF872
:1013D0002825090441EA00210B4343EA06669642A8
:1013E00006D9B100DAF8300518F0DCFDCAF830058E
:1013F000CAF828658EB3002007460AF22C5600234F
:10140000194604EB050E1EF8012B9A400833202BD9
:1014100041EA0201F7D105F1040E71448E4509D26B
:10142000EB1C23447246013213F8015F03F8015CA0
:101430008A42F8D363180EF1FF3203F8017C22448C
:10144000DAF83035CAF82C25326843F82020DAF86B
:101450002835013083420D46D1D801238AF808355A
:1014600014E450461CAA07219847A3E6DAF80010B6
:1014700032481C900C6832491D938C421E9340F0F8
:10148000CA800820F721FE248AF81C220A228AF842
:101490001E028AF820128AF823328AF824328AF847
:1014A00025328AF826328AF827328AF828328AF8D2
:1014B00029328AF82A328AF81F328AF822328AF8C8
:1014C0001D428AF821220AF221210AF22A2001E093
:1014D00011F8012F88421344FAD1DB43194C8AF8E2
:1014E0002B320AF21B260AF22B2504E00DF00CF831
:1014F000B54200F09480DAF8042016F8011F136852
:101500001B68A3420846F1D010469847F0E70C2329
:1015100006930B2308260293042335460A22092743
:1015200007204FF0060C4FF0050E059301E700BFB2
:1015300000CA9A3BD34D621040420F00B8E401004C
:10154000310A0000250A0000A04A1C92A04DDAF8DA
:1015500000301E9503228DF874201B689D498B4234
:1015600040F02783002338218AF8232205F1300E2A
:101570008AF824128AF825328AF826328AF8273225
:101580000AF50A772E460FCE764538607960BA6044
:10159000FB60354607F11007F4D103CDFF22386018
:1015A00079603D200023C221FE258AF81C220722F3
:1015B0008AF81E028AF820128AF81D528AF81F3211
:1015C0008AF822328AF821220AF221210AF25F20C7
:1015D00001E011F8012F88421344FAD1DB437E4E1B
:1015E0008AF860320AF21B250AF5187704E00CF03D
:1015F0008BFFBD423FF418ABDAF8042015F8011F49
:1016000013681B68B3420846F1D010469847F0E7CC
:101610001A46FFF7E5BA1CAA0A215046A047DBF894
:1016200000300D930D9A6D4BCAF80C2000226C49C6
:10163000ADF8742021921E931F9320930AF27C42EE
:101640000AF58363CDF814901C910292994659F8DB
:10165000043F002B00F0D88058681C6801689A6825
:101660001E948B68ADF874209847D9F800301F900D
:1016700058680368DB689847DAF80030D9F800103A
:1016800020904FF400721B680C692192514A9342DA
:10169000074640F0AC81632C04DD9AF8F834002B47
:1016A00000F0B280BDF874301E9D8AF823321B0A08
:1016B0008AF82432284619F0C3FA0646330E320C53
:1016C000000A29468AF828328AF825628AF8260212
:1016D0008AF827220AF2292032460BF00BFB1F99C9
:1016E0000691084619F0ACFA0AF22325024606993B
:1016F000701D28440636002322FA03FE0833202BEF
:1017000000F801EFF8D10436A81916440BF0F2FAEC
:10171000384619F095FAA9190346002223FA02F077
:101720000832202A01F8010BF8D1043639461A464E
:10173000A81906930BF0DEFA069B9919081DC0F351
:1017400007275FFA80FE6A180EEB07030026DB43CB
:101750004FF0020C6E5482F801C09670D6704FF0B4
:10176000FE0CE2B28AF8203244F307248AF81F7292
:101770004FF0FF33471C8AF81EE28AF81C328AF8C1
:101780001DC28AF821228AF82242C0F2F78101F2B2
:10179000262454440AF2212301E013F8012F9C422D
:1017A0001644FAD1F343DBB20AEB00020830B0F57D
:1017B000007F82F8233200F37F8100280AF5077446
:1017C00022DD0B310C440AF21B250FE0E8E4010096
:1017D000ECE50100310A0000250A00003C0002008F
:1017E000D0E401000CF090FEAC420DD0DAF80420F9
:1017F000CA48136815F8011F1B6883420846F1D0D8
:1018000010469847AC42F1D1029B99457FF41FAF37
:10181000DDF81490CDF818900AF59C63DDF8089077
:10182000059359F8040F002800F0D28081680368FE
:1018300042681E91ADF874209B689847D9F8003033
:101840001F901A681846D3689847D9F80030DAF81C
:10185000001020901A680D6852684FF40071184605
:1018600021919047AE4B9D42044640F0C5806328CD
:1018700004DD9AF8F834002B00F0AA80BDF874302B
:101880001E9D8AF823321B0A8AF82432284619F052
:10189000D7F90646330E320C000A29468AF8283258
:1018A0008AF825628AF826028AF827220AF2292075
:1018B00032460BF01FFA1F990291084619F0C0F941
:1018C0000AF22325721D0299074606362A44002390
:1018D00027FA03F00833202B02F8010FF8D1043661
:1018E0003A46A8190BF006FA20990291084619F019
:1018F000A7F93E4402990746AA19002327FA03F0E4
:101900000833202B02F8010BF8D104363A46A81907
:101910000BF0F0F9BA19111D5FFA81FEC1F3072728
:101920002198A8540EEB0703AE18DB434FEA104C86
:101930000293030A000EF070E0B244F307247370C0
:1019400086F802C0FF234FF0FE0C9DF808608AF86D
:1019500022424C1C8AF820628AF81EE28AF81F7222
:101960008AF81C328AF81DC28AF821020DDB02F2C5
:10197000262656440AF22123002401E013F8010F21
:101980009E420444FAD1E343DBB20AEB0100083182
:10199000B1F5007F80F8233233DC00290AF50775A2
:1019A00016DD0B3215440AF21B2603E00CF0ACFDE9
:1019B000AE420DD0DAF804205848136816F8011F1B
:1019C0001B6883420846F1D010469847AE42F1D1D9
:1019D000059B99457FF425AFDDF81890CAF8FC9473
:1019E0000123CAF800958AF8F834FFF781B9214637
:1019F0001CAA5046984707E701461CAA5046A8472C
:101A0000E6E7484916910322DAF8003046498DF896
:101A10005C2018911B68424A934240F0B1802946ED
:101A200016A8FEF799FFC1B2C0F307240A19D243E2
:101A3000FF238AF81E12FE258AF8202207218AF841
:101A40001F42421C4FF000048AF81C328AF81D52D3
:101A50008AF821128AF822420DDB00F22222234664
:101A600052440AF2212401E014F8011FA2420B445F
:101A7000FAD1DB43DBB20AEB000200F10801B1F559
:101A8000007F82F8233200F3838000290AF507746F
:101A90009EDDC31D1C440AF21B25DAF804201F48F2
:101AA000136815F8011F1B68834208466DD10CF0BE
:101AB0002BFDA542F1D18BE71A4916910322DAF8E2
:101AC000003019498DF85C2018911B68144A934224
:101AD00075D1294616A8FEF73FFFC1B2C0F307240F
:101AE0000A19FE25D243FF238AF81E128AF81F42E4
:101AF000072100248AF81D52451C8AF820228AF802
:101B00001C328AF821128AF8224216DB00F22222C5
:101B1000234652440AF221240AE000BF250A0000AD
:101B2000310A0000E8E40100ECE5010014F8011FAF
:101B3000A2420B44FAD1DB43DBB20AEB000200F114
:101B40000801B1F5007F82F8233240DC00290AF554
:101B500007747FF759AE073004440AF21B25DAF800
:101B600004202248136815F8011F1B6883420846A9
:101B70002AD10CF0C9FCA542F1D145E6FF2313E6BA
:101B800016AA07215046984722E71046984790E743
:101B9000174919910322DAF8003016491B918DF884
:101BA00068201B6819AA07215046984710E7069D30
:101BB00008E41CAA072150469847FFF735B816AA33
:101BC0000721504698471FE610469847D3E7084933
:101BD00019910322DAF8003006491B918DF868202C
:101BE0001B6819AA0721504698470DE6250A0000F0
:101BF000E8E40100ECE501002DE9F041DFF8348173
:101C000086B004460D4604F11C07414602A80AF0BE
:101C1000F7FF394602A80BF04FF840490BF054F893
:101C20004FF47A76221D0123016800962846FEF7BC
:101C300087FF02A80AF0A4FF414602A80AF0E0FFCD
:101C4000394602A80BF038F835490BF03DF804F19D
:101C500008020123016800962846FEF771FF02A8DA
:101C60000AF08EFF414602A80AF0CAFF394602A8D0
:101C70000BF022F82B490BF027F804F10C0201239A
:101C8000016800962846FEF75BFF02A80AF078FF7D
:101C9000414602A80AF0B4FF394602A80BF00CF83E
:101CA00021490BF011F804F110020123016800969C
:101CB0002846FEF745FF02A80AF062FF414602A847
:101CC0000AF09EFF394602A80AF0F6FF17490AF00B
:101CD000FBFF04F118020123016800962846FEF775
:101CE0002FFF02A80AF04CFF414602A80AF088FF25
:101CF000394602A80AF0E0FF0D490AF0E5FF04F1B9
:101D000014020168009601232846FEF719FF02A875
:101D10000AF036FF06B0BDE8F08100BF7CE60100A6
:101D200098E60100B4E60100CCE60100D4E601002B
:101D3000DCE6010078E601002DE9F04F8DB0D04AD5
:101D4000D04B06920022044600F5836600F27C45E3
:101D5000ADF81C200B92089309930A9356F8043FA0
:101D6000002B00F0D28058681F6801689A680897B5
:101D70008B68ADF81C209847336809905868036851
:101D8000DB689847236831680A904FF400721B683B
:101D9000D1F810800B92BC4A9342824640F0B58144
:101DA000B8F1630F04DD94F8F834002B00F0AD8037
:101DB000BDF81C30DDF8209084F823321B0A84F82B
:101DC0002432484618F03CFF07463B0E3A0C000A06
:101DD000494684F8283284F8257284F8260284F86B
:101DE000272204F229203A460AF084FFDDF824B0C5
:101DF000584618F025FF04F22329791D02460637BC
:101E00004944002322FA03F00833202B01F8010F84
:101E1000F8D10437594609EB070017440AF06AFF66
:101E2000504618F00DFF09EB0702834600232BFAFA
:101E300003F10833202B02F8011BF8D10437514677
:101E400009EB07005A460AF055FF0BEB070E0EF19F
:101E500004075FFA87FAC7F3072C09EB0E010AEBB8
:101E60000C000022C0434FF0020B09F80E20FF23A4
:101E70008A70CA7081F801B04FF0FE095FFA88F1EC
:101E800084F8200248F30728781C84F81EA284F8FE
:101E90001FC284F81C3284F81D9284F8211284F841
:101EA0002282C0F20A820EF22620204404F221236C
:101EB00001E013F8011F98420A44FAD1D243D2B28A
:101EC000E11907F10803B3F5007F81F8232200F33D
:101ED0002481002B04F5077717DD0EF10B0EDFF8D8
:101EE000AC91774404F21B2803E00CF00DFB47454E
:101EF0000BD0626818F8011F13681B684B45084631
:101F0000F3D0104698474745F3D1B5427FF426AF4A
:101F1000DFF8749104F59C6855F8040F002800F070
:101F2000E3808168036842680891ADF81C209B68D3
:101F300098472B6809901A681846D36898472B6809
:101F400021680A901A680E6852684FF400711846AA
:101F50000B9190474E45074640F0CF80632804DD43
:101F600094F8F834002B00F0BF80BDF81C30089EB8
:101F700084F823321B0A84F82432304618F060FEBD
:101F800082464FEA1A634FEA1A42000A314684F841
:101F9000283284F825A284F8260284F8272204F245
:101FA000292052460AF0A6FE09990191084618F028
:101FB00047FE04F223260AF10502019983460AF13D
:101FC000060A324400232BFA03F00833202B02F8D0
:101FD000010FF8D10AF1040A5A4606EB0A000AF08A
:101FE00089FE0A990191084618F02AFED344019906
:101FF000824606EB0B0200232AFA03F00833202B5B
:1020000002F8010BF8D10BF1040B06EB0B00524662
:102010000AF070FE0AEB0B020B9BB354111D164421
:102020005FFA81FCC1F3072E4FEA132B4FEA134AE4
:102030000CEB0E001B0E86F801B086F802A0F370C0
:10204000C043FEB24FF0FF0B4FF0FE0A47F30727E5
:102050004B1C84F8200284F81EC284F81FE284F826
:102060001CB284F81DA284F8216284F8227218DB65
:1020700002F22627274404F2212300200AE000BFB1
:10208000D0E401003C000200310A0000250A0000F3
:1020900013F8016FBB423044FAD16FEA000B5FFACC
:1020A0008BFB63180831B1F5007F83F823B200F38E
:1020B000A080002904F5077716DD0B32DFF820A297
:1020C000174404F21B2603E00CF01EFABE420BD0AC
:1020D000626816F8011F13681B6853450846F3D061
:1020E00010469847BE42F3D1A8457FF415AF0123AF
:1020F00084F8F8340DB0BDE8F08F014606AA2046FA
:10210000B047A8457FF408AFF1E7414606AA20464C
:102110009847B5427FF422AEFAE66E490391032256
:102120006D49236805918DF810201B686B498B421F
:1021300040F0CA80684F84F823220023382207F138
:10214000300884F8242284F8253284F8263284F872
:10215000273204F50A7EBC46BCE80F00C445CEF821
:102160000000CEF80410CEF80820CEF80C306746F8
:102170000EF1100EEFD103CF0022CEF80000CEF802
:1021800004103D20C2234FF0FF0CFE27072184F8E6
:102190001E0284F8203284F81CC284F81D7284F870
:1021A0001F2284F8222284F8211204F2212304F24F
:1021B0005F2001E013F8011F98420A44FAD1D2438C
:1021C000DFF81C9184F8602204F21B2704F51878CC
:1021D00004E00CF099F947453FF497AE626817F8B0
:1021E000011F13681B684B450846F2D010469847FC
:1021F000F1E73849039103222368374905918DF8A7
:1022000010201B684B455AD1002384F82322382222
:102210000E4601F1300C84F8242284F8253284F82B
:10222000263284F8273204F50A77B646BEE80F0056
:10223000E64538607960BA60FB60764607F11007C2
:10224000F3D103CE0022386079603D20C2234FF0E5
:10225000FF0EFE26072184F81E0284F8203284F83F
:102260001CE284F81D6284F81F2284F8222284F87C
:10227000211204F2212304F25F2001E013F8011F70
:1022800098420A44FAD1D243DFF854A084F860227D
:1022900004F21B2604F5187704E00CF035F9BE4271
:1022A0003FF422AF626816F8011F13681B6853459C
:1022B0000846F2D010469847F1E71A4600E603AA0E
:1022C0000721204698470FE703AA07212046984791
:1022D0001BE600BFE8E40100ECE50100310A000064
:1022E000250A00002DE9F04FC74E93B033680693DE
:1022F000069DD0F8003542F6F822EB1A934284BFCF
:10230000002380F8F834D0F8E434044633B1D0F830
:102310000435AB423CBF0023C0F8E434BB4FDFF8C8
:10232000FCB2A26932B133680793079B5B1B9A42E8
:10233000C0F02481606803685B69BB4266D10BF022
:10234000F9FF002865DBD4F8F434D4F8E42403441E
:10235000072AC4F8F43447D082B9FF2869D033681B
:102360000893089B41F288315B1B8B42D9D984F8D2
:10237000F8246FF0010013B0BDE8F08F012A60D09F
:10238000022A00F0BF80032A00F0C780042A00F070
:10239000CE80052A00F0DB80062A00F0E080082AC3
:1023A000BFD19B4A1A4000239A42C4F8E434C0F2D9
:1023B0006081FF2AB5D1D4F8EC34002B00F0928272
:1023C0000A2B00F05C82062B00F05C810B2B00F0E6
:1023D0005581BC3354F823000028A2D0036804F1CF
:1023E0001C011B6898479CE7D4F8F034E2180133CD
:1023F000C4F8F0341077D4F8E834013BC4F8E8347A
:10240000002B8ED10823C4F8E4348AE798470028CB
:1024100099DA94F8F8040028ADD0D4F8FC3440F6EA
:10242000C412EB1A934200F2AE80002013B0BDE854
:10243000F08F012205F11403C4F8E424C4F8043534
:102440006FE7FE287FD094F8F8240023C4F8E43422
:10245000002A7FF466AF6F4923680F911B686E49AD
:1024600010928B42119240F0FF80FF210820F72349
:102470004FF0FE0E84F81C120A2184F81E0284F824
:10248000203284F8232284F8242284F8252284F838
:10249000262284F8272284F8282284F8292284F826
:1024A0002A2284F81F2284F8222284F81DE284F86C
:1024B000211204F2212304F22A2001E013F8011F63
:1024C00098420A44FAD1D243DFF8549184F82B227F
:1024D00004F21B2804F22B2A03E00CF015F8C24585
:1024E0000BD0626818F8011F13681B684B4508463B
:1024F000F3D010469847C245F3D133680993099B3E
:10250000E3600EE700220323C4F8E804C4F8F404EF
:10251000C4F8F024C4F8E43403E7D4F8E83403EB57
:1025200000200423C4F8E804C4F8E434F9E6384A87
:102530001A40002AC0F28580FF2A0CBF0523002321
:10254000C4F8E434EDE60223C4F8E434E9E60623F3
:10255000C4F8EC04C4F8F404C4F8E434E1E6D4F8B4
:10256000EC34D4F8E82403EB00230721C4F8EC345E
:10257000C4F8E414002A3FF445AFD2E66FF001003E
:1025800013B0BDE8F08F234A23680F921B682249DD
:1025900000228B421092119258D1FF210820F7237C
:1025A000FE2784F81C120A2184F81E0284F82032C7
:1025B00084F8232284F8242284F8252284F8262211
:1025C00084F8272284F8282284F8292284F82A22F1
:1025D00084F81F2284F8222284F81D7284F82112C4
:1025E00004F2212304F22A2001E013F8011F98428B
:1025F0000A44FAD1D243DFF8288084F82B2204F26F
:102600001B2704F22B2911E09C95FF1F2D0A0000C7
:10261000FF000080B8E40100310A000040420F00D2
:10262000250A00000BF070FFB94513D0626817F857
:10263000011F13681B6843450846F3D010469847AE
:10264000F2E7013A62F0FF02013275E70FAA0A21B0
:102650002046984733680B930B9BC4F8FC5400202A
:10266000E36013B0BDE8F08F0FAA0A212046984717
:1026700043E7013A62F0FF0201329AE6002384F850
:10268000F8344EE6D4F81C90D4F81035994504F18E
:102690001C0807D94FEA8901D4F8180517F082FC05
:1026A000C4F81805C4F81095B9F1000F00F0358191
:1026B00004F2145C424604214FF0000E937992F824
:1026C000059010791B0443EA092392F8079003430D
:1026D00043EA0963C4F81435D4F81835DCF800006F
:1026E00043F82E00D4F810350EF1010E734508465C
:1026F00002F1040201F10401E0D8039100F10B01A1
:1027000000F1090200F10803029100F10C010192AD
:10271000994600F1050E00F1060C00F1070A00F1E0
:102720000A02049118F80C00039918F80EE018F842
:1027300001C018F80AA0D4F81C15000440EA0E20C5
:1027400040EA0C0C4CEA0A6A8A450BD94FEA8A0126
:10275000D4F824050592039317F024FC059A039BF3
:10276000C4F82405C4F81CA5BAF1000F00F0D2800B
:1027700004F5A46E08EB09020021937892F801C0D9
:1027800010781B0443EA0C2392F803C0034343EA86
:102790000C63C4F82035D4F82435DEF8000043F883
:1027A0002100D4F81C3501318B42484602F1040265
:1027B00009F10409E1D8421DC11D4B460192029165
:1027C000821D00F1080918F80200019A18F8033078
:1027D00018F80210029A000418F802A0D4F828256C
:1027E00040EA01210B4343EA0A6A924507D94FEABE
:1027F0008A01D4F8300517F0D5FBC4F83005C4F8C9
:1028000028A5BAF1000F36D000218E4604F22C50D4
:1028100000231A4608EB090A1AF801CB0CFA03FC4C
:102820000833202B42EA0C02F6D109F1040C624471
:1028300094450BD209F103034344E14609F1010930
:1028400013F801AF03F801AC9145F7D308EB02038D
:102850000CF1FF3C03F801ECC444D4F83035C4F863
:102860002CC5D0F800C043F821C0D4F82835013178
:102870008B429146CCD8012384F8083551E5336862
:102880000C930C9BE2682E48D4F820C031680E915E
:102890009A1AA0FB02E02B4BDDF83880E1694FF477
:1028A0007A7E80090EFB102263440BFB0232244B1C
:1028B000A3FB083C4FEA9C1C013908440EFB1C8317
:1028C00021460BFB1323CCEB0002226104F1100024
:1028D00041F8143F05F00EFF33680D930D9BC4F8CB
:1028E00000351EE5226818490F91109311930A21B3
:1028F000136820460FAA984733680A930A9BE3603F
:102900002046FFF719FAC4F8FC54C4F800554FF0FC
:10291000FF3030E5DDF8109055E70C22092108233F
:10292000049201910B220421029299460A224FF04F
:10293000070A4FF0060C4FF0050E0391F2E600BFB8
:10294000D34D621000CA9A3BB8E4010038B5044682
:102950000D4608F071F82046034B40F8643B2946C9
:102960000AF062F9204638BD68E901002DE9F04F10
:10297000A3B00F46BE4C0168149415970D680493DC
:10298000BC4B2C9C039200269D42824680F8086531
:1029900040F05683384618F053F9334605460AF29C
:1029A000222225FA03F10833202B02F8011FF8D167
:1029B00039462E1D2A460AF227200AF09BF9F1B269
:1029C000C6F307200A18D243FF238AF81E12FE27F7
:1029D0008AF8202206218AF81F020022701C8AF839
:1029E0001C328AF81D728AF821128AF82222C0F25B
:1029F000258505F2262050440AF2212301E013F830
:102A0000011F98420A44FAD1D243D2B20AEB06031C
:102A10000836B6F5007F83F8232200F3AB84002E3E
:102A20000AF5077716DD0B352F44934E0AF21B2566
:102A300003E00BF069FDAF420CD0DAF8042015F882
:102A4000011F13681B68B3420846F2D0104698472E
:102A5000AF42F2D1DFF834B2DFF83482DBF8003075
:102A60000A930A9BE31801939AF8083500931946D4
:102A7000002B40F04B82DAF80030804A5B689342CA
:102A800040F03182DBF800300C93DDF83090DAF85A
:102A9000003542F6F822C3EB0903934284BF0B468C
:102AA0008AF8F834DAF8E43433B1DAF804359945C1
:102AB00002D90023CAF8E434DAF818203AB1DBF876
:102AC00000301093109BC9EB03039A4226D3DAF827
:102AD000040003685B69434540F0DC800BF02AFC8E
:102AE0000028C0F2DB80DAF8F434DAF8E424034496
:102AF000072ACAF8F43400F03B81002A7ED1FF286F
:102B000000F0AE81DBF800300F930F9B41F288316B
:102B1000C9EB03038B42CFD98AF8F824DBF80030E5
:102B20000993099B019A9A429ED2554A1C92554C90
:102B3000DAF800301E9402228DF874201B684D498B
:102B4000DDF800908B4240F08382002324218AF834
:102B5000232204F120078AF824128AF825328AF801
:102B600026328AF827320AF50A7526460FCEBE426B
:102B700028606960AA60EB60344605F11005F4D165
:102B80003068286000222920D623FF25FE24072153
:102B90008AF81E028AF820328AF81C528AF81D42EE
:102BA0008AF81F228AF822228AF821120AF22123A7
:102BB0000AF24B2001E013F8011F98420A44FAD1AF
:102BC000D2432D4E8AF84C220AF21B240AF51375C3
:102BD00003E00BF099FCAC420CD0DAF8042014F8B6
:102BE000011F13681B68B3420846F2D0104698478D
:102BF000AC42F2D1484623B0BDE8F08F012A00F084
:102C0000CB80022A00F03481032A00F03C81042AA0
:102C100000F04381052A00F04F81062A00F054811C
:102C2000082A7FF449AF184A1A4000239A42CAF88A
:102C3000E434C0F2DB81FF2A7FF43EAFDAF8EC34F3
:102C4000002B00F029830A2B00F00A82062B00F0EB
:102C50003F820B2B00F0F881BC335AF82300002888
:102C60003FF42AAF03680AF11C011B68984723E769
:102C700000E50100310A0000250A0000E5220000FD
:102C8000E8E4010028E60100FF0000809C95FF1F9A
:102C90002D0A000098470028BFF625AF9AF8F834AF
:102CA000002B3FF43BAFDAF8FC3440F6C412C3EB20
:102CB000090393427FF632AFCF4ADAF800301C9214
:102CC0001B68CE4900228B421D921E9240F0B381B8
:102CD000FF210820F723FE248AF81C120A218AF813
:102CE0001E028AF820328AF823228AF824228AF8DF
:102CF00025228AF826228AF827228AF828228AF8AA
:102D000029228AF82A228AF81F228AF822228AF89F
:102D10001D428AF821120AF221230AF22A2001E038
:102D200013F8011F98420A44FAD1D243B44C8AF8EE
:102D30002B220AF21B260AF22B2503E00BF0E4FB00
:102D4000AE420CD0DAF8042016F8011F13681B6895
:102D5000A3420846F2D010469847AE42F2D1DBF8C3
:102D600000300B930B9BCAF8FC94CAF80C30D5E6E4
:102D7000DAF8F0340AEB03020133CAF8F0341077C2
:102D8000DAF8E834013BCAF8E834002B7FF494AE5B
:102D90000823CAF8E4348FE6FE2800F089809AF808
:102DA000F8240023CAF8E434002A7FF485AE92495F
:102DB000DAF800301C911B6890491D928B421E92DC
:102DC00040F09980FF210820F723FE248AF81C1286
:102DD0000A218AF81E028AF820328AF823228AF809
:102DE00024228AF825228AF826228AF827228AF8BD
:102DF00028228AF829228AF82A228AF81F228AF8A9
:102E000022228AF81D428AF821120AF221230AF2AC
:102E10002A2001E013F8011F98420A44FAD1D24354
:102E2000774D8AF82B220AF21B240AF22B2603E0A4
:102E30000BF06AFBA6420CD0DAF8042014F8011F4C
:102E400013681B68AB420846F2D010469847A6426A
:102E5000F2D1DBF800300E930E9BCAF80C302BE653
:102E6000012209F11403CAF8E424CAF8043523E660
:102E700000220323CAF8E804CAF8F404CAF8F024CC
:102E8000CAF8E43418E6DAF8E83403EB0020042347
:102E9000CAF8E804CAF8E4340EE65A4A1A40002A8E
:102EA00024DBFF2A7FF405AE0523CAF8E43403E6E9
:102EB0000223CAF8E434FFE50623CAF8EC04CAF892
:102EC000F404CAF8E434F7E5DAF8EC34DAF8E82484
:102ED00003EB00230721CAF8EC34CAF8E414002AF3
:102EE0003FF456AFE8E55046984717E6013A62F0DE
:102EF000FF020132D5E71CAA0A2150469847DBF8A9
:102F000000300E930E9BCAF80C30D5E5DAF8103578
:102F10000499DDF800908B427AD03B4A1C923B4CDE
:102F2000DAF800301E9402228DF874201B683349B1
:102F30008B4240F0AC81002324218AF8232204F143
:102F400020078AF824128AF825328AF826328AF86D
:102F500027320AF50A7526460FCEBE422860696000
:102F6000AA60EB60344605F11005F4D130682860A2
:102F700000222920D623FF25FE2407218AF81E02DD
:102F80008AF820328AF81C528AF81D428AF81F22D9
:102F90008AF822228AF821120AF221230AF24B200F
:102FA00001E013F8011F98420A44FAD1D243144EAB
:102FB0008AF84C220AF21B240AF5137503E00BF081
:102FC000A3FAAC420CD0DAF8042014F8011F1368FD
:102FD0001B68B3420846F2D010469847AC42F2D183
:102FE0004FF00009484623B0BDE8F08F013A62F087
:102FF000FF0201321FE600BFB8E40100310A000001
:10300000250A0000FF000080E8E4010050E601000E
:1030100000297FF7EFADDAF81835039A03EB81004A
:10302000043A53F8041B42F8041F9842F9D1484669
:1030300023B0BDE8F08F1CAA0A21504698478EE6BF
:1030400014AA0621A84705E500238AF8F83433E5D9
:1030500050461CAA07219847484623B0BDE8F08F88
:10306000DBF800301193119BDAF80C20DAF82060BD
:10307000BA4CDBF8001013919B1AB94A139DDAF889
:103080001C10A2FB0302344492094FF47A70B54E2F
:1030900000FB123306FB0343B14CA4FB0564A409F7
:1030A00000FB14500139AF4D0A44514605FB103363
:1030B000121BCAF810200AF1100041F8143F05F065
:1030C00019FBDBF800301293129BCAF80035F3E4C9
:1030D000DAF81C50DAF810359D420AF11C0406D9C2
:1030E000A900DAF8180516F05DFFCAF81805CAF845
:1030F0001055002D00F021810AF2145620460423B9
:103100000025827947790179120442EA0722C779BA
:103110000A4342EA0762CAF81425DAF8182531682A
:1031200042F82510DAF810250135AA42194600F1B7
:10313000040003F10403E4D8059301F10B0301F14A
:103140000806029301F10C03354601F1050E01F169
:10315000060CC81D01F1090701F10A02069314F8D3
:103160000C10059B14F80EE014F803C0235CDAF889
:103170001C05090441EA0E2141EA0C0C4CEA0363E8
:1031800083420AD99900DAF824050792059316F0CC
:1031900009FF079A059BCAF82405CAF81C35002BBD
:1031A00000F01B840AF5A466611900208B784F7823
:1031B0000A781B0443EA0723CF78134343EA0763E3
:1031C000CAF82035DAF82435326843F82020DAF8D6
:1031D0001C25013082422B4601F1040105F1040552
:1031E000E4D8D91D2E465F1D9A1D029103F10805F2
:1031F000A15CE05D029AA35DA65CDAF828250904CB
:1032000041EA00210B4343EA0666964206D9B10023
:10321000DAF8300516F0C6FECAF83005CAF8286597
:103220008EB3002007460AF22C560023194604EB01
:10323000050E1EF8012B9A400833202B41EA0201AB
:10324000F7D105F1040E71448E4509D2EB1C2344DD
:103250007246013213F8015F03F8015C8A42F8D329
:1032600063180EF1FF3203F8017C2244DAF830359E
:10327000CAF82C25326843F82020DAF828350130C6
:1032800083420D46D1D801238AF8083514E450460C
:103290001CAA07219847A3E6DAF8001032481C90D0
:1032A0000C6832491D938C421E9340F0CA8008205E
:1032B000F721FE248AF81C220A228AF81E028AF8C4
:1032C00020128AF823328AF824328AF825328AF8C2
:1032D00026328AF827328AF828328AF829328AF880
:1032E0002A328AF81F328AF822328AF81D428AF876
:1032F00021220AF221210AF22A2001E011F8012FED
:1033000088421344FAD1DB43194C8AF82B320AF273
:103310001B260AF22B2504E00BF0F6F8B54200F06C
:103320009480DAF8042016F8011F13681B68A34282
:103330000846F1D010469847F0E70C2306930B237C
:1033400008260293042335460A22092707204FF056
:10335000060C4FF0050E059301E700BF00CA9A3B2B
:10336000D34D621040420F00B8E40100310A000062
:10337000250A0000A04A1C92A04DDAF800301E95E4
:1033800003228DF874201B689D498B4240F02783EF
:10339000002338218AF8232205F1300E8AF82412FE
:1033A0008AF825328AF826328AF827320AF50A770F
:1033B0002E460FCE764538607960BA60FB603546A0
:1033C00007F11007F4D103CDFF22386079603D206A
:1033D0000023C221FE258AF81C2207228AF81E0239
:1033E0008AF820128AF81D528AF81F328AF822328F
:1033F0008AF821220AF221210AF25F2001E011F865
:10340000012F88421344FAD1DB437E4E8AF86032A2
:103410000AF21B250AF5187704E00BF075F8BD4297
:103420003FF418ABDAF8042015F8011F13681B6885
:10343000B3420846F1D010469847F0E71A46FFF726
:10344000E5BA1CAA0A215046A047DBF800300D93CC
:103450000D9A6D4BCAF80C2000226C49ADF874200F
:1034600021921E931F9320930AF27C420AF58363F4
:10347000CDF814901C910292994659F8043F002B04
:1034800000F0D88058681C6801689A681E948B68A0
:10349000ADF874209847D9F800301F905868036839
:1034A000DB689847DAF80030D9F8001020904FF424
:1034B00000721B680C692192514A9342074640F002
:1034C000AC81632C04DD9AF8F834002B00F0B28054
:1034D000BDF874301E9D8AF823321B0A8AF8243204
:1034E000284617F0ADFB0646330E320C000A29467B
:1034F0008AF828328AF825628AF826028AF8272272
:103500000AF22920324609F0F5FB1F990691084678
:1035100017F096FB0AF2232502460699701D2844EF
:103520000636002322FA03FE0833202B00F801EFB1
:10353000F8D10436A819164409F0DCFB384617F018
:103540007FFBA9190346002223FA02F00832202A41
:1035500001F8010BF8D1043639461A46A81906932A
:1035600009F0C8FB069B9919081DC0F307275FFAED
:1035700080FE6A180EEB07030026DB434FF0020CB7
:103580006E5482F801C09670D6704FF0FE0CE2B215
:103590008AF8203244F307248AF81F724FF0FF3371
:1035A000471C8AF81EE28AF81C328AF81DC28AF883
:1035B00021228AF82242C0F2F78101F226245444E3
:1035C0000AF2212301E013F8012F9C421644FAD19C
:1035D000F343DBB20AEB00020830B0F5007F82F85B
:1035E000233200F37F8100280AF5077422DD0B31B6
:1035F0000C440AF21B250FE0E8E40100ECE50100B1
:10360000310A0000250A00003C000200D0E401005D
:103610000AF07AFFAC420DD0DAF80420CA481368E9
:1036200015F8011F1B6883420846F1D010469847E1
:10363000AC42F1D1029B99457FF41FAFDDF81490A5
:10364000CDF818900AF59C63DDF80890059359F8B9
:10365000040F002800F0D2808168036842681E9140
:10366000ADF874209B689847D9F800301F901A680D
:103670001846D3689847D9F80030DAF8001020903F
:103680001A680D6852684FF40071184621919047EE
:10369000AE4B9D42044640F0C580632804DD9AF895
:1036A000F834002B00F0AA80BDF874301E9D8AF813
:1036B00023321B0A8AF82432284617F0C1FA06463C
:1036C000330E320C000A29468AF828328AF825621D
:1036D0008AF826028AF827220AF22920324609F0BF
:1036E00009FB1F990291084617F0AAFA0AF223254E
:1036F000721D0299074606362A44002327FA03F072
:103700000833202B02F8010FF8D104363A46A819E5
:1037100009F0F0FA20990291084617F091FA3E4418
:1037200002990746AA19002327FA03F00833202B31
:1037300002F8010BF8D104363A46A81909F0DAFA72
:10374000BA19111D5FFA81FEC1F307272198A85409
:103750000EEB0703AE18DB434FEA104C0293030A4B
:10376000000EF070E0B244F30724737086F802C0D4
:10377000FF234FF0FE0C9DF808608AF822424C1C93
:103780008AF820628AF81EE28AF81F728AF81C32D0
:103790008AF81DC28AF821020DDB02F22626564461
:1037A0000AF22123002401E013F8010F9E42044491
:1037B000FAD1E343DBB20AEB01000831B1F5007F37
:1037C00080F8233233DC00290AF5077516DD0B3249
:1037D00015440AF21B2603E00AF096FEAE420DD015
:1037E000DAF804205848136816F8011F1B68834252
:1037F0000846F1D010469847AE42F1D1059B994555
:103800007FF425AFDDF81890CAF8FC940123CAF8BC
:1038100000958AF8F834FFF781B921461CAA504672
:10382000984707E701461CAA5046A847E6E74849DB
:1038300016910322DAF8003046498DF85C20189181
:103840001B68424A934240F0B180294616A8FDF712
:1038500083F8C1B2C0F307240A19D243FF238AF8C0
:103860001E12FE258AF8202207218AF81F42421CD8
:103870004FF000048AF81C328AF81D528AF821128F
:103880008AF822420DDB00F22222234652440AF239
:10389000212401E014F8011FA2420B44FAD1DB43BA
:1038A000DBB20AEB000200F10801B1F5007F82F8FB
:1038B000233200F3838000290AF507749EDDC31DBF
:1038C0001C440AF21B25DAF804201F48136815F877
:1038D000011F1B68834208466DD10AF015FEA54200
:1038E000F1D18BE71A4916910322DAF80030194911
:1038F0008DF85C2018911B68144A934275D12946B3
:1039000016A8FDF729F8C1B2C0F307240A19FE254D
:10391000D243FF238AF81E128AF81F42072100248F
:103920008AF81D52451C8AF820228AF81C328AF82F
:1039300021128AF8224216DB00F222222346524448
:103940000AF221240AE000BF250A0000310A000023
:10395000E8E40100ECE5010014F8011FA2420B4469
:10396000FAD1DB43DBB20AEB000200F10801B1F54A
:10397000007F82F8233240DC00290AF507747FF7C4
:1039800059AE073004440AF21B25DAF80420224815
:10399000136815F8011F1B68834208462AD10AF0F4
:1039A000B3FDA542F1D145E6FF2313E616AA072190
:1039B0005046984722E71046984790E717491991D3
:1039C0000322DAF8003016491B918DF868201B6835
:1039D00019AA07215046984710E7069D08E41CAA3B
:1039E000072150469847FFF735B816AA07215046D9
:1039F00098471FE610469847D3E7084919910322D4
:103A0000DAF8003006491B918DF868201B6819AA66
:103A10000721504698470DE6250A0000E8E401001A
:103A2000ECE501002DE9F04F82469FB00AF16403F6
:103A30001D460C461AA8BB49039309F0E1F8294634
:103A40001AA809F039F9B84909F03EF9B74A0768E8
:103A50002368159216971B68B54A0026934284F88E
:103A6000086540F05385384617F0EAF833460546B6
:103A700004F2222225FA03F10833202B02F8011F59
:103A8000F8D139462E1D2A4604F2272009F032F9D2
:103A9000F1B2C6F307200A18D243FF2384F81E129E
:103AA000FE2784F82022062184F81F020022701CC1
:103AB00084F81C3284F81D7284F8211284F82222C2
:103AC000C0F2198705F22620204404F2212301E0E8
:103AD00013F8011F83420A44FAD1D243D2B2A31988
:103AE0000836B6F5007F83F8232200F39D86002E6A
:103AF00004F5077711DD0B358E4E2F4404F21B259C
:103B0000626815F8011F13681B68B342084640F04D
:103B100087860AF0F9FCAF42F2D1DFF82CB2DFF869
:103B20002C92DBF800300B930B9BCDF810A003F523
:103B30007A739A4694F80825002A40F03D8223685B
:103B40007D495B688B4240F02582DBF800300D93A5
:103B5000DDF83480D4F8003542F6F821C3EB0803D1
:103B60008B42D4F8E43488BF84F8F82433B1D4F815
:103B70000435984502D90023C4F8E434A2693AB167
:103B8000DBF800301193119BC8EB03039A4225D355
:103B9000606803685B694B4540F0DA800AF0CAFB55
:103BA0000028C0F2D980D4F8F434D4F8E4240344D3
:103BB000072AC4F8F43400F03681002A77D1FF28B0
:103BC00000F0A581DBF800301093109B41F28831A2
:103BD000C8EB03038B42D1D984F8F824DBF800301A
:103BE0000A930A9B9A45A5D2544A1792544D2368CA
:103BF000199502228DF860201B684D49DDF810A050
:103C00008B4240F07E840023242184F8232205F196
:103C1000200E84F8241284F8253284F8263284F8A1
:103C2000273204F50A762F460FCF77453060716052
:103C3000B260F3603D4606F11006F4D1386830609A
:103C4000FF2129200022D623FE2584F81C120721FB
:103C500084F81E0284F8203284F81D5284F81F2252
:103C600084F8222284F8211204F2212304F24B204A
:103C700001E013F8011F98420A44FAD1D2432D4EB5
:103C800084F84C2204F21B2504F5137704E00AF0B3
:103C90003BFCBD4200F00D82626815F8011F1368FD
:103CA0001B68B3420846F2D010469847F1E7012A54
:103CB00000F0CC80022A00F03281032A00F03A8121
:103CC000042A00F04181052A00F04D81062A00F007
:103CD0005281082A7FF452AF1A4A1A4000239A42AE
:103CE000C4F8E434C0F2CE81FF2A7FF447AFD4F8A1
:103CF000EC34002B00F045850A2B00F01284062BD3
:103D000000F058840B2B00F00784BC3354F82300D8
:103D100000283FF433AF036804F11C011B68984787
:103D20002CE700BF78E6010000E7010000E5010094
:103D3000310A0000250A0000E5220000E8E4010045
:103D400028E60100FF0000809C95FF1F2D0A00005F
:103D500098470028BFF627AF94F8F834002B3FF4BB
:103D60003DAFD4F8FC3440F6C412C3EB08039342D1
:103D70007FF634AFC64A236817921B68C5490022F4
:103D80008B421892199240F0B085FF210820F7234A
:103D9000FE2584F81C120A2184F81E0284F82032C1
:103DA00084F8232284F8242284F8252284F8262209
:103DB00084F8272284F8282284F8292284F82A22E9
:103DC00084F81F2284F8222284F81D5284F82112DC
:103DD00004F2212304F22A2001E013F8011F984283
:103DE0000A44FAD1D243AC4D84F82B2204F21B27AB
:103DF00004F22B2603E00AF087FBB7420BD062687F
:103E000017F8011F13681B68AB420846F3D0104631
:103E10009847B742F3D1DBF800300C930C9BC4F801
:103E2000FC84E360DAE6D4F8F034E2180133C4F835
:103E3000F0341077D4F8E834013BC4F8E834002BB0
:103E40007FF49CAE0823C4F8E43497E6FE2800F023
:103E5000868094F8F8240023C4F8E434002A7FF420
:103E60008DAE8B49236817911B688A4918928B4243
:103E7000199240F09780FF210820F723FE2584F84F
:103E80001C120A2184F81E0284F8203284F82322AE
:103E900084F8242284F8252284F8262284F8272214
:103EA00084F8282284F8292284F82A2284F81F2200
:103EB00084F8222284F81D5284F8211204F221236E
:103EC00004F22A2001E013F8011F98420A44FAD1B3
:103ED000D243714E84F82B2204F21B2504F22B27C7
:103EE00003E00AF011FBAF420BD0626815F8011F26
:103EF00013681B68B3420846F3D010469847AF4298
:103F0000F3D1DBF800300F930F9BE36036E601221C
:103F100008F11403C4F8E424C4F804352EE60022A2
:103F20000323C4F8E804C4F8F404C4F8F024C4F883
:103F3000E43423E6D4F8E83403EB00200423C4F887
:103F4000E804C4F8E43419E6544A1A40002A24DB91
:103F5000FF2A7FF410AE0523C4F8E4340EE60223F2
:103F6000C4F8E4340AE60623C4F8EC04C4F8F40404
:103F7000C4F8E43402E6D4F8EC34D4F8E82403EBD3
:103F800000230721C4F8EC34C4F8E414002A3FF4F9
:103F900059AFF3E52046984720E6013A62F0FF0268
:103FA0000132D5E717AA0A2120469847DBF80030EE
:103FB0000F930F9BE360E1E5D4F81C35DDF810A00A
:103FC000012B71D0364A1792364D2368199502227B
:103FD0008DF860201B682F498B4240F092820023AD
:103FE000242184F8232205F1200E84F8241284F879
:103FF000253284F8263284F8273204F50A762F46D3
:104000000FCF774530607160B260F3603D4606F1D6
:104010001006F4D138683060FF2129200022D62311
:10402000FE2584F81C12072184F81E0284F8203231
:1040300084F81D5284F81F2284F8222284F8211269
:1040400004F2212304F24B2001E013F8011F9842EF
:104050000A44FAD1D243104E84F84C2204F21B25B4
:1040600004F5137703E00AF04FFAAF4221D06268FB
:1040700015F8011F13681B68B3420846F3D01046B9
:104080009847F2E7013A62F0FF0201322CE600BFE6
:10409000B8E40100310A0000250A0000FF0000809A
:1040A000E8E4010050E60100D4F824351B68CAF8A2
:1040B00004301AA808F064FDC0491AA808F0A0FD51
:1040C000039E1AA8314608F0F7FDBD4908F0FCFD33
:1040D0004FF47A750AF10802012301680095204621
:1040E000FEF744FC1AA808F04BFDB4491AA808F0E2
:1040F00087FD31461AA808F0DFFDB24908F0E4FD5B
:104100000AF10C020123016800952046FEF72EFCFF
:104110001AA808F035FDA9491AA808F071FD314622
:104120001AA808F0C9FDA84908F0CEFD0AF110024E
:104130000123016800952046FEF718FC1AA808F034
:104140001FFD9E491AA808F05BFD31461AA808F029
:10415000B3FD9E4908F0B8FD0AF11402012301687D
:1041600000952046FEF702FC1AA808F009FD9349C5
:104170001AA808F045FD31461AA808F09DFD94499B
:1041800008F0A2FD0AF118020123016800952046FB
:10419000FEF7ECFB1AA808F0F3FC88491AA808F00F
:1041A0002FFD31461AA808F087FD8A4908F08CFDDA
:1041B0000AF11C020123016800952046FEF7D6FB98
:1041C0001AA808F0DDFC7D491AA808F019FD31464F
:1041D0001AA808F071FD804908F076FD0AF1200266
:1041E0000123016800952046FEF7C0FB1AA808F0DD
:1041F000C7FC72491AA808F003FD31461AA808F056
:104200005BFD764908F060FD0AF124020123016894
:1042100000952046FEF7AAFB1AA808F0B1FC6749F2
:104220001AA808F0EDFC31461AA808F045FD6C49C3
:1042300008F04AFD0AF12802012301680095204692
:10424000FEF794FB1AA808F09BFC5C491AA808F03A
:10425000D7FC31461AA808F02FFD624908F034FD5A
:104260000AF12C020123016800952046FEF77EFB2F
:104270001AA808F085FC51491AA808F0C1FC31467B
:104280001AA808F019FD584908F01EFD0AF130027D
:104290000123016800952046FEF768FB1AA808F084
:1042A0006FFC46491AA808F0ABFC31461AA808F082
:1042B00003FD4E4908F008FD0AF1340201230168AC
:1042C00000952046FEF752FB1AA808F059FC3B491E
:1042D0001AA808F095FC31461AA808F0EDFC4449EC
:1042E00008F0F2FC0AF1380201230168009520462B
:1042F000FEF73CFB1AA808F043FC30491AA808F066
:104300007FFC31461AA808F0D7FC3A4908F0DCFCDB
:104310000AF13C020123016800952046FEF726FBC6
:104320001AA808F02DFC25491AA808F069FC3146A6
:104330001AA808F0C1FC304908F0C6FC0AF1400296
:104340000123016800952046FEF710FB1AA808F02B
:1043500017FC1A491AA808F053FC31461AA808F0AD
:10436000ABFC264908F0B0FC0AF1440201230168C5
:1043700000952046FEF7FAFA1AA808F001FC0F494A
:104380001AA808F03DFC31461AA808F095FC1C4913
:1043900008F09AFC0AF148020123016800952046C2
:1043A000FEF7E4FA1AA808F0EBFB04491AA808F093
:1043B00027FC31461AA808F07FFC23E078E60100CC
:1043C00008E7010014E7010020E7010038E70100D9
:1043D00050E701006CE7010088E70100A4E7010055
:1043E000C0E70100D8E70100F8E7010018E8010084
:1043F00034E8010050E8010068E8010084E80100A9
:10440000A0E80100614908F05FFC0AF14C020123B9
:10441000016800952046FEF7A9FA1AA808F0B0FB3B
:104420005B491AA808F0ECFB31461AA808F044FCD6
:10443000584908F049FC0AF150020123016800952F
:104440002046FEF793FA1AA808F09AFB50491AA8DA
:1044500008F0D6FB31461AA808F02EFC4E4908F0A9
:1044600033FC0AF154020123016800952046FEF74F
:104470007DFA1AA808F084FB45491AA808F0C0FB89
:1044800031461AA808F018FC444908F01DFC0AF14E
:1044900058020123016800952046FEF767FA1AA822
:1044A00008F06EFB3A491AA808F0AAFB31461AA890
:1044B00008F002FC3A4908F007FC0AF15C0201230B
:1044C000016800952046FEF751FA1AA808F058FB3B
:1044D0002F491AA808F094FB31461AA808F0ECFB03
:1044E000304908F0F1FB0AF16002016800950123F0
:1044F0002046FEF73BFA1AA808F042FB1FB0BDE8C1
:10450000F08F17AA072120469847D2E515AA062161
:1045100020469847FFF701BB002384F8F834FFF7E3
:104520002DBBDBF800301293129BE2681E48276A0D
:104530001E4EDBF8001014919A1AA0FB02503E4464
:104540004FF47A7580091A4F149BE16905FB10221C
:1045500007FB0262144EA6FB0376B609013905FB80
:104560001633134D0844214605FB1323821B226199
:1045700004F1100041F8143F04F0BCF8DBF80030FF
:104580001393139BC4F80035FFF7F8BABCE8010099
:1045900078E60100D8E80100F0E801000CE901002C
:1045A00028E9010044E90100D34D621000CA9A3B9A
:1045B00040420F00E669D4F810359E4204F11C0514
:1045C00006D9B100D4F8180515F0ECFCC4F81805AC
:1045D000C4F81065002E00F0AB8104F21457284691
:1045E00004230026827990F805E00179120442EA5A
:1045F0000E2290F807E00A4342EA0E62C4F814253E
:10460000D4F81825396842F82610D4F81025013658
:10461000B242194600F1040003F10403E2D8079303
:1046200001F10B0301F1090201F10807069301F101
:104630000C0305923E4601F1050E01F1060CC81D62
:1046400001F10A02089315F80C10079B15F80EE00B
:1046500015F803C02B5CD4F81C05090441EA0E21AF
:1046600041EA0C0C4CEA036383420AD99900D4F85E
:1046700024050992079315F095FC099A079BC4F845
:104680002405C4F81C35002B00F0508104F5A46704
:10469000AA190021937892F801E010781B0443EAEC
:1046A0000E2392F803E0034343EA0E63C4F8203577
:1046B000D4F82435386843F82100D4F81C3501318A
:1046C0008B42304602F1040206F10406E2D8431D93
:1046D0000593C31D3746821D069300F10806059B0E
:1046E000A85CE95C069AEB5DAF5CD4F82825000471
:1046F00040EA01210B4343EA0767974206D9B90014
:10470000D4F8300515F04EFCC4F83005C4F828750F
:1047100097B300210F4604F22C5000231A4605EBF4
:10472000060C1CF801EB0EFA03FE0833202B42EABC
:104730000E02F6D106F1040E7244964509D2F31C1E
:104740002B447646013613F801CF03F801CC96428C
:10475000F8D3AB180EF1FF3603F8017C2E44D4F8E1
:104760003035C4F82C65066843F82160D4F8283544
:1047700001318B421646D0D8012384F80835FFF763
:10478000FDB92168734817900D68734918938D42DD
:10479000199340F0B9800820F721FE2584F81C22E7
:1047A0000A2284F81E0284F8201284F8233284F846
:1047B000243284F8253284F8263284F8273284F8AB
:1047C000283284F8293284F82A3284F81F3284F897
:1047D000223284F81D5284F8212204F2212104F2AD
:1047E0002A2001E011F8012F88421344FAD1DB435B
:1047F0005A4D84F82B3204F21B2704F22B2604E0D6
:1048000009F082FEB74200F08380626817F8011F4A
:1048100013681B68AB420846F2D010469847F1E790
:1048200010469847FFF777B94D4A17924D4D2368C8
:10483000199503228DF860201B6847498B425DD192
:104840000023382184F8232205F1300E84F8241245
:1048500084F8253284F8263284F8273204F50A7762
:104860002E460FCE764538607960BA60FB603546DB
:1048700007F11007F4D103CDFF22386079603D20A5
:104880000023C221FE2584F81C22072284F81E0280
:1048900084F8201284F81D5284F81F3284F82232E2
:1048A00084F8212204F2212104F25F2001E011F8B2
:1048B000012F88421344FAD1DB43284E84F860323A
:1048C00004F21B2504F5187704E009F01DFEBD4233
:1048D0003FF423A9626815F8011F13681B68B342EF
:1048E0000846F2D010469847F1E717AA0A21204659
:1048F0009847FFF790BA1A46FFF7F1B817AA0721B1
:1049000020469847FFF709B917AA0A212046A84769
:10491000DBF800300E930E9BE3602046FDF70CFAA7
:10492000C4F8FC84C4F80085FFF758B9089ED6E6A1
:104930000C2308930B2306930923082705930423CC
:104940003E460A2207204FF0060C4FF0050E079353
:1049500079E600BFB8E40100310A0000250A000032
:10496000E8E40100ECE501001F4B10B4D3F880200F
:104970001368506819780478507A137A044201EA6F
:1049800003011AD0937A03F0030309B143F004033F
:1049900043F008039910013B91720D2B0BD8DFE80F
:1049A00003F01E0719070A141E1E140A0719071E12
:1049B000D368013BD36010BC7047937A03F00303C4
:1049C0000029E7D043F00403E4E7D36810BC023BBE
:1049D000D3607047D36810BC0233D3607047D3688C
:1049E00010BC0133D36070471495FF1FFFFFFFFF1A
:1049F0002D4B186810B528B10368996828A3D3E92E
:104A000000238847294B186828B10368996824A3B4
:104A1000D3E900238847264B186828B103689968B2
:104A20001FA3D3E900238847224B186828B10368E5
:104A300099681BA3D3E9002388471F4B186828B146
:104A40000368996816A3D3E9002388471B4B1868AD
:104A500028B10368996812A3D3E900238847184B4B
:104A6000186828B1036899680DA3D3E90023884723
:104A7000144B186828B10368996809A3D3E9002387
:104A80008847114B186838B10368BDE81040996831
:104A900003A3D3E90023084710BD00BFAFF3008094
:104AA000000000A09999A93F5894FF1F5C94FF1F34
:104AB0006094FF1F6494FF1FC094FF1FC494FF1FE6
:104AC000C894FF1FCC94FF1FBC94FF1F024B1868B3
:104AD00008B106F0F1BF7047D094FF1F38B5436AA4
:104AE00033B1026B0446956890609847236B9D60D4
:104AF00038BD00BF1F4B10B4D3F884201368506832
:104B000019780478507A137A044201EA03011AD022
:104B1000937A03F0030309B143F0040343F008035D
:104B20009910013B91720D2B0BD8DFE803F01E07A3
:104B300019070A141E1E140A0719071ED368013B21
:104B4000D36010BC7047937A03F003030029E7D0C9
:104B500043F00403E4E7D36810BC023BD360704722
:104B6000D36810BC0233D3607047D36810BC0133E4
:104B7000D36070471495FF1F1F4B10B41A68136859
:104B8000506819780478507A137A044201EA0301D4
:104B90001AD0937A03F0030309B143F0040343F0FE
:104BA00008039910013B91720D2B0BD8DFE803F03D
:104BB0001E0719070A141E1E140A0719071ED368B8
:104BC000013BD36010BC7047937A03F003030029C4
:104BD000E7D043F00403E4E7D36810BC023BD360A2
:104BE0007047D36810BC0233D3607047D36810BCE1
:104BF0000133D360704700BF1495FF1F1F4B10B4E3
:104C00005A681368506819780478507A137A044205
:104C100001EA03011AD0937A03F0030309B143F0C8
:104C2000040343F008039910013B91720D2B0BD83C
:104C3000DFE803F01E0719070A141E1E140A0719DD
:104C4000071ED368013BD36010BC7047937A03F012
:104C500003030029E7D043F00403E4E7D36810BC62
:104C6000023BD3607047D36810BC0233D3607047F7
:104C7000D36810BC0133D360704700BF1495FF1F89
:104C80001F4B10B49A681368506819780478507AEA
:104C9000137A044201EA03011AD0937A03F0030362
:104CA00009B143F0040343F008039910013B9172EA
:104CB0000D2B0BD8DFE803F01E0719070A141E1E80
:104CC000140A0719071ED368013BD36010BC704754
:104CD000937A03F003030029E7D043F00403E4E7E9
:104CE000D36810BC023BD3607047D36810BC02335A
:104CF000D3607047D36810BC0133D360704700BFE6
:104D00001495FF1F1F4B10B4DA68136850681978A8
:104D10000478507A137A044201EA03011AD0937A94
:104D200003F0030309B143F0040343F008039910AF
:104D3000013B91720D2B0BD8DFE803F01E0719071A
:104D40000A141E1E140A0719071ED368013BD360FC
:104D500010BC7047937A03F003030029E7D043F0B7
:104D60000403E4E7D36810BC023BD3607047D36808
:104D700010BC0233D3607047D36810BC0133D360DA
:104D8000704700BF1495FF1F1F4B10B41A691368BA
:104D9000506819780478507A137A044201EA0301C2
:104DA0001AD0937A03F0030309B143F0040343F0EC
:104DB00008039910013B91720D2B0BD8DFE803F02B
:104DC0001E0719070A141E1E140A0719071ED368A6
:104DD000013BD36010BC7047937A03F003030029B2
:104DE000E7D043F00403E4E7D36810BC023BD36090
:104DF0007047D36810BC0233D3607047D36810BCCF
:104E00000133D360704700BF1495FF1F1F4B10B4D0
:104E10005A691368506819780478507A137A0442F2
:104E200001EA03011AD0937A03F0030309B143F0B6
:104E3000040343F008039910013B91720D2B0BD82A
:104E4000DFE803F01E0719070A141E1E140A0719CB
:104E5000071ED368013BD36010BC7047937A03F000
:104E600003030029E7D043F00403E4E7D36810BC50
:104E7000023BD3607047D36810BC0233D3607047E5
:104E8000D36810BC0133D360704700BF1495FF1F77
:104E90001F4B10B49A691368506819780478507AD7
:104EA000137A044201EA03011AD0937A03F0030350
:104EB00009B143F0040343F008039910013B9172D8
:104EC0000D2B0BD8DFE803F01E0719070A141E1E6E
:104ED000140A0719071ED368013BD36010BC704742
:104EE000937A03F003030029E7D043F00403E4E7D7
:104EF000D36810BC023BD3607047D36810BC023348
:104F0000D3607047D36810BC0133D360704700BFD3
:104F10001495FF1F1F4B10B4DA6913685068197895
:104F20000478507A137A044201EA03011AD0937A82
:104F300003F0030309B143F0040343F0080399109D
:104F4000013B91720D2B0BD8DFE803F01E07190708
:104F50000A141E1E140A0719071ED368013BD360EA
:104F600010BC7047937A03F003030029E7D043F0A5
:104F70000403E4E7D36810BC023BD3607047D368F6
:104F800010BC0233D3607047D36810BC0133D360C8
:104F9000704700BF1495FF1F1F4B10B41A6A1368A7
:104FA000506819780478507A137A044201EA0301B0
:104FB0001AD0937A03F0030309B143F0040343F0DA
:104FC00008039910013B91720D2B0BD8DFE803F019
:104FD0001E0719070A141E1E140A0719071ED36894
:104FE000013BD36010BC7047937A03F003030029A0
:104FF000E7D043F00403E4E7D36810BC023BD3607E
:105000007047D36810BC0233D3607047D36810BCBC
:105010000133D360704700BF1495FF1F1F4B10B4BE
:105020005A6A1368506819780478507A137A0442DF
:1050300001EA03011AD0937A03F0030309B143F0A4
:10504000040343F008039910013B91720D2B0BD818
:10505000DFE803F01E0719070A141E1E140A0719B9
:10506000071ED368013BD36010BC7047937A03F0EE
:1050700003030029E7D043F00403E4E7D36810BC3E
:10508000023BD3607047D36810BC0233D3607047D3
:10509000D36810BC0133D360704700BF1495FF1F65
:1050A0001F4B10B49A6A1368506819780478507AC4
:1050B000137A044201EA03011AD0937A03F003033E
:1050C00009B143F0040343F008039910013B9172C6
:1050D0000D2B0BD8DFE803F01E0719070A141E1E5C
:1050E000140A0719071ED368013BD36010BC704730
:1050F000937A03F003030029E7D043F00403E4E7C5
:10510000D36810BC023BD3607047D36810BC023335
:10511000D3607047D36810BC0133D360704700BFC1
:105120001495FF1F1F4B10B4DA6A13685068197882
:105130000478507A137A044201EA03011AD0937A70
:1051400003F0030309B143F0040343F0080399108B
:10515000013B91720D2B0BD8DFE803F01E071907F6
:105160000A141E1E140A0719071ED368013BD360D8
:1051700010BC7047937A03F003030029E7D043F093
:105180000403E4E7D36810BC023BD3607047D368E4
:1051900010BC0233D3607047D36810BC0133D360B6
:1051A000704700BF1495FF1F1F4B10B41A6B136894
:1051B000506819780478507A137A044201EA03019E
:1051C0001AD0937A03F0030309B143F0040343F0C8
:1051D00008039910013B91720D2B0BD8DFE803F007
:1051E0001E0719070A141E1E140A0719071ED36882
:1051F000013BD36010BC7047937A03F0030300298E
:10520000E7D043F00403E4E7D36810BC023BD3606B
:105210007047D36810BC0233D3607047D36810BCAA
:105220000133D360704700BF1495FF1F1F4B10B4AC
:105230005A6B1368506819780478507A137A0442CC
:1052400001EA03011AD0937A03F0030309B143F092
:10525000040343F008039910013B91720D2B0BD806
:10526000DFE803F01E0719070A141E1E140A0719A7
:10527000071ED368013BD36010BC7047937A03F0DC
:1052800003030029E7D043F00403E4E7D36810BC2C
:10529000023BD3607047D36810BC0233D3607047C1
:1052A000D36810BC0133D360704700BF1495FF1F53
:1052B0001F4B10B49A6B1368506819780478507AB1
:1052C000137A044201EA03011AD0937A03F003032C
:1052D00009B143F0040343F008039910013B9172B4
:1052E0000D2B0BD8DFE803F01E0719070A141E1E4A
:1052F000140A0719071ED368013BD36010BC70471E
:10530000937A03F003030029E7D043F00403E4E7B2
:10531000D36810BC023BD3607047D36810BC023323
:10532000D3607047D36810BC0133D360704700BFAF
:105330001495FF1F1F4B10B4DA6B1368506819786F
:105340000478507A137A044201EA03011AD0937A5E
:1053500003F0030309B143F0040343F00803991079
:10536000013B91720D2B0BD8DFE803F01E071907E4
:105370000A141E1E140A0719071ED368013BD360C6
:1053800010BC7047937A03F003030029E7D043F081
:105390000403E4E7D36810BC023BD3607047D368D2
:1053A00010BC0233D3607047D36810BC0133D360A4
:1053B000704700BF1495FF1F1F4B10B41A6C136881
:1053C000506819780478507A137A044201EA03018C
:1053D0001AD0937A03F0030309B143F0040343F0B6
:1053E00008039910013B91720D2B0BD8DFE803F0F5
:1053F0001E0719070A141E1E140A0719071ED36870
:10540000013BD36010BC7047937A03F0030300297B
:10541000E7D043F00403E4E7D36810BC023BD36059
:105420007047D36810BC0233D3607047D36810BC98
:105430000133D360704700BF1495FF1F1F4B10B49A
:105440005A6C1368506819780478507A137A0442B9
:1054500001EA03011AD0937A03F0030309B143F080
:10546000040343F008039910013B91720D2B0BD8F4
:10547000DFE803F01E0719070A141E1E140A071995
:10548000071ED368013BD36010BC7047937A03F0CA
:1054900003030029E7D043F00403E4E7D36810BC1A
:1054A000023BD3607047D36810BC0233D3607047AF
:1054B000D36810BC0133D360704700BF1495FF1F41
:1054C0001F4B10B49A6C1368506819780478507A9E
:1054D000137A044201EA03011AD0937A03F003031A
:1054E00009B143F0040343F008039910013B9172A2
:1054F0000D2B0BD8DFE803F01E0719070A141E1E38
:10550000140A0719071ED368013BD36010BC70470B
:10551000937A03F003030029E7D043F00403E4E7A0
:10552000D36810BC023BD3607047D36810BC023311
:10553000D3607047D36810BC0133D360704700BF9D
:105540001495FF1F1F4B10B4DA6C1368506819785C
:105550000478507A137A044201EA03011AD0937A4C
:1055600003F0030309B143F0040343F00803991067
:10557000013B91720D2B0BD8DFE803F01E071907D2
:105580000A141E1E140A0719071ED368013BD360B4
:1055900010BC7047937A03F003030029E7D043F06F
:1055A0000403E4E7D36810BC023BD3607047D368C0
:1055B00010BC0233D3607047D36810BC0133D36092
:1055C000704700BF1495FF1F1F4B10B41A6D13686E
:1055D000506819780478507A137A044201EA03017A
:1055E0001AD0937A03F0030309B143F0040343F0A4
:1055F00008039910013B91720D2B0BD8DFE803F0E3
:105600001E0719070A141E1E140A0719071ED3685D
:10561000013BD36010BC7047937A03F00303002969
:10562000E7D043F00403E4E7D36810BC023BD36047
:105630007047D36810BC0233D3607047D36810BC86
:105640000133D360704700BF1495FF1F1F4B10B488
:105650005A6D1368506819780478507A137A0442A6
:1056600001EA03011AD0937A03F0030309B143F06E
:10567000040343F008039910013B91720D2B0BD8E2
:10568000DFE803F01E0719070A141E1E140A071983
:10569000071ED368013BD36010BC7047937A03F0B8
:1056A00003030029E7D043F00403E4E7D36810BC08
:1056B000023BD3607047D36810BC0233D36070479D
:1056C000D36810BC0133D360704700BF1495FF1F2F
:1056D0001F4B10B49A6D1368506819780478507A8B
:1056E000137A044201EA03011AD0937A03F0030308
:1056F00009B143F0040343F008039910013B917290
:105700000D2B0BD8DFE803F01E0719070A141E1E25
:10571000140A0719071ED368013BD36010BC7047F9
:10572000937A03F003030029E7D043F00403E4E78E
:10573000D36810BC023BD3607047D36810BC0233FF
:10574000D3607047D36810BC0133D360704700BF8B
:105750001495FF1F1F4B10B4DA6D13685068197849
:105760000478507A137A044201EA03011AD0937A3A
:1057700003F0030309B143F0040343F00803991055
:10578000013B91720D2B0BD8DFE803F01E071907C0
:105790000A141E1E140A0719071ED368013BD360A2
:1057A00010BC7047937A03F003030029E7D043F05D
:1057B0000403E4E7D36810BC023BD3607047D368AE
:1057C00010BC0233D3607047D36810BC0133D36080
:1057D000704700BF1495FF1F1F4B10B41A6E13685B
:1057E000506819780478507A137A044201EA030168
:1057F0001AD0937A03F0030309B143F0040343F092
:1058000008039910013B91720D2B0BD8DFE803F0D0
:105810001E0719070A141E1E140A0719071ED3684B
:10582000013BD36010BC7047937A03F00303002957
:10583000E7D043F00403E4E7D36810BC023BD36035
:105840007047D36810BC0233D3607047D36810BC74
:105850000133D360704700BF1495FF1F1F4B10B476
:105860005A6E1368506819780478507A137A044293
:1058700001EA03011AD0937A03F0030309B143F05C
:10588000040343F008039910013B91720D2B0BD8D0
:10589000DFE803F01E0719070A141E1E140A071971
:1058A000071ED368013BD36010BC7047937A03F0A6
:1058B00003030029E7D043F00403E4E7D36810BCF6
:1058C000023BD3607047D36810BC0233D36070478B
:1058D000D36810BC0133D360704700BF1495FF1F1D
:1058E0001F4B10B49A6E1368506819780478507A78
:1058F000137A044201EA03011AD0937A03F00303F6
:1059000009B143F0040343F008039910013B91727D
:105910000D2B0BD8DFE803F01E0719070A141E1E13
:10592000140A0719071ED368013BD36010BC7047E7
:10593000937A03F003030029E7D043F00403E4E77C
:10594000D36810BC023BD3607047D36810BC0233ED
:10595000D3607047D36810BC0133D360704700BF79
:105960001495FF1F1F4B10B4DA6E13685068197836
:105970000478507A137A044201EA03011AD0937A28
:1059800003F0030309B143F0040343F00803991043
:10599000013B91720D2B0BD8DFE803F01E071907AE
:1059A0000A141E1E140A0719071ED368013BD36090
:1059B00010BC7047937A03F003030029E7D043F04B
:1059C0000403E4E7D36810BC023BD3607047D3689C
:1059D00010BC0233D3607047D36810BC0133D3606E
:1059E000704700BF1495FF1F1F4B10B41A6F136848
:1059F000506819780478507A137A044201EA030156
:105A00001AD0937A03F0030309B143F0040343F07F
:105A100008039910013B91720D2B0BD8DFE803F0BE
:105A20001E0719070A141E1E140A0719071ED36839
:105A3000013BD36010BC7047937A03F00303002945
:105A4000E7D043F00403E4E7D36810BC023BD36023
:105A50007047D36810BC0233D3607047D36810BC62
:105A60000133D360704700BF1495FF1F1F4B10B464
:105A70005A6F1368506819780478507A137A044280
:105A800001EA03011AD0937A03F0030309B143F04A
:105A9000040343F008039910013B91720D2B0BD8BE
:105AA000DFE803F01E0719070A141E1E140A07195F
:105AB000071ED368013BD36010BC7047937A03F094
:105AC00003030029E7D043F00403E4E7D36810BCE4
:105AD000023BD3607047D36810BC0233D360704779
