:1000000000800020BD010000B9F0000071F0000088
:1000100071F0000071F0000071F0000071F000005C
:1000200071F0000071F0000071F00000B9F0000004
:10003000B9F0000071F00000190901001D0A01006B
:10004000B9F00000B9F00000B9F00000B9F000000C
:10005000B9F00000B9F00000B9F00000B9F00000FC
:10006000B9F00000B9F00000B9F00000B9F00000EC
:10007000B9F00000B9F00000B9F00000B9F00000DC
:10008000B9F00000B9F00000B9F00000B9F00000CC
:10009000B9F00000B9F00000B9F00000B9F00000BC
:1000A000B9F00000B9F00000B9F00000B9F00000AC
:1000B000B9F00000B9F00000B9F00000B9F000009C
:1000C000B9F00000B9F00000B9F00000B9F000008C
:1000D000B9F00000B9F00000B9F00000B9F000007C
:1000E000B9F00000B9F00000B9F00000B9F000006C
:1000F000B9F00000750B0100B9F00000A10C01007F
:10010000B9F00000CD0D0100B9F00000B9F0000019
:10011000B9F00000B9F00000B9F00000B9F000003B
:10012000B9F00000B9F00000B9F00000B9F000002B
:10013000B9F00000B9F00000B9F00000B9F000001B
:10014000B9F00000B9F00000B9F00000B9F000000B
:10015000B9F00000B9F00000B9F00000B9F00000FB
:10016000B9F0000079F80000B9F00000B9F0000023
:10017000B9F00000B9F00000B9F00000B9F00000DB
:10018000B9F00000B9F00000B9F00000B9F00000CB
:10019000B9F00000B9F00000B9F00000B9F00000BB
:1001A000B9F00000B9F00000B9F00000B9F00000AB
:1001B000B9F00000B9F00000B9F00000564B4CF265
:1001C000205210B51A804DF628121A8000BF00BFC9
:1001D0000EF076FF514B4FF010621A60504A9A6051
:1001E000504ADA60504A136813F4807304D14F49BF
:1001F0000B604FF4A85313604D4B1A78110703D5C9
:100200001A7842F008021A704A4B4B492A221A7097
:100210004A4A4B4B8B4204D252F8040F43F8040B6A
:10022000F8E7484B484900228B4202D243F8042B9E
:10023000FAE74649464A002352F8230041F82300D2
:1002400001336F2BF8D1434B434A802103F8011B44
:100250009342FBD1414B3D4A1A60414B8A221A70AE
:10026000A3F5805324225A70A0221A709A7992071B
:10027000FCD59A79D406FCD43A4A937903F00C035E
:10028000082B384BF9D105221A7143225A719A79F9
:100290009006FCD5334A9179324B4906FBD5324A58
:1002A0004FF0817111600521516020221A709A79F6
:1002B00002F00C020C2AFAD12C4B2D4A1A602D4B5D
:1002C0002D4A1A6000225A60072243F8042C2B4A58
:1002D000C3F80C2D62B60FF085F9144B1B68DA07D2
:1002E00005D527480FF012F8264B274A1A60274BEE
:1002F0001B785B0609D5234C234B22689A4204D114
:100300001F480FF003F80023236012F031FE0EF0B7
:10031000DDFE0EF00BFEFEE70E20054030800440AF
:10032000823F04000100002B10D0034014D0034092
:1003300002D0074000E00740E491FF1F1C4E01007F
:100340002087FF1FE491FF1F6096FF1F0082FF1FA1
:100350000000000000E400E05FE400E008ED00E0E1
:1003600000500640004006404480044004800440A1
:10037000C010050014E000E03F190100000020203B
:100380006BC9DB5D1CE00340A5C3945A00F0074035
:10039000FFFFFFFFFFFFFFFFFFFFFFFFFFFFFFFF6D
:1003A000FFFFFFFFFFFFFFFFFFFFFFFFFFFFFFFF5D
:1003B000FFFFFFFFFFFFFFFFFFFFFFFFFFFFFFFF4D
:1003C000FFFFFFFFFFFFFFFFFFFFFFFFFFFFFFFF3D
:1003D000FFFFFFFFFFFFFFFFFFFFFFFFFFFFFFFF2D
:1003E000FFFFFFFFFFFFFFFFFFFFFFFFFFFFFFFF1D
:1003F000FFFFFFFFFFFFFFFFFFFFFFFFFFFFFFFF0D
:10040000FFFFFFFFFFFFFFFFFFFFFFFFDEF9FFFF23
:1004100010B5054C237833B9044B13B10448AFF33E
:1004200000800123237010BDE491FF1F0000000035
:10043000184E0100084B10B51BB108490848AFF32E
:1004400000800848036803B910BD074B002BFBD0A0
:10045000BDE81040184700BF00000000E891FF1FF2
:10046000184E0100E491FF1F0000000030B4DDE9E8
:100470000245C0E91223C0E9144530BC704700BFF3
:10048000836B10B50446186803685B689847A36BD4
:10049000586803685B689847A36B986803685B6853
:1004A0009847A36BD8680368BDE810405B6818479D
:1004B0002DE9F04FC04D8BB0296809910446099889
:1004C0006168401ACDE9062312F012F92B680893EF
:1004D000089B63600022B94BCDE9040112F0FAFBDE
:1004E000002800F09E81D4E91A231046194611F025
:1004F000C3FF06460F4602460B46D4E9120112F02E
:1005000097FA002282468B46AD4BD4E9160112F0D1
:1005100065F9002280468946A94BD4E9180112F0FA
:100520005DF902460B464046494611F0A5FFD4E965
:10053000142312F053F932463B4612F079FA06467C
:100540000F4602460B465046594611F093FF32467D
:100550003B46804689465046594611F08DFF064677
:100560000F46A26BE36B9B1A9B10042B00F0788163
:100570001521944810F010F802250B21924810F034
:100580000BF842464B46009590480EF045FB0B2178
:100590008F4810F001F832463B4600958B480EF02C
:1005A0003BFB0B218B480FF0F7FF42464B46009573
:1005B00086480EF031FB0B2187480FF0EDFF3246E5
:1005C0003B46009581480EF027FB012183480FF040
:1005D000E3FFA26BE36B9B1A2B41AB4200F0268139
:1005E000CDE90267C246CB4617217D4802250FF0B0
:1005F000D3FF0B2174480FF0CFFF42464B460095C6
:1006000072480EF009FB0B2171480FF0C5FFDDE9C0
:10061000022300956D480EF0FFFA0B216D480FF094
:10062000BBFF52465B46009568480EF0F5FA0B2179
:1006300069480FF0B1FF32463B46009563480EF023
:10064000EBFA012165480FF0A7FFDDE902234046E0
:10065000494611F011FF52465B4611F00DFF32463C
:100660003B4611F009FF00225E4B12F0B7F84246FC
:100670004B464FF000084FF00009C4E90A89C4E96D
:100680000801DDE9020111F0F5FE52465B4611F06A
:10069000F1FE32463B4611F0EFFE0022514B12F0C4
:1006A0009DF8002206460F46454BD4E9160112F08C
:1006B00095F8002280468946414BD4E9180112F092
:1006C0008DF802460B464046494611F0D5FE0246DB
:1006D0000B463046394612F0ABF9C4E90C0117213C
:1006E0003F480FF059FF04213F480FF055FFD4E970
:1006F0000823364800950EF08FFA08213B480FF08A
:100700004BFFD4E90C23314800950EF085FA012106
:1007100032480FF041FFD4E90C23DDE9060112F065
:100720005DF8D4E9062311F0A7FE80468946C4E9A6
:10073000068910F001FDD4E9086702460B463046F1
:10074000394612F04BF8DDE904AB52465B4612F035
:1007500045F802460B46D4E9020111F08DFEC4E9CA
:1007600002014046494610F031FD02460B46304634
:10077000394612F033F852465B4612F02FF8024623
:100780000B46D4E9040111F077FEC4E904011721F6
:1007900013480FF001FF032115480FF0FDFED4E9C7
:1007A00002230A4800950EF037FA032111480FF092
:1007B000F3FED4E904231FE06893FF1F00407F404D
:1007C0000000E03F483F0100603F0100E888FF1F54
:1007D0006C3F0100783F0100843F0100903F010021
:1007E000943F01000000D03FAC3F0100B43F010046
:1007F000C03F0100C43F01002F4800950EF00CFAE5
:1008000007212E480FF0C8FED4E906232A48009598
:100810000EF002FA01212A480FF0BEFE0BB0BDE82F
:10082000F08F00260027B046B9469AE61368002BE1
:100830003ED0D3E904015368002B36D0D3E904AB92
:10084000CDE902AB9368002B2CD0D3E904ABD3687D
:1008500080468946002B3FF4C7AED3E90467C3E660
:10086000106828B10368424619684B468847A26B56
:10087000506828B10368324619683B468847A26B26
:10088000906828B10368424619684B468847A26BB6
:10089000D06800283FF46CAE0368324619683B46C6
:1008A000884765E6C246CB46D1E7CDE90267C9E78E
:1008B00040464946BFE700BFE888FF1FC83F010028
:1008C000903F01002DE9F04DDDE90845DDE90A67BB
:1008D00080469B46924607F077FE064BC8F80030EC
:1008E000C8E916ABC8E91845C8E91A674046BDE82B
:1008F000F08D00BF3C3F010043680B7043681B0A4A
:100900004B70C3888B70C379CB7083680B7183681D
:100910001B0A4B7143898B71C37ACB7108207047D6
:100920000B7843604A7843EA022343608A7843EABB
:1009300002434360CA7843EA026343600B798360F1
:100940004A7943EA022383608A7943EA0243836057
:10095000CA7943EA02638360082070470048704701
:100960003C400100004870474C400100F0B50C4687
:100970000A788280064614F8010F002342EA00221A
:10098000B2801A4614F8010F98400833202B42EA2F
:100990000002F7D1971D062F58D901F1050E551DFC
:1009A00073464C1913F8010F03F8010CA342F9D157
:1009B00000234B5518460D44C6F808E015F8014FC2
:1009C00084400830202843EA0403F7D1381D03444B
:1009D000834209D909320A440446013412F8015FFE
:1009E00002F8015CA342F8D80138CF18002408446B
:1009F00007F8014C2246F06017F8015B9540083279
:100A0000202A44EA0504F7D1181D0444A04209D263
:100A100003330B440246013213F8015F03F8015C13
:100A2000A242F8D30D1901380844002305F8013C0F
:100A30003061A8786B780A5DED78010441EA032300
:100A4000134343EA0563201D7361F0BD551D01F199
:100A5000050EADE700487047704001000048704740
:100A60008C4001000B78F0B40371002306460C465D
:100A70001D4614F8012F9A400833202B45EA020541
:100A8000F7D1681D052801F1040708D92C1D3B4644
:100A90000C4413F8012F03F8012C9C42F9D10D44AA
:100AA00000232B71B760F0BC704700BF004870474F
:100AB000B040010000487047C44001000023F0B47A
:100AC00006464C1E1D4614F8012F9A400833202B71
:100AD00045EA0205F7D1281D042801F1030708D9CA
:100AE000EC1C3B460C4413F8012F03F8012C9C42EC
:100AF000F9D10D440023EB707760F0BC704700BF64
:100B000000487047EC41010000487047E840010090
:100B100070B5064640680D4612F0F2FF6A1E0446A4
:100B2000002324FA03F10833202B02F8011FF8D127
:100B30007168281D22460EF001FA201D70BD00BF0D
:100B400070B503790B70064680680D4612F0D8FF29
:100B50002A460446002324FA03F10833202B02F826
:100B6000011FF8D1B168681D22460EF0E7F9601D3B
:100B700070BD00BFF8B583880B7083881B0A4B706B
:100B8000064680680D4612F0BBFF030E010A020CF8
:100B90006B71A8702A71E97002460446B168A81DFD
:100BA0000EF0CCF9F06812F0ABFF611D024629444B
:100BB0000634002322FA03F00833202B01F8010F3A
:100BC000F8D104342819F16814440EF0B7F93069EB
:100BD00012F096FF2A190746002327FA03F108337B
:100BE000202B02F8011BF8D1043428193A46316948
:100BF0000EF0A4F9381973692B540544190A1A0C1C
:100C00001B0E6970AA70EB700430F8BD08460FF037
:100C100047BD00BF0FF05ABC2DE9F041632984B0F5
:100C200003DD90F8F878002F53D0136805460F467F
:100C300010461B6805F223419847C2B2C0F3072152
:100C4000561885F81E2447F30722F643FF234FF07A
:100C5000FE0EFCB285F82224421C85F8206485F83B
:100C60001F1485F81C3485F81DE485F821440DDB3C
:100C700000F22241294405F22143002201E013F849
:100C8000014F99422244FAD1D343DBB22A1800F132
:100C90000807B7F5806F82F823341EDC002F05F2B9
:100CA0001C4616DD0730DFF85C80064405F21B4465
:100CB00003E00FF0F5FCB4420BD06A6814F8011F92
:100CC00013681B6843450846F3D010469847B44262
:100CD000F3D1384604B0BDE8F08108490191084AD3
:100CE0002B68039203218DF808101B68284601AA7F
:100CF000072198474FF0FF30ECE700BF08400100A4
:100D00000C4101000D0C000038B504460D460BF0F7
:100D1000AFF82046034B40F8103B29460EF0A8F8E8
:100D2000204638BD384001002DE9F04FA3B00F46F2
:100D3000BF4C0168149415970D680493BD4B2C9C0F
:100D4000039200269D42824680F8086940F058834D
:100D5000384612F0D5FE334605460AF2224225FAFD
:100D600003F10833202B02F8011FF8D139462E1D5C
:100D70002A460AF227400EF0E1F8F1B2C6F3072046
:100D80000A18D243FF238AF81E14FE278AF820246B
:100D900006218AF81F040022701C8AF81C348AF885
:100DA0001D748AF821148AF82224C0F2278505F2DE
:100DB000264050440AF2214301E013F8011F9842F3
:100DC0000A44FAD1D243D2B20AEB06030836B6F58A
:100DD000806F83F8232400F3AD84002E0AF21C47B1
:100DE00016DD0B352F44944E0AF21B4503E00FF03D
:100DF00057FCAF420CD0DAF8042015F8011F136835
:100E00001B68B3420846F2D010469847AF42F2D171
:100E1000DFF838B2DFF83882DBF800300A930A9B3B
:100E2000E31801939AF8083900931946002B40F013
:100E30004D82DAF80030814A5B68934240F0338299
:100E4000DBF800300C93DDF83090DAF8003942F628
:100E5000F822C3EB0903934284BF0B468AF8F838A3
:100E6000DAF8E43833B1DAF80439994502D90023C5
:100E7000CAF8E438DAF818203AB1DBF800301093F9
:100E8000109BC9EB03039A4226D3DAF804000368E7
:100E90005B69434540F0DE800FF018FB0028C0F28C
:100EA000DD80DAF8F438DAF8E4280344072ACAF8CF
:100EB000F43800F03D81002A7ED1FF2800F0B08197
:100EC000DBF800300F930F9B41F28831C9EB03032D
:100ED0008B42CFD98AF8F828DBF800300993099BB8
:100EE000019A9A429ED2564A1C92564CDAF8003029
:100EF0001E9402228DF874201B684E49DDF8009084
:100F00008B4240F08582002324218AF8232404F1B7
:100F100020078AF824148AF825348AF826348AF8B7
:100F200027340AF5856526460FCEBE4228606960E3
:100F3000AA60EB60344605F11005F4D130682860F2
:100F400000222920D623FF25FE2407218AF81E042B
:100F50008AF820348AF81C548AF81D448AF81F2421
:100F60008AF822248AF821140AF221430AF24B401B
:100F700001E013F8011F98420A44FAD1D2432E4EE1
:100F80008AF84C240AF21B440AF24C4503E00FF0A5
:100F900087FBAC420CD0DAF8042014F8011F136868
:100FA0001B68B3420846F2D010469847AC42F2D1D3
:100FB000484623B0BDE8F08F012A00F0CD80022A18
:100FC00000F03681032A00F03E81042A00F04581BA
:100FD000052A00F05181062A00F05681082A7FF484
:100FE00049AF194A1A4000239A42CAF8E438C0F2BD
:100FF000DD81FF2A7FF43EAFDAF8EC38002B00F0F9
:101000002B830A2B00F00C82062B00F041820B2B65
:1010100000F0FA8103F5DE735AF8230000283FF44C
:1010200029AF03680AF11C011B68984722E700BF3B
:1010300020400100190C00000D0C000041240000AC
:101040000840010048410100FF0000806893FF1F35
:10105000150C000098470028BFF623AF9AF8F8381F
:10106000002B3FF439AFDAF8FC3840F6C412C3EB7A
:10107000090393427FF630AFCF4ADAF800301C9272
:101080001B68CE4900228B421D921E9240F0B38114
:10109000FF210820F723FE248AF81C140A218AF86D
:1010A0001E048AF820348AF823248AF824248AF833
:1010B00025248AF826248AF827248AF828248AF8FE
:1010C00029248AF82A248AF81F248AF822248AF8F4
:1010D0001D448AF821140AF221430AF22A4001E051
:1010E00013F8011F98420A44FAD1D243B44C8AF84B
:1010F0002B240AF21B460AF22B4503E00FF0D0FA2C
:10110000AE420CD0DAF8042016F8011F13681B68F1
:10111000A3420846F2D010469847AE42F2D1DBF81F
:1011200000300B930B9BCAF8FC98CAF80C30D3E63E
:10113000DAF8F0380AEB03020133CAF8F038107716
:10114000DAF8E838013BCAF8E838002B7FF492AEB1
:101150000823CAF8E4388DE6FE2800F089809AF862
:10116000F8280023CAF8E438002A7FF483AE9249B5
:10117000DAF800301C911B6890491D928B421E9238
:1011800040F09980FF210820F723FE248AF81C14E0
:101190000A218AF81E048AF820348AF823248AF85F
:1011A00024248AF825248AF826248AF827248AF811
:1011B00028248AF829248AF82A248AF81F248AF8FD
:1011C00022248AF81D448AF821140AF221430AF2E3
:1011D0002A4001E013F8011F98420A44FAD1D24391
:1011E000774D8AF82B240AF21B440AF22B4603E0BF
:1011F0000FF056FAA6420CD0DAF8042014F8011FBA
:1012000013681B68AB420846F2D010469847A642C6
:10121000F2D1DBF800300E930E9BCAF80C3029E6B1
:10122000012209F11403CAF8E428CAF8043921E6B6
:1012300000220323CAF8E808CAF8F408CAF8F0281C
:10124000CAF8E43816E6DAF8E83803EB002004239D
:10125000CAF8E808CAF8E4380CE65A4A1A40002AE4
:1012600024DBFF2A7FF403AE0523CAF8E43801E645
:101270000223CAF8E438FDE50623CAF8EC08CAF8E8
:10128000F408CAF8E438F5E5DAF8EC38DAF8E828D2
:1012900003EB00230721CAF8EC38CAF8E418002A47
:1012A0003FF456AFE6E55046984715E6013A62F03E
:1012B000FF020132D5E71CAA0A2150469847DBF805
:1012C00000300E930E9BCAF80C30D3E5DAF81C39C7
:1012D0000499DDF800908B427AD03B4A1C923B4C3B
:1012E000DAF800301E9402228DF874201B6833490E
:1012F0008B4240F0AC81002324218AF8232404F19E
:1013000020078AF824148AF825348AF826348AF8C3
:1013100027340AF5856526460FCEBE4228606960EF
:10132000AA60EB60344605F11005F4D130682860FE
:1013300000222920D623FF25FE2407218AF81E0437
:101340008AF820348AF81C548AF81D448AF81F242D
:101350008AF822248AF821140AF221430AF24B4027
:1013600001E013F8011F98420A44FAD1D243144E07
:101370008AF84C240AF21B440AF24C4503E00FF0B1
:101380008FF9AC420CD0DAF8042014F8011F13686E
:101390001B68B3420846F2D010469847AC42F2D1DF
:1013A0004FF00009484623B0BDE8F08F013A62F0E3
:1013B000FF0201321DE600BFD83F0100190C0000FA
:1013C0000D0C0000FF00008008400100704101008A
:1013D00000297FF7EDADDAF82439039A03EB810099
:1013E000043A53F8041B42F8041F9842F9D14846C6
:1013F00023B0BDE8F08F1CAA0A21504698478EE61C
:1014000014AA0621A84703E500238AF8F83831E535
:1014100050461CAA07219847484623B0BDE8F08FE4
:10142000DBF800301193119BDAF80C20DAF8206019
:10143000BA4CDBF8001013919B1AB94A139DDAF8E5
:101440001C10A2FB0302344492094FF47A70B54E8B
:1014500000FB123306FB0343B14CA4FB0564A40953
:1014600000FB14500139AF4D0A44514605FB1033BF
:10147000121BCAF810200AF1100041F8143F07F0BF
:101480008FF8DBF800301293129BCAF80039F1E4B0
:10149000DAF81C50DAF810399D420AF11C0406D91A
:1014A000A900DAF8180912F0BBF8CAF81809CAF846
:1014B0001059002D00F021810AF61416204604234D
:1014C0000025827947790179120442EA0722C77917
:1014D0000A4342EA0762CAF81429DAF8182931687F
:1014E00042F82510DAF810290135AA42194600F110
:1014F000040003F10403E4D8059301F10B0301F1A7
:101500000806029301F10C03354601F1050E01F1C5
:10151000060CC81D01F1090701F10A02069314F82F
:101520000C10059B14F80EE014F803C0235CDAF8E5
:101530001C09090441EA0E2141EA0C0C4CEA036340
:1015400083420AD99900DAF824090792059312F028
:1015500067F8079A059BCAF82409CAF81C39002BBA
:1015600000F01B840AF51266611900208B784F7811
:101570000A781B0443EA0723CF78134343EA07633F
:10158000CAF82039DAF82439326843F82020DAF82A
:101590001C29013082422B4601F1040105F10405AA
:1015A000E4D8D91D2E465F1D9A1D029103F108054E
:1015B000A15CE05D029AA35DA65CDAF82829090423
:1015C00041EA00210B4343EA0666964206D9B10080
:1015D000DAF8300912F024F8CAF83009CAF8286994
:1015E0008EB3002007460AF62C160023194604EB9A
:1015F000050E1EF8012B9A400833202B41EA020108
:10160000F7D105F1040E71448E4509D2EB1C234439
:101610007246013213F8015F03F8015C8A42F8D385
:1016200063180EF1FF3203F8017C2244DAF83039F6
:10163000CAF82C29326843F82020DAF8283901301A
:1016400083420D46D1D801238AF8083912E4504666
:101650001CAA07219847A3E6DAF8001032481C902C
:101660000C6832491D938C421E9340F0CA800820BA
:10167000F721FE248AF81C240A228AF81E048AF81C
:1016800020148AF823348AF824348AF825348AF816
:1016900026348AF827348AF828348AF829348AF8D4
:1016A0002A348AF81F348AF822348AF81D448AF8CA
:1016B00021240AF221410AF22A4001E011F8012F07
:1016C00088421344FAD1DB43194C8AF82B340AF2CE
:1016D0001B460AF22B4504E00EF0E2FFB54200F093
:1016E0009480DAF8042016F8011F13681B68A342DF
:1016F0000846F1D010469847F0E70C2306930B23D9
:1017000008260293042335460A22092707204FF0B2
:10171000060C4FF0050E059301E700BF00CA9A3B87
:10172000D34D621040420F00D83F0100190C000059
:101730000D0C0000A04A1C92A04DDAF800301E9556
:1017400003228DF874201B689D498B4240F027834B
:10175000002338218AF8232405F1300E8AF8241456
:101760008AF825348AF826348AF827340AF58567FA
:101770002E460FCE764538607960BA60FB603546FC
:1017800007F11007F4D103CDFF22386079603D20C6
:101790000023C221FE258AF81C2407228AF81E0491
:1017A0008AF820148AF81D548AF81F348AF82234E3
:1017B0008AF821240AF221410AF25F4001E011F87F
:1017C000012F88421344FAD1DB437E4E8AF86034FD
:1017D0000AF21B450AF58C6704E00EF061FFBD427A
:1017E0003FF416ABDAF8042015F8011F13681B68E4
:1017F000B3420846F1D010469847F0E71A46FFF783
:10180000E3BA1CAA0A215046A047DBF800300D932A
:101810000D9A6D4BCAF80C2000226C49ADF874206B
:1018200021921E931F9320930AF67C020AF6180356
:10183000CDF814901C910292994659F8043F002B60
:1018400000F0D88058681C6801689A681E948B68FC
:10185000ADF874209847D9F800301F905868036895
:10186000DB689847DAF80030D9F8001020904FF480
:1018700080621B680C692192514A9342074640F0EE
:10188000AC81632C04DD9AF8F838002B00F0B280AC
:10189000BDF874301E9D8AF823341B0A8AF824345C
:1018A000284612F02DF90646330E320C000A29465E
:1018B0008AF828348AF825648AF826048AF82724C6
:1018C0000AF2294032460DF039FB1F99069108466D
:1018D00012F016F90AF2234502460699701D2844B3
:1018E0000636002322FA03FE0833202B00F801EF0E
:1018F000F8D10436A81916440DF020FB384612F032
:10190000FFF8A9190346002223FA02F00832202A20
:1019100001F8010BF8D1043639461A46A819069386
:101920000DF00CFB069B9919081DC0F307275FFA01
:1019300080FE6A180EEB07030026DB434FF0040C11
:101940006E5482F801C09670D6704FF0FE0CE2B271
:101950008AF8203444F307248AF81F744FF0FF33C9
:10196000471C8AF81EE48AF81C348AF81DC48AF8D9
:1019700021248AF82244C0F2F78101F2264454441B
:101980000AF2214301E013F8012F9C421644FAD1D8
:10199000F343DBB20AEB00020830B0F5806F82F847
:1019A000233400F37F8100280AF21C4422DD0B312E
:1019B0000C440AF21B450FE0084001000C410100F5
:1019C000190C00000D0C0000BC3F0100F03F0100AD
:1019D0000EF066FEAC420DD0DAF80420CA48136857
:1019E00015F8011F1B6883420846F1D0104698473E
:1019F000AC42F1D1029B99457FF41FAFDDF8149002
:101A0000CDF818900AF50E63DDF80890059359F8A3
:101A1000040F002800F0D2808168036842681E919C
:101A2000ADF874209B689847D9F800301F901A6869
:101A30001846D3689847D9F80030DAF8001020909B
:101A40001A680D6852684FF48061184621919047DA
:101A5000AE4B9D42044640F0C580632804DD9AF8F1
:101A6000F838002B00F0AA80BDF874301E9D8AF86B
:101A700023341B0A8AF82434284612F041F806461B
:101A8000330E320C000A29468AF828348AF8256475
:101A90008AF826048AF827240AF2294032460DF0F3
:101AA0004DFA1F990291084612F02AF80AF22345CE
:101AB000721D0299074606362A44002327FA03F0CE
:101AC0000833202B02F8010FF8D104363A46A81942
:101AD0000DF034FA20990291084612F011F83E44B4
:101AE00002990746AA19002327FA03F00833202B8E
:101AF00002F8010BF8D104363A46A8190DF01EFA87
:101B0000BA19111D5FFA81FEC1F307272198A85465
:101B10000EEB0703AE18DB434FEA104C0293030AA7
:101B2000000EF070E0B244F30724737086F802C030
:101B3000FF234FF0FE0C9DF808608AF822444C1CED
:101B40008AF820648AF81EE48AF81F748AF81C3424
:101B50008AF81DC48AF821040DDB02F22646564499
:101B60000AF22143002401E013F8010F9E420444CD
:101B7000FAD1E343DBB20AEB01000831B1F5806F23
:101B800080F8233433DC00290AF21C4516DD0B32C1
:101B900015440AF21B4603E00EF082FDAE420DD062
:101BA000DAF804205848136816F8011F1B688342AE
:101BB0000846F1D010469847AE42F1D1059B9945B1
:101BC0007FF425AFDDF81890CAF8FC980123CAF815
:101BD00000998AF8F838FFF77FB921461CAA5046C9
:101BE000984707E701461CAA5046A847E6E7484938
:101BF00016910322DAF8003046498DF85C201891DE
:101C00001B68424A934240F0B180294616A8FEF76D
:101C100097FFC1B2C0F307240A19D243FF238AF801
:101C20001E14FE258AF8202407218AF81F44421C2E
:101C30004FF000048AF81C348AF81D548AF82114E5
:101C40008AF822440DDB00F22242234652440AF273
:101C5000214401E014F8011FA2420B44FAD1DB43F6
:101C6000DBB20AEB000200F10801B1F5806F82F8E7
:101C7000233400F3838000290AF21C449EDDC31D37
:101C80001C440AF21B45DAF804201F48136815F8B3
:101C9000011F1B68834208466DD10EF001FDA5426D
:101CA000F1D18BE71A4916910322DAF8003019496D
:101CB0008DF85C2018911B68144A934275D129460F
:101CC00016A8FEF73DFFC1B2C0F307240A19FE258E
:101CD000D243FF238AF81E148AF81F4407210024E8
:101CE0008AF81D54451C8AF820248AF81C348AF886
:101CF00021148AF8224416DB00F222422346524481
:101D00000AF221440AE000BF0D0C0000190C00008B
:101D1000084001000C41010014F8011FA2420B44CD
:101D2000FAD1DB43DBB20AEB000200F10801B1F5A6
:101D3000806F82F8233440DC00290AF21C447FF7CC
:101D400059AE073004440AF21B45DAF80420224851
:101D5000136815F8011F1B68834208462AD10EF04C
:101D60009FFCA542F1D145E6FF2313E616AA072101
:101D70005046984722E71046984790E7174919912F
:101D80000322DAF8003016491B918DF868201B6891
:101D900019AA07215046984710E7069D08E41CAA97
:101DA000072150469847FFF733B816AA0721504637
:101DB00098471FE610469847D3E708491991032230
:101DC000DAF8003006491B918DF868201B6819AAC3
:101DD0000721504698470DE60D0C00000840010011
:101DE0000C4101002DE9F041DFF8A48086B00446E3
:101DF0000D4604F11007414602A80DF025F83946BA
:101E000002A80DF07DF81F490DF082F84FF47A76A4
:101E1000221D0123016800962846FEF785FF02A8CF
:101E20000CF0D2FF414602A80DF00EF8394602A888
:101E30000DF066F814490DF06BF804F10802012367
:101E4000016800962846FEF76FFF02A80CF0BCFF61
:101E5000414602A80CF0F8FF394602A80DF050F8F0
:101E60000A490DF055F804F10C02016800960123AF
:101E70002846FEF759FF02A80CF0A6FF06B0BDE801
:101E8000F08100BF9C410100B8410100D441010034
:101E9000984101002DE9F04F8DB0D04AD04B069209
:101EA0000022044600F6180600F67C05ADF81C205A
:101EB0000B92089309930A9356F8043F002B00F005
:101EC000D28058681F6801689A6808978B68ADF8D7
:101ED0001C2098473368099058680368DB68984766
:101EE000236831680A904FF480621B68D1F8108033
:101EF0000B92BC4A9342824640F0B581B8F1630F21
:101F000004DD94F8F838002B00F0AD80BDF81C30EB
:101F1000DDF8209084F823341B0A84F824344846E2
:101F200011F0EEFD07463B0E3A0C000A494684F8D4
:101F3000283484F8257484F8260484F8272404F2CD
:101F400029403A460CF0FAFFDDF824B0584611F06B
:101F5000D7FD04F22349791D024606374944002380
:101F600022FA03F00833202B01F8010FF8D10437CF
:101F7000594609EB070017440CF0E0FF504611F0FA
:101F8000BFFD09EB0702834600232BFA03F1083358
:101F9000202B02F8011BF8D10437514609EB07004A
:101FA0005A460CF0CBFF0BEB070E0EF104075FFA5D
:101FB00087FAC7F3072C09EB0E010AEB0C0000228D
:101FC000C0434FF0040B09F80E20FF238A70CA703B
:101FD00081F801B04FF0FE095FFA88F184F820041F
:101FE00048F30728781C84F81EA484F81FC484F8DA
:101FF0001C3484F81D9484F8211484F82284C0F2DF
:102000000A820EF22640204404F2214301E013F834
:10201000011F98420A44FAD1D243D2B2E11907F122
:102020000803B3F5806F81F8232400F32481002B8B
:1020300004F21C4717DD0EF10B0EDFF8AC9177446C
:1020400004F21B4803E00EF02BFB47450BD06268FF
:1020500018F8011F13681B684B450846F3D010465B
:1020600098474745F3D1B5427FF426AFDFF8749126
:1020700004F50E6855F8040F002800F0E38081682D
:10208000036842680891ADF81C209B6898472B684C
:1020900009901A681846D36898472B6821680A90F7
:1020A0001A680E6852684FF4806118460B91904789
:1020B0004E45074640F0CF80632804DD94F8F83899
:1020C000002B00F0BF80BDF81C30089E84F823343C
:1020D0001B0A84F82434304611F012FD82464FEA80
:1020E0001A634FEA1A42000A314684F8283484F809
:1020F00025A484F8260484F8272404F229405246B3
:102100000CF01CFF09990191084611F0F9FC04F24A
:1021100023460AF10502019983460AF1060A324470
:1021200000232BFA03F00833202B02F8010FF8D11B
:102130000AF1040A5A4606EB0A000CF0FFFE0A995F
:102140000191084611F0DCFCD3440199824606EB6C
:102150000B0200232AFA03F00833202B02F8010BAC
:10216000F8D10BF1040B06EB0B0052460CF0E6FE27
:102170000AEB0B020B9BB354111D16445FFA81FC52
:10218000C1F3072E4FEA132B4FEA134A0CEB0E0054
:102190001B0E86F801B086F802A0F370C043FEB2B1
:1021A0004FF0FF0B4FF0FE0A47F307274B1C84F854
:1021B000200484F81EC484F81FE484F81CB484F856
:1021C0001DA484F8216484F8227418DB02F22647E7
:1021D000274404F2214300200AE000BFF03F010041
:1021E000BC3F0100190C00000D0C000013F8016F3A
:1021F000BB423044FAD16FEA000B5FFA8BFB6318E5
:102200000831B1F5806F83F823B400F3A080002972
:1022100004F21C4716DD0B32DFF820A2174404F24B
:102220001B4603E00EF03CFABE420BD0626816F883
:10223000011F13681B6853450846F3D010469847A2
:10224000BE42F3D1A8457FF415AF012384F8F838D6
:102250000DB0BDE8F08F014606AA2046B047A8455C
:102260007FF408AFF1E7414606AA20469847B542F9
:102270007FF422AEFAE66E49039103226D4923688A
:1022800005918DF810201B686B498B4240F0CA8085
:10229000684F84F823240023382207F1300884F89B
:1022A000242484F8253484F8263484F8273404F56B
:1022B000856EBC46BCE80F00C445CEF80000CEF8E1
:1022C0000410CEF80820CEF80C3067460EF1100E40
:1022D000EFD103CF0022CEF80000CEF804103D204D
:1022E000C2234FF0FF0CFE27072184F81E0484F858
:1022F000203484F81CC484F81D7484F81F2484F8E6
:10230000222484F8211404F2214304F25F4001E006
:1023100013F8011F98420A44FAD1D243DFF81C9106
:1023200084F8602404F21B4704F58C6804E00EF086
:10233000B7F947453FF497AE626817F8011F136875
:102340001B684B450846F2D010469847F1E73849DC
:10235000039103222368374905918DF810201B68EB
:102360004B455AD1002384F8232438220E4601F12C
:10237000300C84F8242484F8253484F8263484F836
:10238000273404F58567B646BEE80F00E645386099
:102390007960BA60FB60764607F11007F3D103CE8F
:1023A0000022386079603D20C2234FF0FF0EFE26E8
:1023B000072184F81E0484F8203484F81CE484F88F
:1023C0001D6484F81F2484F8222484F8211404F264
:1023D000214304F25F4001E013F8011F98420A44D0
:1023E000FAD1D243DFF854A084F8602404F21B46EB
:1023F00004F58C6704E00EF053F9BE423FF422AFBF
:10240000626816F8011F13681B6853450846F2D02E
:1024100010469847F1E71A4600E603AA072120462E
:1024200098470FE703AA0721204698471BE600BFFD
:10243000084001000C410100190C00000D0C0000C7
:102440002DE9F04FC84E93B033680693069DD0F83F
:10245000003942F6F822EB1A934284BF002380F839
:10246000F838D0F8E438044633B1D0F80439AB4238
:102470003CBF0023C0F8E438BC4FDFF800B3A269CA
:1024800032B133680793079B5B1B9A42C0F02581EA
:10249000606803685B69BB4267D10EF017F80028DB
:1024A00066DBD4F8F438D4F8E4280344072AC4F8E7
:1024B000F43848D082B9FF286AD033680893089B63
:1024C00041F288315B1B8B42D9D984F8F8286FF030
:1024D000010013B0BDE8F08F012A61D0022A00F09C
:1024E000C080032A00F0C880042A00F0CF80052AAB
:1024F00000F0DC80062A00F0E180082ABFD19C4A67
:102500001A4000239A42C4F8E438C0F26281FF2ADC
:10251000B5D1D4F8EC38002B00F094820A2B00F0EF
:102520005E82062B00F05E810B2B00F0578103F5D5
:10253000DE7354F823000028A1D0036804F11C01C5
:102540001B6898479BE7D4F8F038E2180133C4F8C9
:10255000F0381077D4F8E838013BC4F8E838002B9D
:102560008DD10823C4F8E43889E79847002898DA21
:1025700094F8F8080028ACD0D4F8FC3840F6C4121F
:10258000EB1A934200F2AE80002013B0BDE8F08F4A
:10259000012205F11403C4F8E428C4F804396EE7F5
:1025A000FE287FD094F8F8280023C4F8E438002AE5
:1025B0007FF465AF6F4923680F911B686E491092D5
:1025C0008B42119240F00081FF210820F7234FF049
:1025D000FE0E84F81C140A2184F81E0484F82034AA
:1025E00084F8232484F8242484F8252484F82624D9
:1025F00084F8272484F8282484F8292484F82A24B9
:1026000084F81F2484F8222484F81DE484F821141B
:1026100004F2214304F22A4001E013F8011F98421A
:102620000A44FAD1D243DFF8589184F82B2404F2FB
:102630001B4804F22B4A03E00EF032F8C2450BD0DF
:10264000626818F8011F13681B684B450846F3D0F1
:1026500010469847C245F3D133680993099BE3605C
:102660000DE700220323C4F8E808C4F8F408C4F80E
:10267000F028C4F8E43802E7D4F8E83803EB002087
:102680000423C4F8E808C4F8E438F8E6384A1A40E5
:10269000002AC0F28680FF2A0CBF05230023C4F85D
:1026A000E438ECE60223C4F8E438E8E60623C4F88C
:1026B000EC08C4F8F408C4F8E438E0E6D4F8EC38E0
:1026C000D4F8E82803EB00230721C4F8EC38C4F859
:1026D000E418002A3FF445AFD1E66FF0010013B0D3
:1026E000BDE8F08F234A23680F921B68224900221D
:1026F0008B421092119259D1FF210820F723FE2717
:1027000084F81C140A2184F81E0484F8203484F808
:10271000232484F8242484F8252484F8262484F8A7
:10272000272484F8282484F8292484F82A2484F887
:102730001F2484F8222484F81D7484F8211404F2E0
:10274000214304F22A4001E013F8011F98420A4491
:10275000FAD1D243DFF8288084F82B2404F21B47F7
:1027600004F22B4912E000BF6893FF1F150C000014
:10277000FF000080D83F0100190C000040420F000C
:102780000D0C00000DF08CFFB94513D0626817F8EE
:10279000011F13681B6843450846F3D0104698474D
:1027A000F2E7013A62F0FF02013274E70FAA0A2150
:1027B0002046984733680B930B9BC4F8FC580020C5
:1027C000E36013B0BDE8F08F0FAA0A2120469847B6
:1027D00042E7013A62F0FF02013298E6002384F8F2
:1027E000F8384CE6D4F81C90D4F81039994504F127
:1027F0001C0807D94FEA8901D4F8180910F010FF16
:10280000C4F81809C4F81099B9F1000F00F0358127
:1028100004F6141C424604214FF0000E937992F8FE
:10282000059010791B0443EA092392F807900343AB
:1028300043EA0963C4F81439D4F81839DCF8000005
:1028400043F82E00D4F810390EF1010E73450846F6
:1028500002F1040201F10401E0D8039100F10B013F
:1028600000F1090200F10803029100F10C0101924C
:10287000994600F1050E00F1060C00F1070A00F17F
:102880000A02049118F80C00039918F80EE018F8E1
:1028900001C018F80AA0D4F81C19000440EA0E2060
:1028A00040EA0C0C4CEA0A6A8A450BD94FEA8A01C5
:1028B000D4F824090592039310F0B2FE059A039B05
:1028C000C4F82409C4F81CA9BAF1000F00F0D280A2
:1028D00004F5126E08EB09020021937892F801C00A
:1028E00010781B0443EA0C2392F803C0034343EA25
:1028F0000C63C4F82039D4F82439DEF8000043F81A
:102900002100D4F81C3901318B42484602F10402FF
:1029100009F10409E1D8421DC11D4B460192029103
:10292000821D00F1080918F80200019A18F8033016
:1029300018F80210029A000418F802A0D4F8282906
:1029400040EA01210B4343EA0A6A924507D94FEA5C
:102950008A01D4F8300910F063FEC4F83009C4F8D5
:1029600028A9BAF1000F36D000218E4604F62C10AB
:1029700000231A4608EB090A1AF801CB0CFA03FCEB
:102980000833202B42EA0C02F6D109F1040C624410
:1029900094450BD209F103034344E14609F10109CF
:1029A00013F801AF03F801AC9145F7D308EB02032C
:1029B0000CF1FF3C03F801ECC444D4F83039C4F8FE
:1029C0002CC9D0F800C043F821C0D4F8283901310F
:1029D0008B429146CCD8012384F808394FE53368FF
:1029E0000C930C9BE2682E48D4F820C031680E91FD
:1029F0009A1AA0FB02E02B4BDDF83880E1694FF416
:102A00007A7E80090EFB102263440BFB0232244BBA
:102A1000A3FB083C4FEA9C1C013908440EFB1C83B5
:102A200021460BFB1323CCEB0002226104F11000C2
:102A300041F8143F05F0B4FD33680D930D9BC4F8C5
:102A400000391CE5226818490F91109311930A214F
:102A5000136820460FAA984733680A930A9BE360DD
:102A60002046FFF717FAC4F8FC58C4F800594FF095
:102A7000FF302EE5DDF8109055E70C2209210823E0
:102A8000049201910B220421029299460A224FF0EE
:102A9000070A4FF0060C4FF0050E0391F2E600BF57
:102AA000D34D621000CA9A3BD83F010038B50446A6
:102AB0000D4609F0DDF92046034B40F8643B2946FA
:102AC0000CF0D6F9204638BD704401002DE9F04FD6
:102AD000A3B00F46BF4C0168149415970D6804937A
:102AE000BD4B2C9C039200269D42824680F80869CB
:102AF00040F05883384611F003F8334605460AF291
:102B0000224225FA03F10833202B02F8011FF8D1E5
:102B100039462E1D2A460AF227400CF00FFAF1B270
:102B2000C6F307200A18D243FF238AF81E14FE2793
:102B30008AF8202406218AF81F040022701C8AF8D3
:102B40001C348AF81D748AF821148AF82224C0F2F1
:102B5000278505F2264050440AF2214301E013F88C
:102B6000011F98420A44FAD1D243D2B20AEB0603BB
:102B70000836B6F5806F83F8232400F3AD84002E69
:102B80000AF21C4716DD0B352F44944E0AF21B4502
:102B900003E00DF085FDAF420CD0DAF8042015F803
:102BA000011F13681B68B3420846F2D010469847CD
:102BB000AF42F2D1DFF838B2DFF83882DBF800300C
:102BC0000A930A9BE31801939AF80839009319466F
:102BD000002B40F04D82DAF80030814A5B68934266
:102BE00040F03382DBF800300C93DDF83090DAF8F7
:102BF000003942F6F822C3EB0903934284BF0B4627
:102C00008AF8F838DAF8E43833B1DAF80439994553
:102C100002D90023CAF8E438DAF818203AB1DBF810
:102C200000301093109BC9EB03039A4226D3DAF8C5
:102C3000040003685B69434540F0DE800DF046FC0C
:102C40000028C0F2DD80DAF8F438DAF8E42803442A
:102C5000072ACAF8F43800F03D81002A7ED1FF2807
:102C600000F0B081DBF800300F930F9B41F2883108
:102C7000C9EB03038B42CFD98AF8F828DBF8003080
:102C80000993099B019A9A429ED2564A1C92564C2D
:102C9000DAF800301E9402228DF874201B684E4929
:102CA000DDF800908B4240F08582002324218AF8D1
:102CB000232404F120078AF824148AF825348AF89A
:102CC00026348AF827340AF5856526460FCEBE429B
:102CD00028606960AA60EB60344605F11005F4D104
:102CE0003068286000222920D623FF25FE240721F2
:102CF0008AF81E048AF820348AF81C548AF81D4485
:102D00008AF81F248AF822248AF821140AF221431F
:102D10000AF24B4001E013F8011F98420A44FAD12D
:102D2000D2432E4E8AF84C240AF21B440AF24C4538
:102D300003E00DF0B5FCAC420CD0DAF8042014F836
:102D4000011F13681B68B3420846F2D0104698472B
:102D5000AC42F2D1484623B0BDE8F08F012A00F022
:102D6000CD80022A00F03681032A00F03E81042A39
:102D700000F04581052A00F05181062A00F05681B5
:102D8000082A7FF449AF194A1A4000239A42CAF828
:102D9000E438C0F2DD81FF2A7FF43EAFDAF8EC3888
:102DA000002B00F02B830A2B00F00C82062B00F086
:102DB00041820B2B00F0FA8103F5DE735AF82300F1
:102DC00000283FF429AF03680AF11C011B689847EB
:102DD00022E700BF20400100190C00000D0C00008C
:102DE000412400000840010048410100FF0000802C
:102DF0006893FF1F150C000098470028BFF623AF0B
:102E00009AF8F838002B3FF439AFDAF8FC3840F67E
:102E1000C412C3EB090393427FF630AFCF4ADAF80E
:102E200000301C921B68CE4900228B421D921E92DC
:102E300040F0B381FF210820F723FE248AF81C14F8
:102E40000A218AF81E048AF820348AF823248AF892
:102E500024248AF825248AF826248AF827248AF844
:102E600028248AF829248AF82A248AF81F248AF830
:102E700022248AF81D448AF821140AF221430AF216
:102E80002A4001E013F8011F98420A44FAD1D243C4
:102E9000B44C8AF82B240AF21B460AF22B4503E0B5
:102EA0000DF0FEFBAE420CD0DAF8042016F8011F3C
:102EB00013681B68A3420846F2D010469847AE42FA
:102EC000F2D1DBF800300B930B9BCAF8FC98CAF8E0
:102ED0000C30D3E6DAF8F0380AEB03020133CAF813
:102EE000F0381077DAF8E838013BCAF8E838002BF8
:102EF0007FF492AE0823CAF8E4388DE6FE2800F08D
:102F000089809AF8F8280023CAF8E438002A7FF468
:102F100083AE9249DAF800301C911B6890491D92EB
:102F20008B421E9240F09980FF210820F723FE2457
:102F30008AF81C140A218AF81E048AF820348AF8B8
:102F400023248AF824248AF825248AF826248AF857
:102F500027248AF828248AF829248AF82A248AF837
:102F60001F248AF822248AF81D448AF821140AF2C0
:102F700021430AF22A4001E013F8011F98420A4453
:102F8000FAD1D243774D8AF82B240AF21B440AF275
:102F90002B4603E00DF084FBA6420CD0DAF80420A7
:102FA00014F8011F13681B68AB420846F2D01046A4
:102FB0009847A642F2D1DBF800300E930E9BCAF878
:102FC0000C3029E6012209F11403CAF8E428CAF8F2
:102FD000043921E600220323CAF8E808CAF8F408F5
:102FE000CAF8F028CAF8E43816E6DAF8E83803EB4D
:102FF00000200423CAF8E808CAF8E4380CE65A4A64
:103000001A40002A24DBFF2A7FF403AE0523CAF806
:10301000E43801E60223CAF8E438FDE50623CAF8DD
:10302000EC08CAF8F408CAF8E438F5E5DAF8EC3840
:10303000DAF8E82803EB00230721CAF8EC38CAF8CD
:10304000E418002A3FF456AFE6E55046984715E6E7
:10305000013A62F0FF020132D5E71CAA0A2150466C
:103060009847DBF800300E930E9BCAF80C30D3E57E
:10307000DAF810390499DDF800908B427AD03B4A97
:103080001C923B4CDAF800301E9402228DF874201A
:103090001B6833498B4240F0AC81002324218AF81D
:1030A000232404F120078AF824148AF825348AF8A6
:1030B00026348AF827340AF5856526460FCEBE42A7
:1030C00028606960AA60EB60344605F11005F4D110
:1030D0003068286000222920D623FF25FE240721FE
:1030E0008AF81E048AF820348AF81C548AF81D4491
:1030F0008AF81F248AF822248AF821140AF221432C
:103100000AF24B4001E013F8011F98420A44FAD139
:10311000D243144E8AF84C240AF21B440AF24C455E
:1031200003E00DF0BDFAAC420CD0DAF8042014F83C
:10313000011F13681B68B3420846F2D01046984737
:10314000AC42F2D14FF00009484623B0BDE8F08F01
:10315000013A62F0FF0201321DE600BFD83F0100D4
:10316000190C00000D0C0000FF0000800840010059
:103170007041010000297FF7EDADDAF81839039AA4
:1031800003EB8100043A53F8041B42F8041F9842F1
:10319000F9D1484623B0BDE8F08F1CAA0A21504659
:1031A00098478EE614AA0621A84703E500238AF86B
:1031B000F83831E550461CAA07219847484623B005
:1031C000BDE8F08FDBF800301193119BDAF80C208A
:1031D000DAF82060BA4CDBF8001013919B1AB94A58
:1031E000139DDAF81C10A2FB0302344492094FF439
:1031F0007A70B54E00FB123306FB0343B14CA4FBBF
:103200000564A40900FB14500139AF4D0A4451462E
:1032100005FB1033121BCAF810200AF1100041F808
:10322000143F05F0BDF9DBF800301293129BCAF889
:103230000039F1E4DAF81C50DAF810399D420AF14D
:103240001C0406D9A900DAF8180910F0E9F9CAF83F
:103250001809CAF81059002D00F021810AF6141639
:10326000204604230025827947790179120442EA35
:103270000722C7790A4342EA0762CAF81429DAF832
:103280001829316842F82510DAF810290135AA42C8
:10329000194600F1040003F10403E4D8059301F199
:1032A0000B0301F10806029301F10C03354601F10D
:1032B000050E01F1060CC81D01F1090701F10A0212
:1032C000069314F80C10059B14F80EE014F803C0D4
:1032D000235CDAF81C09090441EA0E2141EA0C0CCE
:1032E0004CEA036383420AD99900DAF82409079269
:1032F000059310F095F9079A059BCAF82409CAF8B6
:103300001C39002B00F01B840AF51266611900209D
:103310008B784F780A781B0443EA0723CF7813434E
:1033200043EA0763CAF82039DAF82439326843F8E7
:103330002020DAF81C29013082422B4601F10401D9
:1033400005F10405E4D8D91D2E465F1D9A1D029192
:1033500003F10805A15CE05D029AA35DA65CDAF8C2
:103360002829090441EA00210B4343EA06669642F4
:1033700006D9B100DAF8300910F052F9CAF830096C
:10338000CAF828698EB3002007460AF62C160023D7
:10339000194604EB050E1EF8012B9A400833202B2A
:1033A00041EA0201F7D105F1040E71448E4509D2BC
:1033B000EB1C23447246013213F8015F03F8015CF1
:1033C0008A42F8D363180EF1FF3203F8017C2244DD
:1033D000DAF83039CAF82C29326843F82020DAF8B4
:1033E0002839013083420D46D1D801238AF80839A3
:1033F00012E450461CAA07219847A3E6DAF8001009
:1034000032481C900C6832491D938C421E9340F048
:10341000CA800820F721FE248AF81C240A228AF890
:103420001E048AF820148AF823348AF824348AF88F
:1034300025348AF826348AF827348AF828348AF81A
:1034400029348AF82A348AF81F348AF822348AF810
:103450001D448AF821240AF221410AF22A4001E09F
:1034600011F8012F88421344FAD1DB43194C8AF832
:103470002B340AF21B460AF22B4504E00DF010F93A
:10348000B54200F09480DAF8042016F8011F1368A2
:103490001B68A3420846F1D010469847F0E70C237A
:1034A00006930B2308260293042335460A22092794
:1034B00007204FF0060C4FF0050E059301E700BF03
:1034C00000CA9A3BD34D621040420F00D83F010022
:1034D000190C00000D0C0000A04A1C92A04DDAF857
:1034E00000301E9503228DF874201B689D498B4285
:1034F00040F02783002338218AF8232405F1300E79
:103500008AF824148AF825348AF826348AF827346D
:103510000AF585672E460FCE764538607960BA6029
:10352000FB60354607F11007F4D103CDFF22386068
:1035300079603D200023C221FE258AF81C24072241
:103540008AF81E048AF820148AF81D548AF81F3459
:103550008AF822348AF821240AF221410AF25F40D3
:1035600001E011F8012F88421344FAD1DB437E4E6B
:103570008AF860340AF21B450AF58C6704E00DF006
:103580008FF8BD423FF416ABDAF8042015F8011F9E
:1035900013681B68B3420846F1D010469847F0E71D
:1035A0001A46FFF7E3BA1CAA0A215046A047DBF8E7
:1035B00000300D930D9A6D4BCAF80C2000226C4917
:1035C000ADF8742021921E931F9320930AF67C027B
:1035D0000AF61803CDF814901C910292994659F8F6
:1035E000043F002B00F0D88058681C6801689A6876
:1035F0001E948B68ADF874209847D9F800301F905E
:1036000058680368DB689847DAF80030D9F800108A
:1036100020904FF480621B680C692192514A9342BA
:10362000074640F0AC81632C04DD9AF8F838002B93
:1036300000F0B280BDF874301E9D8AF823341B0A56
:103640008AF82434284610F05BFA0646330E320C12
:10365000000A29468AF828348AF825648AF826045C
:103660008AF827240AF2294032460BF067FC1F999A
:103670000691084610F044FA0AF2234502460699DC
:10368000701D28440636002322FA03FE0833202B3F
:1036900000F801EFF8D10436A81916440BF04EFCDF
:1036A000384610F02DFAA9190346002223FA02F039
:1036B0000832202A01F8010BF8D1043639461A469F
:1036C000A81906930BF03AFC069B9919081DC0F344
:1036D00007275FFA80FE6A180EEB07030026DB431C
:1036E0004FF0040C6E5482F801C09670D6704FF003
:1036F000FE0CE2B28AF8203444F307248AF81F74DF
:103700004FF0FF33471C8AF81EE48AF81C348AF80D
:103710001DC48AF821248AF82244C0F2F78101F2FC
:10372000264454440AF2214301E013F8012F9C423D
:103730001644FAD1F343DBB20AEB00020830B0F5CD
:10374000806F82F8233400F37F8100280AF21C4442
:1037500022DD0B310C440AF21B450FE0084001004A
:103760000C410100190C00000D0C0000BC3F0100D1
:10377000F03F01000CF094FFAC420DD0DAF80420C9
:10378000CA48136815F8011F1B6883420846F1D028
:1037900010469847AC42F1D1029B99457FF41FAF88
:1037A000DDF81490CDF818900AF50E63DDF8089056
:1037B000059359F8040F002800F0D280816803684F
:1037C00042681E91ADF874209B689847D9F8003084
:1037D0001F901A681846D3689847D9F80030DAF86D
:1037E000001020901A680D6852684FF480611846E6
:1037F00021919047AE4B9D42044640F0C58063281E
:1038000004DD9AF8F838002B00F0AA80BDF8743077
:103810001E9D8AF823341B0A8AF82434284610F0A7
:103820006FF90646330E320C000A29468AF828340E
:103830008AF825648AF826048AF827240AF229409F
:1038400032460BF07BFB1F990291084610F058F9A5
:103850000AF22345721D0299074606362A440023C0
:1038600027FA03F00833202B02F8010FF8D10436B1
:103870003A46A8190BF062FB20990291084610F015
:103880003FF93E4402990746AA19002327FA03F09C
:103890000833202B02F8010BF8D104363A46A81958
:1038A0000BF04CFBBA19111D5FFA81FEC1F307271B
:1038B0002198A8540EEB0703AE18DB434FEA104CD7
:1038C0000293030A000EF070E0B244F30724737011
:1038D00086F802C0FF234FF0FE0C9DF808608AF8BE
:1038E00022444C1C8AF820648AF81EE48AF81F746B
:1038F0008AF81C348AF81DC48AF821040DDB02F210
:10390000264656440AF22143002401E013F8010F31
:103910009E420444FAD1E343DBB20AEB01000831D2
:10392000B1F5806F80F8233433DC00290AF21C459E
:1039300016DD0B3215440AF21B4603E00CF0B0FE14
:10394000AE420DD0DAF804205848136816F8011F6B
:103950001B6883420846F1D010469847AE42F1D129
:10396000059B99457FF425AFDDF81890CAF8FC98BF
:103970000123CAF800998AF8F838FFF77FB9214681
:103980001CAA5046984707E701461CAA5046A8477C
:10399000E6E7484916910322DAF8003046498DF8E7
:1039A0005C2018911B68424A934240F0B18029463E
:1039B00016A8FDF7C5F8C1B2C0F307240A19D2430F
:1039C000FF238AF81E14FE258AF8202407218AF88E
:1039D0001F44421C4FF000048AF81C348AF81D541E
:1039E0008AF821148AF822440DDB00F22242234691
:1039F00052440AF2214401E014F8011FA2420B4490
:103A0000FAD1DB43DBB20AEB000200F10801B1F5A9
:103A1000806F82F8233400F3838000290AF21C446B
:103A20009EDDC31D1C440AF21B45DAF804201F4822
:103A3000136815F8011F1B68834208466DD10CF00E
:103A40002FFEA542F1D18BE71A4916910322DAF82D
:103A5000003019498DF85C2018911B68144A934274
:103A600075D1294616A8FDF76BF8C1B2C0F307243B
:103A70000A19FE25D243FF238AF81E148AF81F4430
:103A8000072100248AF81D54451C8AF820248AF84E
:103A90001C348AF821148AF8224416DB00F22242F0
:103AA000234652440AF221440AE000BF0D0C0000F4
:103AB000190C0000084001000C41010014F8011F1E
:103AC000A2420B44FAD1DB43DBB20AEB000200F165
:103AD0000801B1F5806F82F8233440DC00290AF236
:103AE0001C447FF759AE073004440AF21B45DAF84C
:103AF00004202248136815F8011F1B6883420846FA
:103B00002AD10CF0CDFDA542F1D145E6FF2313E605
:103B100016AA07215046984722E71046984790E793
:103B2000174919910322DAF8003016491B918DF8D4
:103B300068201B6819AA07215046984710E7069D80
:103B400008E41CAA072150469847FFF733B816AA85
:103B50000721504698471FE610469847D3E7084983
:103B600019910322DAF8003006491B918DF868207C
:103B70001B6819AA0721504698470DE60D0C000056
:103B8000084001000C4101002DE9F04F82469FB032
:103B90000AF164031D460C461AA8BB4903930BF0B7
:103BA00053F929461AA80BF0ABF9B8490BF0B0F954
:103BB000B74A07682368159216971B68B54A00260E
:103BC000934284F8086940F0538538460FF098FF17
:103BD0003346054604F2224225FA03F10833202B2E
:103BE00002F8011FF8D139462E1D2A4604F227405B
:103BF0000BF0A4F9F1B2C6F307200A18D243FF2351
:103C000084F81E14FE2784F82024062184F81F045B
:103C10000022701C84F81C3484F81D7484F821146C
:103C200084F82224C0F2198705F22640204404F2C9
:103C3000214301E013F8011F83420A44FAD1D24321
:103C4000D2B2A3190836B6F5806F83F8232400F3A7
:103C50009D86002E04F21C4711DD0B358E4E2F443D
:103C600004F21B45626815F8011F13681B68B34214
:103C7000084640F087860CF013FDAF42F2D1DFF822
:103C80002CB2DFF82C92DBF800300B930B9BCDF8B5
:103C900010A003F57A739A4694F80829002A40F098
:103CA0003D8223687D495B688B4240F02582DBF8CA
:103CB00000300D93DDF83480D4F8003942F6F82155
:103CC000C3EB08038B42D4F8E43888BF84F8F828A3
:103CD00033B1D4F80439984502D90023C4F8E43844
:103CE000A2693AB1DBF800301193119BC8EB0303D2
:103CF0009A4225D3606803685B694B4540F0DA80DF
:103D00000CF0E4FB0028C0F2D980D4F8F438D4F8E1
:103D1000E4280344072AC4F8F43800F03681002A66
:103D200077D1FF2800F0A581DBF800301093109BBD
:103D300041F28831C8EB03038B42D1D984F8F828CB
:103D4000DBF800300A930A9B9A45A5D2544A179291
:103D5000544D2368199502228DF860201B684D4947
:103D6000DDF810A08B4240F07E840023242184F8EB
:103D7000232405F1200E84F8241484F8253484F8D3
:103D8000263484F8273404F585662F460FCF77450F
:103D900030607160B260F3603D4606F11006F4D108
:103DA00038683060FF2129200022D623FE2584F8C0
:103DB0001C14072184F81E0484F8203484F81D5450
:103DC00084F81F2484F8222484F8211404F2214367
:103DD00004F24B4001E013F8011F98420A44FAD163
:103DE000D2432D4E84F84C2404F21B4504F24C4778
:103DF00004E00CF055FCBD4200F00D82626815F83D
:103E0000011F13681B68B3420846F2D0104698475A
:103E1000F1E7012A00F0CC80022A00F03281032A67
:103E200000F03A81042A00F04181052A00F04D811A
:103E3000062A00F05281082A7FF452AF1A4A1A402B
:103E400000239A42C4F8E438C0F2CE81FF2A7FF4FE
:103E500047AFD4F8EC38002B00F045850A2B00F072
:103E60001284062B00F058840B2B00F0078403F516
:103E7000DE7354F8230000283FF432AF036804F1E6
:103E80001C011B6898472BE798410100084201007C
:103E900020400100190C00000D0C0000412400001E
:103EA0000840010048410100FF0000806893FF1FA7
:103EB000150C000098470028BFF627AF94F8F83893
:103EC000002B3FF43DAFD4F8FC3840F6C412C3EBEE
:103ED000080393427FF634AFC64A236817921B68E3
:103EE000C54900228B421892199240F0B085FF21FB
:103EF0000820F723FE2584F81C140A2184F81E04E8
:103F000084F8203484F8232484F8242484F8252495
:103F100084F8262484F8272484F8282484F8292483
:103F200084F82A2484F81F2484F8222484F81D5459
:103F300084F8211404F2214304F22A4001E013F82A
:103F4000011F98420A44FAD1D243AC4D84F82B2485
:103F500004F21B4704F22B4603E00CF0A1FBB7422E
:103F60000BD0626817F8011F13681B68AB42084644
:103F7000F3D010469847B742F3D1DBF800300C93EA
:103F80000C9BC4F8FC88E360DAE6D4F8F038E21859
:103F90000133C4F8F0381077D4F8E838013BC4F89E
:103FA000E838002B7FF49CAE0823C4F8E43897E689
:103FB000FE2800F0868094F8F8280023C4F8E4383E
:103FC000002A7FF48DAE8B49236817911B688A49BC
:103FD00018928B42199240F09780FF210820F72316
:103FE000FE2584F81C140A2184F81E0484F8203469
:103FF00084F8232484F8242484F8252484F82624AF
:1040000084F8272484F8282484F8292484F82A248E
:1040100084F81F2484F8222484F81D5484F8211481
:1040200004F2214304F22A4001E013F8011F9842F0
:104030000A44FAD1D243714E84F82B2404F21B4572
:1040400004F22B4703E00CF02BFBAF420BD062686D
:1040500015F8011F13681B68B3420846F3D01046D9
:104060009847AF42F3D1DBF800300F930F9BE3602A
:1040700036E6012208F11403C4F8E428C4F8043930
:104080002EE600220323C4F8E808C4F8F408C4F8B4
:10409000F028C4F8E43823E6D4F8E83803EB00202D
:1040A0000423C4F8E808C4F8E43819E6544A1A406E
:1040B000002A24DBFF2A7FF410AE0523C4F8E4387D
:1040C0000EE60223C4F8E4380AE60623C4F8EC0836
:1040D000C4F8F408C4F8E43802E6D4F8EC38D4F8AC
:1040E000E82803EB00230721C4F8EC38C4F8E418EF
:1040F000002A3FF459AFF3E52046984720E6013AFD
:1041000062F0FF020132D5E717AA0A21204698473C
:10411000DBF800300F930F9BE360E1E5D4F81C3926
:10412000DDF810A0012B71D0364A1792364D236866
:10413000199502228DF860201B682F498B4240F0B0
:1041400092820023242184F8232405F1200E84F890
:10415000241484F8253484F8263484F8273404F5AC
:1041600085662F460FCF774530607160B260F3608F
:104170003D4606F11006F4D138683060FF21292051
:104180000022D623FE2584F81C14072184F81E047F
:1041900084F8203484F81D5484F81F2484F82224E1
:1041A00084F8211404F2214304F24B4001E013F897
:1041B000011F98420A44FAD1D243104E84F84C248D
:1041C00004F21B4504F24C4703E00CF069FAAF42DD
:1041D00021D0626815F8011F13681B68B3420846B6
:1041E000F3D010469847F2E7013A62F0FF0201323D
:1041F0002CE600BFD83F0100190C00000D0C000098
:10420000FF0000800840010070410100D4F824390B
:104210001B68CAF804301AA80AF0D6FDC0491AA8CB
:104220000AF012FE039E1AA831460AF069FEBD4943
:104230000AF06EFE4FF47A750AF108020123016854
:1042400000952046FEF742FC1AA80AF0BDFDB449CD
:104250001AA80AF0F9FD31461AA80AF051FEB2492F
:104260000AF056FE0AF10C0201230168009520466F
:10427000FEF72CFC1AA80AF0A7FDA9491AA80AF013
:10428000E3FD31461AA80AF03BFEA8490AF040FEB9
:104290000AF110020123016800952046FEF716FC82
:1042A0001AA80AF091FD9E491AA80AF0CDFD3146E0
:1042B0001AA80AF025FE9E490AF02AFE0AF1140205
:1042C0000123016800952046FEF700FC1AA80AF0B9
:1042D0007BFD93491AA80AF0B7FD31461AA80AF0E7
:1042E0000FFE94490AF014FE0AF118020123016836
:1042F00000952046FEF7EAFB1AA80AF065FD8849FA
:104300001AA80AF0A1FD31461AA80AF0F9FD8A4957
:104310000AF0FEFD0AF11C02012301680095204607
:10432000FEF7D4FB1AA80AF04FFD7D491AA80AF03F
:104330008BFD31461AA80AF0E3FD80490AF0E8FD3A
:104340000AF120020123016800952046FEF7BEFB1A
:104350001AA80AF039FD72491AA80AF075FD31460B
:104360001AA80AF0CDFD76490AF0D2FD0AF124021E
:104370000123016800952046FEF7A8FB1AA80AF061
:1043800023FD67491AA80AF05FFD31461AA80AF012
:10439000B7FD6C490AF0BCFD0AF12802012301684F
:1043A00000952046FEF792FB1AA80AF00DFD5C4925
:1043B0001AA80AF049FD31461AA80AF0A1FD62497F
:1043C0000AF0A6FD0AF12C0201230168009520469F
:1043D000FEF77CFB1AA80AF0F7FC51491AA80AF06C
:1043E00033FD31461AA80AF08BFD58490AF090FDBA
:1043F0000AF130020123016800952046FEF766FBB2
:104400001AA80AF0E1FC46491AA80AF01DFD314637
:104410001AA80AF075FD4E490AF07AFD0AF1340235
:104420000123016800952046FEF750FB1AA80AF008
:10443000CBFC3B491AA80AF007FD31461AA80AF03E
:104440005FFD44490AF064FD0AF138020123016866
:1044500000952046FEF73AFB1AA80AF0B5FC304951
:104460001AA80AF0F1FC31461AA80AF049FD3A49A7
:104470000AF04EFD0AF13C02012301680095204636
:10448000FEF724FB1AA80AF09FFC25491AA80AF097
:10449000DBFC31461AA80AF033FD30490AF038FD3A
:1044A0000AF140020123016800952046FEF70EFB49
:1044B0001AA80AF089FC1A491AA80AF0C5FC314664
:1044C0001AA80AF01DFD26490AF022FD0AF144024D
:1044D0000123016800952046FEF7F8FA1AA80AF0B1
:1044E00073FC0F491AA80AF0AFFC31461AA80AF06B
:1044F00007FD1C490AF00CFD0AF14802012301687E
:1045000000952046FEF7E2FA1AA80AF05DFC04497D
:104510001AA80AF099FC31461AA80AF0F1FC23E027
:1045200098410100104201001C4201002842010094
:1045300040420100584201007442010090420100D3
:10454000AC420100C8420100E0420100004301000A
:10455000204301003C430100584301007043010027
:104560008C430100A843010061490AF0D1FC0AF123
:104570004C020123016800952046FEF7A7FA1AA80D
:104580000AF022FC5B491AA80AF05EFC31461AA820
:104590000AF0B6FC58490AF0BBFC0AF150020123AC
:1045A000016800952046FEF791FA1AA80AF00CFC63
:1045B00050491AA80AF048FC31461AA80AF0A0FC93
:1045C0004E490AF0A5FC0AF1540201230168009546
:1045D0002046FEF77BFA1AA80AF0F6FB45491AA80E
:1045E0000AF032FC31461AA80AF08AFC44490AF063
:1045F0008FFC0AF158020123016800952046FEF75E
:1046000065FA1AA80AF0E0FB3A491AA80AF01CFC5D
:1046100031461AA80AF074FC3A490AF079FC0AF10A
:104620005C020123016800952046FEF74FFA1AA8A4
:104630000AF0CAFB2F491AA80AF006FC31461AA84C
:104640000AF05EFC30490AF063FC0AF1600201687E
:10465000009501232046FEF739FA1AA80AF0B4FBA8
:104660001FB0BDE8F08F17AA072120469847D2E572
:1046700015AA062120469847FFF701BB002384F8BE
:10468000F838FFF72DBBDBF800301293129BE2687D
:104690001E48276A1E4EDBF8001014919A1AA0FBE0
:1046A00002503E444FF47A7580091A4F149BE16919
:1046B00005FB102207FB0262144EA6FB0376B60927
:1046C000013905FB1633134D0844214605FB13231E
:1046D000821B226104F1100041F8143F03F060FFD7
:1046E000DBF800301393139BC4F80039FFF7F8BAD6
:1046F000C443010098410100E0430100F843010078
:1047000014440100304401004C440100D34D6210B8
:1047100000CA9A3B40420F00E669D4F810399E4225
:1047200004F11C0506D9B100D4F818090EF078FF81
:10473000C4F81809C4F81069002E00F0AB8104F623
:104740001417284604230026827990F805E00179A1
:10475000120442EA0E2290F807E00A4342EA0E628F
:10476000C4F81429D4F81829396842F82610D4F866
:1047700010290136B242194600F1040003F1040386
:10478000E2D8079301F10B0301F1090201F10807D7
:10479000069301F10C0305923E4601F1050E01F16D
:1047A000060CC81D01F10A02089315F80C10079BAE
:1047B00015F80EE015F803C02B5CD4F81C090904A9
:1047C00041EA0E2141EA0C0C4CEA036383420AD908
:1047D0009900D4F82409099207930EF021FF099A51
:1047E000079BC4F82409C4F81C39002B00F0508141
:1047F00004F51267AA190021937892F801E0107865
:104800001B0443EA0E2392F803E0034343EA0E63DA
:10481000C4F82039D4F82439386843F82100D4F892
:104820001C3901318B42304602F1040206F10406C4
:10483000E2D8431D0593C31D3746821D069300F140
:104840000806059BA85CE95C069AEB5DAF5CD4F8B2
:104850002829000440EA01210B4343EA07679742F5
:1048600006D9B900D4F830090EF0DAFEC4F83009E0
:10487000C4F8287997B300210F4604F62C100023C2
:104880001A4605EB060C1CF801EB0EFA03FE083382
:10489000202B42EA0E02F6D106F1040E7244964530
:1048A00009D2F31C2B447646013613F801CF03F8E6
:1048B00001CC9642F8D3AB180EF1FF3603F8017C19
:1048C0002E44D4F83039C4F82C69066843F82160C6
:1048D000D4F8283901318B421646D0D8012384F808
:1048E0000839FFF7FDB92168734817900D687349BF
:1048F00018938D42199340F0B9800820F721FE25C6
:1049000084F81C240A2284F81E0484F8201484F8F5
:10491000233484F8243484F8253484F8263484F845
:10492000273484F8283484F8293484F82A3484F825
:104930001F3484F8223484F81D5484F8212404F2AE
:10494000214104F22A4001E011F8012F884213446A
:10495000FAD1DB435A4D84F82B3404F21B4704F29E
:104960002B4604E00BF09CFEB74200F083806268A7
:1049700017F8011F13681B68AB420846F2D01046B7
:104980009847F1E710469847FFF777B94D4A1792D5
:104990004D4D2368199503228DF860201B68474907
:1049A0008B425DD10023382184F8232405F1300E99
:1049B00084F8241484F8253484F8263484F82734C1
:1049C00004F585672E460FCE764538607960BA606B
:1049D000FB60354607F11007F4D103CDFF223860A4
:1049E00079603D200023C221FE2584F81C24072283
:1049F00084F81E0484F8201484F81D5484F81F34AD
:104A000084F8223484F8212404F2214104F25F4026
:104A100001E011F8012F88421344FAD1DB43284EFC
:104A200084F8603404F21B4504F58C6704E00BF055
:104A300037FEBD423FF423A9626815F8011F1368D1
:104A40001B68B3420846F2D010469847F1E717AA10
:104A50000A2120469847FFF790BA1A46FFF7F1B8A7
:104A600017AA072120469847FFF709B917AA0A2174
:104A70002046A847DBF800300E930E9BE3602046EB
:104A8000FDF708FAC4F8FC88C4F80089FFF758B9A4
:104A9000089ED6E60C2308930B23069309230827C8
:104AA000059304233E460A2207204FF0060C4FF0E0
:104AB000050E079379E600BFD83F0100190C0000EE
:104AC0000D0C0000084001000C4101001F4B10B408
:104AD000D3F884201368506819780478507A137AD0
:104AE000044201EA03011AD0937A03F0030309B1E7
:104AF00043F0040343F008039910013B91720D2B1E
:104B00000BD8DFE803F01E0719070A141E1E140A4B
:104B10000719071ED368013BD36010BC7047937A16
:104B200003F003030029E7D043F00403E4E7D3686C
:104B300010BC023BD3607047D36810BC0233D36013
:104B40007047D36810BC0133D3607047E092FF1FF9
:104B50001B4B186810B528B10368996816A3D3E9F0
:104B600000238847174B186828B10368996812A377
:104B7000D3E900238847144B186828B10368996863
:104B80000DA3D3E900238847104B186828B10368A8
:104B9000996809A3D3E9002388470D4B186838B1F9
:104BA0000368BDE81040996803A3D3E900230847D0
:104BB00010BD00BFAFF30080000000A09999A93F8D
:104BC0005892FF1F5C92FF1F6092FF1F6492FF1FAD
:104BD0005492FF1FFFFFFFFF154B186810B528B157
:104BE0000368996810A3D3E900238847114B18681C
:104BF00028B1036899680CA3D3E9002388470E4BBA
:104C0000186828B10368996807A3D3E90023884787
:104C10000A4B186838B10368BDE81040996802A3D0
:104C2000D3E90023084710BD00000040E17A943F1B
:104C30000492FF1F0892FF1F0C92FF1F1092FF1F8C
:104C4000024B186808B108F0F9BC70476892FF1F62
:104C500038B5436A33B1026B044695689060984753
:104C6000236B9D6038BD00BF1F4B10B41A681368DA
:104C7000506819780478507A137A044201EA0301E3
:104C80001AD0937A03F0030309B143F0040343F00D
:104C900008039910013B91720D2B0BD8DFE803F04C
:104CA0001E0719070A141E1E140A0719071ED368C7
:104CB000013BD36010BC7047937A03F003030029D3
:104CC000E7D043F00403E4E7D36810BC023BD360B1
:104CD0007047D36810BC0233D3607047D36810BCF0
:104CE0000133D360704700BFE092FF1F1F4B10B429
:104CF0005A681368506819780478507A137A044215
:104D000001EA03011AD0937A03F0030309B143F0D7
:104D1000040343F008039910013B91720D2B0BD84B
:104D2000DFE803F01E0719070A141E1E140A0719EC
:104D3000071ED368013BD36010BC7047937A03F021
:104D400003030029E7D043F00403E4E7D36810BC71
:104D5000023BD3607047D36810BC0233D360704706
:104D6000D36810BC0133D360704700BFE092FF1FCF
:104D70001F4B10B49A681368506819780478507AF9
:104D8000137A044201EA03011AD0937A03F0030371
:104D900009B143F0040343F008039910013B9172F9
:104DA0000D2B0BD8DFE803F01E0719070A141E1E8F
:104DB000140A0719071ED368013BD36010BC704763
:104DC000937A03F003030029E7D043F00403E4E7F8
:104DD000D36810BC023BD3607047D36810BC023369
:104DE000D3607047D36810BC0133D360704700BFF5
:104DF000E092FF1F1F4B10B4DA68136850681978EF
:104E00000478507A137A044201EA03011AD0937AA3
:104E100003F0030309B143F0040343F008039910BE
:104E2000013B91720D2B0BD8DFE803F01E07190729
:104E30000A141E1E140A0719071ED368013BD3600B
:104E400010BC7047937A03F003030029E7D043F0C6
:104E50000403E4E7D36810BC023BD3607047D36817
:104E600010BC0233D3607047D36810BC0133D360E9
:104E7000704700BFE092FF1F1F4B10B41A69136800
:104E8000506819780478507A137A044201EA0301D1
:104E90001AD0937A03F0030309B143F0040343F0FB
:104EA00008039910013B91720D2B0BD8DFE803F03A
:104EB0001E0719070A141E1E140A0719071ED368B5
:104EC000013BD36010BC7047937A03F003030029C1
:104ED000E7D043F00403E4E7D36810BC023BD3609F
:104EE0007047D36810BC0233D3607047D36810BCDE
:104EF0000133D360704700BFE092FF1F1F4B10B417
:104F00005A691368506819780478507A137A044201
:104F100001EA03011AD0937A03F0030309B143F0C5
:104F2000040343F008039910013B91720D2B0BD839
:104F3000DFE803F01E0719070A141E1E140A0719DA
:104F4000071ED368013BD36010BC7047937A03F00F
:104F500003030029E7D043F00403E4E7D36810BC5F
:104F6000023BD3607047D36810BC0233D3607047F4
:104F7000D36810BC0133D360704700BFE092FF1FBD
:104F80001F4B10B49A691368506819780478507AE6
:104F9000137A044201EA03011AD0937A03F003035F
:104FA00009B143F0040343F008039910013B9172E7
:104FB0000D2B0BD8DFE803F01E0719070A141E1E7D
:104FC000140A0719071ED368013BD36010BC704751
:104FD000937A03F003030029E7D043F00403E4E7E6
:104FE000D36810BC023BD3607047D36810BC023357
:104FF000D3607047D36810BC0133D360704700BFE3
:10500000E092FF1F1F4B10B4DA69136850681978DB
:105010000478507A137A044201EA03011AD0937A91
:1050200003F0030309B143F0040343F008039910AC
:10503000013B91720D2B0BD8DFE803F01E07190717
:105040000A141E1E140A0719071ED368013BD360F9
:1050500010BC7047937A03F003030029E7D043F0B4
:105060000403E4E7D36810BC023BD3607047D36805
:1050700010BC0233D3607047D36810BC0133D360D7
:10508000704700BFE092FF1F1F4B10B41A6A1368ED
:10509000506819780478507A137A044201EA0301BF
:1050A0001AD0937A03F0030309B143F0040343F0E9
:1050B00008039910013B91720D2B0BD8DFE803F028
:1050C0001E0719070A141E1E140A0719071ED368A3
:1050D000013BD36010BC7047937A03F003030029AF
:1050E000E7D043F00403E4E7D36810BC023BD3608D
:1050F0007047D36810BC0233D3607047D36810BCCC
:105100000133D360704700BFE092FF1F1F4B10B404
:105110005A6A1368506819780478507A137A0442EE
:1051200001EA03011AD0937A03F0030309B143F0B3
:10513000040343F008039910013B91720D2B0BD827
:10514000DFE803F01E0719070A141E1E140A0719C8
:10515000071ED368013BD36010BC7047937A03F0FD
:1051600003030029E7D043F00403E4E7D36810BC4D
:10517000023BD3607047D36810BC0233D3607047E2
:10518000D36810BC0133D360704700BFE092FF1FAB
:105190001F4B10B49A6A1368506819780478507AD3
:1051A000137A044201EA03011AD0937A03F003034D
:1051B00009B143F0040343F008039910013B9172D5
:1051C0000D2B0BD8DFE803F01E0719070A141E1E6B
:1051D000140A0719071ED368013BD36010BC70473F
:1051E000937A03F003030029E7D043F00403E4E7D4
:1051F000D36810BC023BD3607047D36810BC023345
:10520000D3607047D36810BC0133D360704700BFD0
:10521000E092FF1F1F4B10B4DA6A136850681978C8
:105220000478507A137A044201EA03011AD0937A7F
:1052300003F0030309B143F0040343F0080399109A
:10524000013B91720D2B0BD8DFE803F01E07190705
:105250000A141E1E140A0719071ED368013BD360E7
:1052600010BC7047937A03F003030029E7D043F0A2
:105270000403E4E7D36810BC023BD3607047D368F3
:1052800010BC0233D3607047D36810BC0133D360C5
:10529000704700BFE092FF1F1F4B10B41A6B1368DA
:1052A000506819780478507A137A044201EA0301AD
:1052B0001AD0937A03F0030309B143F0040343F0D7
:1052C00008039910013B91720D2B0BD8DFE803F016
:1052D0001E0719070A141E1E140A0719071ED36891
:1052E000013BD36010BC7047937A03F0030300299D
:1052F000E7D043F00403E4E7D36810BC023BD3607B
:105300007047D36810BC0233D3607047D36810BCB9
:105310000133D360704700BFE092FF1F1F4B10B4F2
:105320005A6B1368506819780478507A137A0442DB
:1053300001EA03011AD0937A03F0030309B143F0A1
:10534000040343F008039910013B91720D2B0BD815
:10535000DFE803F01E0719070A141E1E140A0719B6
:10536000071ED368013BD36010BC7047937A03F0EB
:1053700003030029E7D043F00403E4E7D36810BC3B
:10538000023BD3607047D36810BC0233D3607047D0
:10539000D36810BC0133D360704700BFE092FF1F99
:1053A0001F4B10B49A6B1368506819780478507AC0
:1053B000137A044201EA03011AD0937A03F003033B
:1053C00009B143F0040343F008039910013B9172C3
:1053D0000D2B0BD8DFE803F01E0719070A141E1E59
:1053E000140A0719071ED368013BD36010BC70472D
:1053F000937A03F003030029E7D043F00403E4E7C2
:10540000D36810BC023BD3607047D36810BC023332
:10541000D3607047D36810BC0133D360704700BFBE
:10542000E092FF1F1F4B10B4DA6B136850681978B5
:105430000478507A137A044201EA03011AD0937A6D
:1054400003F0030309B143F0040343F00803991088
:10545000013B91720D2B0BD8DFE803F01E071907F3
:105460000A141E1E140A0719071ED368013BD360D5
:1054700010BC7047937A03F003030029E7D043F090
:105480000403E4E7D36810BC023BD3607047D368E1
:1054900010BC0233D3607047D36810BC0133D360B3
:1054A000704700BFE092FF1F1F4B10B41A6C1368C7
:1054B000506819780478507A137A044201EA03019B
:1054C0001AD0937A03F0030309B143F0040343F0C5
:1054D00008039910013B91720D2B0BD8DFE803F004
:1054E0001E0719070A141E1E140A0719071ED3687F
:1054F000013BD36010BC7047937A03F0030300298B
:10550000E7D043F00403E4E7D36810BC023BD36068
:105510007047D36810BC0233D3607047D36810BCA7
:105520000133D360704700BFE092FF1F1F4B10B4E0
:105530005A6C1368506819780478507A137A0442C8
:1055400001EA03011AD0937A03F0030309B143F08F
:10555000040343F008039910013B91720D2B0BD803
:10556000DFE803F01E0719070A141E1E140A0719A4
:10557000071ED368013BD36010BC7047937A03F0D9
:1055800003030029E7D043F00403E4E7D36810BC29
:10559000023BD3607047D36810BC0233D3607047BE
:1055A000D36810BC0133D360704700BFE092FF1F87
:1055B0001F4B10B49A6C1368506819780478507AAD
:1055C000137A044201EA03011AD0937A03F0030329
:1055D00009B143F0040343F008039910013B9172B1
:1055E0000D2B0BD8DFE803F01E0719070A141E1E47
:1055F000140A0719071ED368013BD36010BC70471B
:10560000937A03F003030029E7D043F00403E4E7AF
:10561000D36810BC023BD3607047D36810BC023320
:10562000D3607047D36810BC0133D360704700BFAC
:10563000E092FF1F1F4B10B4DA6C136850681978A2
:105640000478507A137A044201EA03011AD0937A5B
:1056500003F0030309B143F0040343F00803991076
:10566000013B91720D2B0BD8DFE803F01E071907E1
:105670000A141E1E140A0719071ED368013BD360C3
:1056800010BC7047937A03F003030029E7D043F07E
:105690000403E4E7D36810BC023BD3607047D368CF
:1056A00010BC0233D3607047D36810BC0133D360A1
:1056B000704700BFE092FF1F1F4B10B41A6D1368B4
:1056C000506819780478507A137A044201EA030189
:1056D0001AD0937A03F0030309B143F0040343F0B3
:1056E00008039910013B91720D2B0BD8DFE803F0F2
:1056F0001E0719070A141E1E140A0719071ED3686D
:10570000013BD36010BC7047937A03F00303002978
:10571000E7D043F00403E4E7D36810BC023BD36056
:105720007047D36810BC0233D3607047D36810BC95
:105730000133D360704700BFE092FF1F1F4B10B4CE
:105740005A6D1368506819780478507A137A0442B5
:1057500001EA03011AD0937A03F0030309B143F07D
:10576000040343F008039910013B91720D2B0BD8F1
:10577000DFE803F01E0719070A141E1E140A071992
:10578000071ED368013BD36010BC7047937A03F0C7
:1057900003030029E7D043F00403E4E7D36810BC17
:1057A000023BD3607047D36810BC0233D3607047AC
:1057B000D36810BC0133D360704700BFE092FF1F75
:1057C0001F4B10B49A6D1368506819780478507A9A
:1057D000137A044201EA03011AD0937A03F0030317
:1057E00009B143F0040343F008039910013B91729F
:1057F0000D2B0BD8DFE803F01E0719070A141E1E35
:10580000140A0719071ED368013BD36010BC704708
:10581000937A03F003030029E7D043F00403E4E79D
:10582000D36810BC023BD3607047D36810BC02330E
:10583000D3607047D36810BC0133D360704700BF9A
:10584000E092FF1F1F4B10B4DA6D1368506819788F
:105850000478507A137A044201EA03011AD0937A49
:1058600003F0030309B143F0040343F00803991064
:10587000013B91720D2B0BD8DFE803F01E071907CF
:105880000A141E1E140A0719071ED368013BD360B1
:1058900010BC7047937A03F003030029E7D043F06C
:1058A0000403E4E7D36810BC023BD3607047D368BD
:1058B00010BC0233D3607047D36810BC0133D3608F
:1058C000704700BFE092FF1F1F4B10B41A6E1368A1
:1058D000506819780478507A137A044201EA030177
:1058E0001AD0937A03F0030309B143F0040343F0A1
:1058F00008039910013B91720D2B0BD8DFE803F0E0
:105900001E0719070A141E1E140A0719071ED3685A
:10591000013BD36010BC7047937A03F00303002966
:10592000E7D043F00403E4E7D36810BC023BD36044
:105930007047D36810BC0233D3607047D36810BC83
:105940000133D360704700BFE092FF1F1F4B10B4BC
:105950005A6E1368506819780478507A137A0442A2
:1059600001EA03011AD0937A03F0030309B143F06B
:10597000040343F008039910013B91720D2B0BD8DF
:10598000DFE803F01E0719070A141E1E140A071980
:10599000071ED368013BD36010BC7047937A03F0B5
:1059A00003030029E7D043F00403E4E7D36810BC05
:1059B000023BD3607047D36810BC0233D36070479A
:1059C000D36810BC0133D360704700BFE092FF1F63
:1059D0001F4B10B49A6E1368506819780478507A87
:1059E000137A044201EA03011AD0937A03F0030305
:1059F00009B143F0040343F008039910013B91728D
:105A00000D2B0BD8DFE803F01E0719070A141E1E22
:105A1000140A0719071ED368013BD36010BC7047F6
:105A2000937A03F003030029E7D043F00403E4E78B
:105A3000D36810BC023BD3607047D36810BC0233FC
:105A4000D3607047D36810BC0133D360704700BF88
:105A5000E092FF1F1F4B10B4DA6E1368506819787C
:105A60000478507A137A044201EA03011AD0937A37
:105A700003F0030309B143F0040343F00803991052
:105A8000013B91720D2B0BD8DFE803F01E071907BD
:105A90000A141E1E140A0719071ED368013BD3609F
:105AA00010BC7047937A03F003030029E7D043F05A
:105AB0000403E4E7D36810BC023BD3607047D368AB
:105AC00010BC0233D3607047D36810BC0133D3607D
:105AD000704700BFE092FF1F1F4B10B41A6F13688E
